{
  "_format": "hh-sol-artifact-1",
  "contractName": "MyERC1155Token",
  "sourceName": "contracts/contract.sol",
  "abi": [
    {
      "inputs": [
        {
          "internalType": "string",
          "name": "_uri",
          "type": "string"
        }
      ],
      "stateMutability": "nonpayable",
      "type": "constructor"
    },
    {
      "inputs": [
        {
          "internalType": "address",
          "name": "sender",
          "type": "address"
        },
        {
          "internalType": "uint256",
          "name": "balance",
          "type": "uint256"
        },
        {
          "internalType": "uint256",
          "name": "needed",
          "type": "uint256"
        },
        {
          "internalType": "uint256",
          "name": "tokenId",
          "type": "uint256"
        }
      ],
      "name": "ERC1155InsufficientBalance",
      "type": "error"
    },
    {
      "inputs": [
        {
          "internalType": "address",
          "name": "approver",
          "type": "address"
        }
      ],
      "name": "ERC1155InvalidApprover",
      "type": "error"
    },
    {
      "inputs": [
        {
          "internalType": "uint256",
          "name": "idsLength",
          "type": "uint256"
        },
        {
          "internalType": "uint256",
          "name": "valuesLength",
          "type": "uint256"
        }
      ],
      "name": "ERC1155InvalidArrayLength",
      "type": "error"
    },
    {
      "inputs": [
        {
          "internalType": "address",
          "name": "operator",
          "type": "address"
        }
      ],
      "name": "ERC1155InvalidOperator",
      "type": "error"
    },
    {
      "inputs": [
        {
          "internalType": "address",
          "name": "receiver",
          "type": "address"
        }
      ],
      "name": "ERC1155InvalidReceiver",
      "type": "error"
    },
    {
      "inputs": [
        {
          "internalType": "address",
          "name": "sender",
          "type": "address"
        }
      ],
      "name": "ERC1155InvalidSender",
      "type": "error"
    },
    {
      "inputs": [
        {
          "internalType": "address",
          "name": "operator",
          "type": "address"
        },
        {
          "internalType": "address",
          "name": "owner",
          "type": "address"
        }
      ],
      "name": "ERC1155MissingApprovalForAll",
      "type": "error"
    },
    {
      "anonymous": false,
      "inputs": [
        {
          "indexed": true,
          "internalType": "address",
          "name": "account",
          "type": "address"
        },
        {
          "indexed": true,
          "internalType": "address",
          "name": "operator",
          "type": "address"
        },
        {
          "indexed": false,
          "internalType": "bool",
          "name": "approved",
          "type": "bool"
        }
      ],
      "name": "ApprovalForAll",
      "type": "event"
    },
    {
      "anonymous": false,
      "inputs": [
        {
          "indexed": true,
          "internalType": "address",
          "name": "operator",
          "type": "address"
        },
        {
          "indexed": true,
          "internalType": "address",
          "name": "from",
          "type": "address"
        },
        {
          "indexed": true,
          "internalType": "address",
          "name": "to",
          "type": "address"
        },
        {
          "indexed": false,
          "internalType": "uint256[]",
          "name": "ids",
          "type": "uint256[]"
        },
        {
          "indexed": false,
          "internalType": "uint256[]",
          "name": "values",
          "type": "uint256[]"
        }
      ],
      "name": "TransferBatch",
      "type": "event"
    },
    {
      "anonymous": false,
      "inputs": [
        {
          "indexed": true,
          "internalType": "address",
          "name": "operator",
          "type": "address"
        },
        {
          "indexed": true,
          "internalType": "address",
          "name": "from",
          "type": "address"
        },
        {
          "indexed": true,
          "internalType": "address",
          "name": "to",
          "type": "address"
        },
        {
          "indexed": false,
          "internalType": "uint256",
          "name": "id",
          "type": "uint256"
        },
        {
          "indexed": false,
          "internalType": "uint256",
          "name": "value",
          "type": "uint256"
        }
      ],
      "name": "TransferSingle",
      "type": "event"
    },
    {
      "anonymous": false,
      "inputs": [
        {
          "indexed": false,
          "internalType": "string",
          "name": "value",
          "type": "string"
        },
        {
          "indexed": true,
          "internalType": "uint256",
          "name": "id",
          "type": "uint256"
        }
      ],
      "name": "URI",
      "type": "event"
    },
    {
      "inputs": [],
      "name": "MAX_SUPPLY",
      "outputs": [
        {
          "internalType": "uint256",
          "name": "",
          "type": "uint256"
        }
      ],
      "stateMutability": "view",
      "type": "function"
    },
    {
      "inputs": [
        {
          "internalType": "address",
          "name": "account",
          "type": "address"
        },
        {
          "internalType": "uint256",
          "name": "id",
          "type": "uint256"
        }
      ],
      "name": "balanceOf",
      "outputs": [
        {
          "internalType": "uint256",
          "name": "",
          "type": "uint256"
        }
      ],
      "stateMutability": "view",
      "type": "function"
    },
    {
      "inputs": [
        {
          "internalType": "address[]",
          "name": "accounts",
          "type": "address[]"
        },
        {
          "internalType": "uint256[]",
          "name": "ids",
          "type": "uint256[]"
        }
      ],
      "name": "balanceOfBatch",
      "outputs": [
        {
          "internalType": "uint256[]",
          "name": "",
          "type": "uint256[]"
        }
      ],
      "stateMutability": "view",
      "type": "function"
    },
    {
      "inputs": [
        {
          "internalType": "uint256",
          "name": "_tokenId",
          "type": "uint256"
        },
        {
          "internalType": "uint256",
          "name": "_amount",
          "type": "uint256"
        }
      ],
      "name": "buyToken",
      "outputs": [],
      "stateMutability": "payable",
      "type": "function"
    },
    {
      "inputs": [
        {
          "internalType": "uint256",
          "name": "",
          "type": "uint256"
        }
      ],
      "name": "desc",
      "outputs": [
        {
          "internalType": "string",
          "name": "",
          "type": "string"
        }
      ],
      "stateMutability": "view",
      "type": "function"
    },
    {
      "inputs": [],
      "name": "getAllMetadata",
      "outputs": [
        {
          "internalType": "string",
          "name": "",
          "type": "string"
        }
      ],
      "stateMutability": "view",
      "type": "function"
    },
    {
      "inputs": [
        {
          "internalType": "uint256",
          "name": "_tokenId",
          "type": "uint256"
        }
      ],
      "name": "getMetadata",
      "outputs": [
        {
          "internalType": "string",
          "name": "",
          "type": "string"
        }
      ],
      "stateMutability": "view",
      "type": "function"
    },
    {
      "inputs": [],
      "name": "getMetadataLocation",
      "outputs": [
        {
          "internalType": "string",
          "name": "",
          "type": "string"
        }
      ],
      "stateMutability": "view",
      "type": "function"
    },
    {
      "inputs": [],
      "name": "getTokenCount",
      "outputs": [
        {
          "internalType": "uint256",
          "name": "",
          "type": "uint256"
        }
      ],
      "stateMutability": "view",
      "type": "function"
    },
    {
      "inputs": [
        {
          "internalType": "uint256",
          "name": "",
          "type": "uint256"
        }
      ],
      "name": "imgURL",
      "outputs": [
        {
          "internalType": "string",
          "name": "",
          "type": "string"
        }
      ],
      "stateMutability": "view",
      "type": "function"
    },
    {
      "inputs": [
        {
          "internalType": "address",
          "name": "account",
          "type": "address"
        },
        {
          "internalType": "address",
          "name": "operator",
          "type": "address"
        }
      ],
      "name": "isApprovedForAll",
      "outputs": [
        {
          "internalType": "bool",
          "name": "",
          "type": "bool"
        }
      ],
      "stateMutability": "view",
      "type": "function"
    },
    {
      "inputs": [
        {
          "internalType": "uint256",
          "name": "_amount",
          "type": "uint256"
        },
        {
          "internalType": "uint256",
          "name": "_price",
          "type": "uint256"
        },
        {
          "internalType": "string",
          "name": "_name",
          "type": "string"
        },
        {
          "internalType": "string",
          "name": "_desc",
          "type": "string"
        },
        {
          "internalType": "string",
          "name": "_imgURL",
          "type": "string"
        }
      ],
      "name": "mint",
      "outputs": [
        {
          "internalType": "uint256",
          "name": "tokenId",
          "type": "uint256"
        }
      ],
      "stateMutability": "nonpayable",
      "type": "function"
    },
    {
      "inputs": [
        {
          "internalType": "uint256",
          "name": "",
          "type": "uint256"
        }
      ],
      "name": "name",
      "outputs": [
        {
          "internalType": "string",
          "name": "",
          "type": "string"
        }
      ],
      "stateMutability": "view",
      "type": "function"
    },
    {
      "inputs": [
        {
          "internalType": "address",
          "name": "from",
          "type": "address"
        },
        {
          "internalType": "address",
          "name": "to",
          "type": "address"
        },
        {
          "internalType": "uint256[]",
          "name": "ids",
          "type": "uint256[]"
        },
        {
          "internalType": "uint256[]",
          "name": "values",
          "type": "uint256[]"
        },
        {
          "internalType": "bytes",
          "name": "data",
          "type": "bytes"
        }
      ],
      "name": "safeBatchTransferFrom",
      "outputs": [],
      "stateMutability": "nonpayable",
      "type": "function"
    },
    {
      "inputs": [
        {
          "internalType": "address",
          "name": "from",
          "type": "address"
        },
        {
          "internalType": "address",
          "name": "to",
          "type": "address"
        },
        {
          "internalType": "uint256",
          "name": "id",
          "type": "uint256"
        },
        {
          "internalType": "uint256",
          "name": "value",
          "type": "uint256"
        },
        {
          "internalType": "bytes",
          "name": "data",
          "type": "bytes"
        }
      ],
      "name": "safeTransferFrom",
      "outputs": [],
      "stateMutability": "nonpayable",
      "type": "function"
    },
    {
      "inputs": [
        {
          "internalType": "address",
          "name": "operator",
          "type": "address"
        },
        {
          "internalType": "bool",
          "name": "approved",
          "type": "bool"
        }
      ],
      "name": "setApprovalForAll",
      "outputs": [],
      "stateMutability": "nonpayable",
      "type": "function"
    },
    {
      "inputs": [
        {
          "internalType": "string",
          "name": "_location",
          "type": "string"
        }
      ],
      "name": "setMetadataLocation",
      "outputs": [],
      "stateMutability": "nonpayable",
      "type": "function"
    },
    {
      "inputs": [
        {
          "internalType": "bytes4",
          "name": "interfaceId",
          "type": "bytes4"
        }
      ],
      "name": "supportsInterface",
      "outputs": [
        {
          "internalType": "bool",
          "name": "",
          "type": "bool"
        }
      ],
      "stateMutability": "view",
      "type": "function"
    },
    {
      "inputs": [
        {
          "internalType": "uint256",
          "name": "",
          "type": "uint256"
        }
      ],
      "name": "tokenMinter",
      "outputs": [
        {
          "internalType": "address",
          "name": "",
          "type": "address"
        }
      ],
      "stateMutability": "view",
      "type": "function"
    },
    {
      "inputs": [
        {
          "internalType": "uint256",
          "name": "",
          "type": "uint256"
        }
      ],
      "name": "tokenPrice",
      "outputs": [
        {
          "internalType": "uint256",
          "name": "",
          "type": "uint256"
        }
      ],
      "stateMutability": "view",
      "type": "function"
    },
    {
      "inputs": [
        {
          "internalType": "uint256",
          "name": "",
          "type": "uint256"
        }
      ],
      "name": "tokenSupply",
      "outputs": [
        {
          "internalType": "uint256",
          "name": "",
          "type": "uint256"
        }
      ],
      "stateMutability": "view",
      "type": "function"
    },
    {
      "inputs": [
        {
          "internalType": "uint256",
          "name": "",
          "type": "uint256"
        }
      ],
      "name": "tokensSold",
      "outputs": [
        {
          "internalType": "uint256",
          "name": "",
          "type": "uint256"
        }
      ],
      "stateMutability": "view",
      "type": "function"
    },
    {
      "inputs": [
        {
          "internalType": "uint256",
          "name": "",
          "type": "uint256"
        }
      ],
      "name": "uri",
      "outputs": [
        {
          "internalType": "string",
          "name": "",
          "type": "string"
        }
      ],
      "stateMutability": "view",
      "type": "function"
    }
  ],
  "bytecode": "0x60806040526000600355604051806020016040528060008152506005908162000029919062000386565b503480156200003757600080fd5b50604051620042a5380380620042a583398181016040528101906200005d9190620005d1565b806200006f81620000f760201b60201c565b50806005908162000081919062000386565b5033600460006101000a81548173ffffffffffffffffffffffffffffffffffffffff021916908373ffffffffffffffffffffffffffffffffffffffff160217905550604051602001620000d49062000657565b60405160208183030381529060405280519060200120600681905550506200066e565b806002908162000108919062000386565b5050565b600081519050919050565b7f4e487b7100000000000000000000000000000000000000000000000000000000600052604160045260246000fd5b7f4e487b7100000000000000000000000000000000000000000000000000000000600052602260045260246000fd5b600060028204905060018216806200018e57607f821691505b602082108103620001a457620001a362000146565b5b50919050565b60008190508160005260206000209050919050565b60006020601f8301049050919050565b600082821b905092915050565b6000600883026200020e7fffffffffffffffffffffffffffffffffffffffffffffffffffffffffffffffff82620001cf565b6200021a8683620001cf565b95508019841693508086168417925050509392505050565b6000819050919050565b6000819050919050565b600062000267620002616200025b8462000232565b6200023c565b62000232565b9050919050565b6000819050919050565b620002838362000246565b6200029b62000292826200026e565b848454620001dc565b825550505050565b600090565b620002b2620002a3565b620002bf81848462000278565b505050565b5b81811015620002e757620002db600082620002a8565b600181019050620002c5565b5050565b601f82111562000336576200030081620001aa565b6200030b84620001bf565b810160208510156200031b578190505b620003336200032a85620001bf565b830182620002c4565b50505b505050565b600082821c905092915050565b60006200035b600019846008026200033b565b1980831691505092915050565b600062000376838362000348565b9150826002028217905092915050565b62000391826200010c565b67ffffffffffffffff811115620003ad57620003ac62000117565b5b620003b9825462000175565b620003c6828285620002eb565b600060209050601f831160018114620003fe5760008415620003e9578287015190505b620003f5858262000368565b86555062000465565b601f1984166200040e86620001aa565b60005b82811015620004385784890151825560018201915060208501945060208101905062000411565b8683101562000458578489015162000454601f89168262000348565b8355505b6001600288020188555050505b505050505050565b6000604051905090565b600080fd5b600080fd5b600080fd5b600080fd5b6000601f19601f8301169050919050565b620004a7826200048b565b810181811067ffffffffffffffff82111715620004c957620004c862000117565b5b80604052505050565b6000620004de6200046d565b9050620004ec82826200049c565b919050565b600067ffffffffffffffff8211156200050f576200050e62000117565b5b6200051a826200048b565b9050602081019050919050565b60005b83811015620005475780820151818401526020810190506200052a565b60008484015250505050565b60006200056a6200056484620004f1565b620004d2565b90508281526020810184848401111562000589576200058862000486565b5b6200059684828562000527565b509392505050565b600082601f830112620005b657620005b562000481565b5b8151620005c884826020860162000553565b91505092915050565b600060208284031215620005ea57620005e962000477565b5b600082015167ffffffffffffffff8111156200060b576200060a6200047c565b5b62000619848285016200059e565b91505092915050565b600081905092915050565b50565b60006200063f60008362000622565b91506200064c826200062d565b600082019050919050565b6000620006648262000630565b9150819050919050565b613c27806200067e6000396000f3fe60806040526004361061013e5760003560e01c80637402ba96116100b6578063d4ddce8a1161006f578063d4ddce8a146104d1578063d9a196351461050e578063da11d67514610539578063e985e9c514610576578063eefaf905146105b3578063f242432a146105dc5761013e565b80637402ba961461038957806378a89567146103c65780637c57d947146103f157806398b8c2b01461042e578063a22cb4651461046b578063a574cea4146104945761013e565b80632693ebf2116101085780632693ebf21461025357806326983081146102905780632eb2c2d6146102cd57806332cb6b0c146102f65780634e1273f4146103215780635cddf4911461035e5761013e565b8062ad800c14610143578062fdd58e1461018057806301ffc9a7146101bd578063057466ea146101fa5780630e89341c14610216575b600080fd5b34801561014f57600080fd5b5061016a600480360381019061016591906123cd565b610605565b604051610177919061248a565b60405180910390f35b34801561018c57600080fd5b506101a760048036038101906101a2919061250a565b6106a5565b6040516101b49190612559565b60405180910390f35b3480156101c957600080fd5b506101e460048036038101906101df91906125cc565b6106ff565b6040516101f19190612614565b60405180910390f35b610214600480360381019061020f919061262f565b6107e1565b005b34801561022257600080fd5b5061023d600480360381019061023891906123cd565b6109e4565b60405161024a919061248a565b60405180910390f35b34801561025f57600080fd5b5061027a600480360381019061027591906123cd565b610a78565b6040516102879190612559565b60405180910390f35b34801561029c57600080fd5b506102b760048036038101906102b291906123cd565b610a90565b6040516102c4919061248a565b60405180910390f35b3480156102d957600080fd5b506102f460048036038101906102ef919061286c565b610b30565b005b34801561030257600080fd5b5061030b610bd8565b6040516103189190612559565b60405180910390f35b34801561032d57600080fd5b50610348600480360381019061034391906129fe565b610bde565b6040516103559190612b34565b60405180910390f35b34801561036a57600080fd5b50610373610ce7565b604051610380919061248a565b60405180910390f35b34801561039557600080fd5b506103b060048036038101906103ab91906123cd565b610d79565b6040516103bd9190612559565b60405180910390f35b3480156103d257600080fd5b506103db610d91565b6040516103e89190612559565b60405180910390f35b3480156103fd57600080fd5b50610418600480360381019061041391906123cd565b610d9b565b6040516104259190612b65565b60405180910390f35b34801561043a57600080fd5b50610455600480360381019061045091906123cd565b610dce565b604051610462919061248a565b60405180910390f35b34801561047757600080fd5b50610492600480360381019061048d9190612bac565b610e6e565b005b3480156104a057600080fd5b506104bb60048036038101906104b691906123cd565b610e84565b6040516104c8919061248a565b60405180910390f35b3480156104dd57600080fd5b506104f860048036038101906104f391906123cd565b610f48565b6040516105059190612559565b60405180910390f35b34801561051a57600080fd5b50610523610f60565b604051610530919061248a565b60405180910390f35b34801561054557600080fd5b50610560600480360381019061055b9190612c8d565b610fff565b60405161056d9190612559565b60405180910390f35b34801561058257600080fd5b5061059d60048036038101906105989190612d5c565b6112eb565b6040516105aa9190612614565b60405180910390f35b3480156105bf57600080fd5b506105da60048036038101906105d59190612d9c565b61137f565b005b3480156105e857600080fd5b5061060360048036038101906105fe9190612de5565b611422565b005b600b602052806000526040600020600091509050805461062490612eab565b80601f016020809104026020016040519081016040528092919081815260200182805461065090612eab565b801561069d5780601f106106725761010080835404028352916020019161069d565b820191906000526020600020905b81548152906001019060200180831161068057829003601f168201915b505050505081565b600080600083815260200190815260200160002060008473ffffffffffffffffffffffffffffffffffffffff1673ffffffffffffffffffffffffffffffffffffffff16815260200190815260200160002054905092915050565b60007fd9b67a26000000000000000000000000000000000000000000000000000000007bffffffffffffffffffffffffffffffffffffffffffffffffffffffff1916827bffffffffffffffffffffffffffffffffffffffffffffffffffffffff191614806107ca57507f0e89341c000000000000000000000000000000000000000000000000000000007bffffffffffffffffffffffffffffffffffffffffffffffffffffffff1916827bffffffffffffffffffffffffffffffffffffffffffffffffffffffff1916145b806107da57506107d9826114ca565b5b9050919050565b8060076000848152602001908152602001600020546108009190612f0b565b34101561080c34611534565b60405160200161081c9190612faf565b6040516020818303038152906040529061086c576040517f08c379a0000000000000000000000000000000000000000000000000000000008152600401610863919061248a565b60405180910390fd5b506009600083815260200190815260200160002054600860008481526020019081526020016000205461089f9190612fd5565b8111156108e1576040517f08c379a00000000000000000000000000000000000000000000000000000000081526004016108d890613055565b60405180910390fd5b610930600a600084815260200190815260200160002060009054906101000a900473ffffffffffffffffffffffffffffffffffffffff1633848460405180602001604052806000815250611602565b80600960008481526020019081526020016000205461094f9190613075565b6009600084815260200190815260200160002081905550600a600083815260200190815260200160002060009054906101000a900473ffffffffffffffffffffffffffffffffffffffff1673ffffffffffffffffffffffffffffffffffffffff166108fc349081150290604051600060405180830381858888f193505050501580156109df573d6000803e3d6000fd5b505050565b6060600280546109f390612eab565b80601f0160208091040260200160405190810160405280929190818152602001828054610a1f90612eab565b8015610a6c5780601f10610a4157610100808354040283529160200191610a6c565b820191906000526020600020905b815481529060010190602001808311610a4f57829003601f168201915b50505050509050919050565b60086020528060005260406000206000915090505481565b600d6020528060005260406000206000915090508054610aaf90612eab565b80601f0160208091040260200160405190810160405280929190818152602001828054610adb90612eab565b8015610b285780601f10610afd57610100808354040283529160200191610b28565b820191906000526020600020905b815481529060010190602001808311610b0b57829003601f168201915b505050505081565b6000610b3a61170d565b90508073ffffffffffffffffffffffffffffffffffffffff168673ffffffffffffffffffffffffffffffffffffffff1614158015610b7f5750610b7d86826112eb565b155b15610bc35780866040517fe237d922000000000000000000000000000000000000000000000000000000008152600401610bba9291906130a9565b60405180910390fd5b610bd08686868686611715565b505050505050565b6103e881565b60608151835114610c2a57815183516040517f5b059991000000000000000000000000000000000000000000000000000000008152600401610c219291906130d2565b60405180910390fd5b6000835167ffffffffffffffff811115610c4757610c46612674565b5b604051908082528060200260200182016040528015610c755781602001602082028036833780820191505090505b50905060005b8451811015610cdc57610cb2610c9a828761180d90919063ffffffff16565b610cad838761182190919063ffffffff16565b6106a5565b828281518110610cc557610cc46130fb565b5b602002602001018181525050806001019050610c7b565b508091505092915050565b606060058054610cf690612eab565b80601f0160208091040260200160405190810160405280929190818152602001828054610d2290612eab565b8015610d6f5780601f10610d4457610100808354040283529160200191610d6f565b820191906000526020600020905b815481529060010190602001808311610d5257829003601f168201915b5050505050905090565b60096020528060005260406000206000915090505481565b6000600354905090565b600a6020528060005260406000206000915054906101000a900473ffffffffffffffffffffffffffffffffffffffff1681565b600c6020528060005260406000206000915090508054610ded90612eab565b80601f0160208091040260200160405190810160405280929190818152602001828054610e1990612eab565b8015610e665780601f10610e3b57610100808354040283529160200191610e66565b820191906000526020600020905b815481529060010190602001808311610e4957829003601f168201915b505050505081565b610e80610e7961170d565b8383611835565b5050565b6060610e8f82611534565b610eab6007600085815260200190815260200160002054611534565b610ec76008600086815260200190815260200160002054611534565b610ee36009600087815260200190815260200160002054611534565b600b6000878152602001908152602001600020600c6000888152602001908152602001600020600d6000898152602001908152602001600020604051602001610f329796959493929190613234565b6040516020818303038152906040529050919050565b60076020528060005260406000206000915090505481565b6060600060405180602001604052806000815250905060005b600354811015610fd55760008103610f9b57610f9481610e84565b9150610fc8565b81610fa582610e84565b604051602001610fb692919061335d565b60405160208183030381529060405291505b8080600101915050610f79565b5080604051602001610fe79190613424565b60405160208183030381529060405290508091505090565b6000808611611043576040517f08c379a000000000000000000000000000000000000000000000000000000000815260040161103a9061349d565b60405180910390fd5b6103e8861115611088576040517f08c379a000000000000000000000000000000000000000000000000000000000815260040161107f9061352f565b60405180910390fd5b60008510156110cc576040517f08c379a00000000000000000000000000000000000000000000000000000000081526004016110c39061359b565b60405180910390fd5b600654846040516020016110e091906135bb565b6040516020818303038152906040528051906020012003611136576040517f08c379a000000000000000000000000000000000000000000000000000000000815260040161112d9061361e565b60405180910390fd5b6006548360405160200161114a91906135bb565b60405160208183030381529060405280519060200120036111a0576040517f08c379a00000000000000000000000000000000000000000000000000000000081526004016111979061368a565b60405180910390fd5b6111bd3360035488604051806020016040528060008152506119a5565b8460076000600354815260200190815260200160002081905550856008600060035481526020019081526020016000208190555060006009600060035481526020019081526020016000208190555033600a6000600354815260200190815260200160002060006101000a81548173ffffffffffffffffffffffffffffffffffffffff021916908373ffffffffffffffffffffffffffffffffffffffff16021790555083600b6000600354815260200190815260200160002090816112829190613841565b5082600c6000600354815260200190815260200160002090816112a59190613841565b5081600d6000600354815260200190815260200160002090816112c89190613841565b50600360008154809291906112dc90613913565b91905055905095945050505050565b6000600160008473ffffffffffffffffffffffffffffffffffffffff1673ffffffffffffffffffffffffffffffffffffffff16815260200190815260200160002060008373ffffffffffffffffffffffffffffffffffffffff1673ffffffffffffffffffffffffffffffffffffffff16815260200190815260200160002060009054906101000a900460ff16905092915050565b600460009054906101000a900473ffffffffffffffffffffffffffffffffffffffff1673ffffffffffffffffffffffffffffffffffffffff163373ffffffffffffffffffffffffffffffffffffffff161461140f576040517f08c379a0000000000000000000000000000000000000000000000000000000008152600401611406906139cd565b60405180910390fd5b806005908161141e9190613841565b5050565b600061142c61170d565b90508073ffffffffffffffffffffffffffffffffffffffff168673ffffffffffffffffffffffffffffffffffffffff1614158015611471575061146f86826112eb565b155b156114b55780866040517fe237d9220000000000000000000000000000000000000000000000000000000081526004016114ac9291906130a9565b60405180910390fd5b6114c28686868686611602565b505050505050565b60007f01ffc9a7000000000000000000000000000000000000000000000000000000007bffffffffffffffffffffffffffffffffffffffffffffffffffffffff1916827bffffffffffffffffffffffffffffffffffffffffffffffffffffffff1916149050919050565b60606000600161154384611a3e565b01905060008167ffffffffffffffff81111561156257611561612674565b5b6040519080825280601f01601f1916602001820160405280156115945781602001600182028036833780820191505090505b509050600082602001820190505b6001156115f7578080600190039150507f3031323334353637383961626364656600000000000000000000000000000000600a86061a8153600a85816115eb576115ea6139ed565b5b049450600085036115a2575b819350505050919050565b600073ffffffffffffffffffffffffffffffffffffffff168473ffffffffffffffffffffffffffffffffffffffff16036116745760006040517f57f447ce00000000000000000000000000000000000000000000000000000000815260040161166b9190612b65565b60405180910390fd5b600073ffffffffffffffffffffffffffffffffffffffff168573ffffffffffffffffffffffffffffffffffffffff16036116e65760006040517f01a835140000000000000000000000000000000000000000000000000000000081526004016116dd9190612b65565b60405180910390fd5b6000806116f38585611b91565b915091506117048787848487611bc1565b50505050505050565b600033905090565b600073ffffffffffffffffffffffffffffffffffffffff168473ffffffffffffffffffffffffffffffffffffffff16036117875760006040517f57f447ce00000000000000000000000000000000000000000000000000000000815260040161177e9190612b65565b60405180910390fd5b600073ffffffffffffffffffffffffffffffffffffffff168573ffffffffffffffffffffffffffffffffffffffff16036117f95760006040517f01a835140000000000000000000000000000000000000000000000000000000081526004016117f09190612b65565b60405180910390fd5b6118068585858585611bc1565b5050505050565b600060208202602084010151905092915050565b600060208202602084010151905092915050565b600073ffffffffffffffffffffffffffffffffffffffff168273ffffffffffffffffffffffffffffffffffffffff16036118a75760006040517fced3e10000000000000000000000000000000000000000000000000000000000815260040161189e9190612b65565b60405180910390fd5b80600160008573ffffffffffffffffffffffffffffffffffffffff1673ffffffffffffffffffffffffffffffffffffffff16815260200190815260200160002060008473ffffffffffffffffffffffffffffffffffffffff1673ffffffffffffffffffffffffffffffffffffffff16815260200190815260200160002060006101000a81548160ff0219169083151502179055508173ffffffffffffffffffffffffffffffffffffffff168373ffffffffffffffffffffffffffffffffffffffff167f17307eab39ab6107e8899845ad3d59bd9653f200f220920489ca2b5937696c31836040516119989190612614565b60405180910390a3505050565b600073ffffffffffffffffffffffffffffffffffffffff168473ffffffffffffffffffffffffffffffffffffffff1603611a175760006040517f57f447ce000000000000000000000000000000000000000000000000000000008152600401611a0e9190612b65565b60405180910390fd5b600080611a248585611b91565b91509150611a36600087848487611bc1565b505050505050565b600080600090507a184f03e93ff9f4daa797ed6e38ed64bf6a1f0100000000000000008310611a9c577a184f03e93ff9f4daa797ed6e38ed64bf6a1f0100000000000000008381611a9257611a916139ed565b5b0492506040810190505b6d04ee2d6d415b85acef81000000008310611ad9576d04ee2d6d415b85acef81000000008381611acf57611ace6139ed565b5b0492506020810190505b662386f26fc100008310611b0857662386f26fc100008381611afe57611afd6139ed565b5b0492506010810190505b6305f5e1008310611b31576305f5e1008381611b2757611b266139ed565b5b0492506008810190505b6127108310611b56576127108381611b4c57611b4b6139ed565b5b0492506004810190505b60648310611b795760648381611b6f57611b6e6139ed565b5b0492506002810190505b600a8310611b88576001810190505b80915050919050565b60608060405191506001825283602083015260408201905060018152826020820152604081016040529250929050565b611bcd85858585611c73565b600073ffffffffffffffffffffffffffffffffffffffff168473ffffffffffffffffffffffffffffffffffffffff1614611c6c576000611c0b61170d565b90506001845103611c5b576000611c2c60008661182190919063ffffffff16565b90506000611c4460008661182190919063ffffffff16565b9050611c5483898985858961201b565b5050611c6a565b611c698187878787876121cf565b5b505b5050505050565b8051825114611cbd57815181516040517f5b059991000000000000000000000000000000000000000000000000000000008152600401611cb49291906130d2565b60405180910390fd5b6000611cc761170d565b905060005b8351811015611ed6576000611cea828661182190919063ffffffff16565b90506000611d01838661182190919063ffffffff16565b9050600073ffffffffffffffffffffffffffffffffffffffff168873ffffffffffffffffffffffffffffffffffffffff1614611e2e57600080600084815260200190815260200160002060008a73ffffffffffffffffffffffffffffffffffffffff1673ffffffffffffffffffffffffffffffffffffffff16815260200190815260200160002054905081811015611dd657888183856040517f03dee4c5000000000000000000000000000000000000000000000000000000008152600401611dcd9493929190613a1c565b60405180910390fd5b81810360008085815260200190815260200160002060008b73ffffffffffffffffffffffffffffffffffffffff1673ffffffffffffffffffffffffffffffffffffffff16815260200190815260200160002081905550505b600073ffffffffffffffffffffffffffffffffffffffff168773ffffffffffffffffffffffffffffffffffffffff1614611ec9578060008084815260200190815260200160002060008973ffffffffffffffffffffffffffffffffffffffff1673ffffffffffffffffffffffffffffffffffffffff1681526020019081526020016000206000828254611ec19190613075565b925050819055505b5050806001019050611ccc565b506001835103611f95576000611ef660008561182190919063ffffffff16565b90506000611f0e60008561182190919063ffffffff16565b90508573ffffffffffffffffffffffffffffffffffffffff168773ffffffffffffffffffffffffffffffffffffffff168473ffffffffffffffffffffffffffffffffffffffff167fc3d58168c5ae7397731d063d5bbf3d657854427343f4c083240f7aacaa2d0f628585604051611f869291906130d2565b60405180910390a45050612014565b8373ffffffffffffffffffffffffffffffffffffffff168573ffffffffffffffffffffffffffffffffffffffff168273ffffffffffffffffffffffffffffffffffffffff167f4a39dc06d4c0dbc64b70af90fd698a233a518aa5d07e595d983b8c0526c8f7fb868660405161200b929190613a61565b60405180910390a45b5050505050565b60008473ffffffffffffffffffffffffffffffffffffffff163b11156121c7578373ffffffffffffffffffffffffffffffffffffffff1663f23a6e6187878686866040518663ffffffff1660e01b815260040161207c959493929190613aed565b6020604051808303816000875af19250505080156120b857506040513d601f19601f820116820180604052508101906120b59190613b5c565b60015b61213c573d80600081146120e8576040519150601f19603f3d011682016040523d82523d6000602084013e6120ed565b606091505b50600081510361213457846040517f57f447ce00000000000000000000000000000000000000000000000000000000815260040161212b9190612b65565b60405180910390fd5b805181602001fd5b63f23a6e6160e01b7bffffffffffffffffffffffffffffffffffffffffffffffffffffffff1916817bffffffffffffffffffffffffffffffffffffffffffffffffffffffff1916146121c557846040517f57f447ce0000000000000000000000000000000000000000000000000000000081526004016121bc9190612b65565b60405180910390fd5b505b505050505050565b60008473ffffffffffffffffffffffffffffffffffffffff163b111561237b578373ffffffffffffffffffffffffffffffffffffffff1663bc197c8187878686866040518663ffffffff1660e01b8152600401612230959493929190613b89565b6020604051808303816000875af192505050801561226c57506040513d601f19601f820116820180604052508101906122699190613b5c565b60015b6122f0573d806000811461229c576040519150601f19603f3d011682016040523d82523d6000602084013e6122a1565b606091505b5060008151036122e857846040517f57f447ce0000000000000000000000000000000000000000000000000000000081526004016122df9190612b65565b60405180910390fd5b805181602001fd5b63bc197c8160e01b7bffffffffffffffffffffffffffffffffffffffffffffffffffffffff1916817bffffffffffffffffffffffffffffffffffffffffffffffffffffffff19161461237957846040517f57f447ce0000000000000000000000000000000000000000000000000000000081526004016123709190612b65565b60405180910390fd5b505b505050505050565b6000604051905090565b600080fd5b600080fd5b6000819050919050565b6123aa81612397565b81146123b557600080fd5b50565b6000813590506123c7816123a1565b92915050565b6000602082840312156123e3576123e261238d565b5b60006123f1848285016123b8565b91505092915050565b600081519050919050565b600082825260208201905092915050565b60005b83811015612434578082015181840152602081019050612419565b60008484015250505050565b6000601f19601f8301169050919050565b600061245c826123fa565b6124668185612405565b9350612476818560208601612416565b61247f81612440565b840191505092915050565b600060208201905081810360008301526124a48184612451565b905092915050565b600073ffffffffffffffffffffffffffffffffffffffff82169050919050565b60006124d7826124ac565b9050919050565b6124e7816124cc565b81146124f257600080fd5b50565b600081359050612504816124de565b92915050565b600080604083850312156125215761252061238d565b5b600061252f858286016124f5565b9250506020612540858286016123b8565b9150509250929050565b61255381612397565b82525050565b600060208201905061256e600083018461254a565b92915050565b60007fffffffff0000000000000000000000000000000000000000000000000000000082169050919050565b6125a981612574565b81146125b457600080fd5b50565b6000813590506125c6816125a0565b92915050565b6000602082840312156125e2576125e161238d565b5b60006125f0848285016125b7565b91505092915050565b60008115159050919050565b61260e816125f9565b82525050565b60006020820190506126296000830184612605565b92915050565b600080604083850312156126465761264561238d565b5b6000612654858286016123b8565b9250506020612665858286016123b8565b9150509250929050565b600080fd5b7f4e487b7100000000000000000000000000000000000000000000000000000000600052604160045260246000fd5b6126ac82612440565b810181811067ffffffffffffffff821117156126cb576126ca612674565b5b80604052505050565b60006126de612383565b90506126ea82826126a3565b919050565b600067ffffffffffffffff82111561270a57612709612674565b5b602082029050602081019050919050565b600080fd5b600061273361272e846126ef565b6126d4565b905080838252602082019050602084028301858111156127565761275561271b565b5b835b8181101561277f578061276b88826123b8565b845260208401935050602081019050612758565b5050509392505050565b600082601f83011261279e5761279d61266f565b5b81356127ae848260208601612720565b91505092915050565b600080fd5b600067ffffffffffffffff8211156127d7576127d6612674565b5b6127e082612440565b9050602081019050919050565b82818337600083830152505050565b600061280f61280a846127bc565b6126d4565b90508281526020810184848401111561282b5761282a6127b7565b5b6128368482856127ed565b509392505050565b600082601f8301126128535761285261266f565b5b81356128638482602086016127fc565b91505092915050565b600080600080600060a086880312156128885761288761238d565b5b6000612896888289016124f5565b95505060206128a7888289016124f5565b945050604086013567ffffffffffffffff8111156128c8576128c7612392565b5b6128d488828901612789565b935050606086013567ffffffffffffffff8111156128f5576128f4612392565b5b61290188828901612789565b925050608086013567ffffffffffffffff81111561292257612921612392565b5b61292e8882890161283e565b9150509295509295909350565b600067ffffffffffffffff82111561295657612955612674565b5b602082029050602081019050919050565b600061297a6129758461293b565b6126d4565b9050808382526020820190506020840283018581111561299d5761299c61271b565b5b835b818110156129c657806129b288826124f5565b84526020840193505060208101905061299f565b5050509392505050565b600082601f8301126129e5576129e461266f565b5b81356129f5848260208601612967565b91505092915050565b60008060408385031215612a1557612a1461238d565b5b600083013567ffffffffffffffff811115612a3357612a32612392565b5b612a3f858286016129d0565b925050602083013567ffffffffffffffff811115612a6057612a5f612392565b5b612a6c85828601612789565b9150509250929050565b600081519050919050565b600082825260208201905092915050565b6000819050602082019050919050565b612aab81612397565b82525050565b6000612abd8383612aa2565b60208301905092915050565b6000602082019050919050565b6000612ae182612a76565b612aeb8185612a81565b9350612af683612a92565b8060005b83811015612b27578151612b0e8882612ab1565b9750612b1983612ac9565b925050600181019050612afa565b5085935050505092915050565b60006020820190508181036000830152612b4e8184612ad6565b905092915050565b612b5f816124cc565b82525050565b6000602082019050612b7a6000830184612b56565b92915050565b612b89816125f9565b8114612b9457600080fd5b50565b600081359050612ba681612b80565b92915050565b60008060408385031215612bc357612bc261238d565b5b6000612bd1858286016124f5565b9250506020612be285828601612b97565b9150509250929050565b600067ffffffffffffffff821115612c0757612c06612674565b5b612c1082612440565b9050602081019050919050565b6000612c30612c2b84612bec565b6126d4565b905082815260208101848484011115612c4c57612c4b6127b7565b5b612c578482856127ed565b509392505050565b600082601f830112612c7457612c7361266f565b5b8135612c84848260208601612c1d565b91505092915050565b600080600080600060a08688031215612ca957612ca861238d565b5b6000612cb7888289016123b8565b9550506020612cc8888289016123b8565b945050604086013567ffffffffffffffff811115612ce957612ce8612392565b5b612cf588828901612c5f565b935050606086013567ffffffffffffffff811115612d1657612d15612392565b5b612d2288828901612c5f565b925050608086013567ffffffffffffffff811115612d4357612d42612392565b5b612d4f88828901612c5f565b9150509295509295909350565b60008060408385031215612d7357612d7261238d565b5b6000612d81858286016124f5565b9250506020612d92858286016124f5565b9150509250929050565b600060208284031215612db257612db161238d565b5b600082013567ffffffffffffffff811115612dd057612dcf612392565b5b612ddc84828501612c5f565b91505092915050565b600080600080600060a08688031215612e0157612e0061238d565b5b6000612e0f888289016124f5565b9550506020612e20888289016124f5565b9450506040612e31888289016123b8565b9350506060612e42888289016123b8565b925050608086013567ffffffffffffffff811115612e6357612e62612392565b5b612e6f8882890161283e565b9150509295509295909350565b7f4e487b7100000000000000000000000000000000000000000000000000000000600052602260045260246000fd5b60006002820490506001821680612ec357607f821691505b602082108103612ed657612ed5612e7c565b5b50919050565b7f4e487b7100000000000000000000000000000000000000000000000000000000600052601160045260246000fd5b6000612f1682612397565b9150612f2183612397565b9250828202612f2f81612397565b91508282048414831517612f4657612f45612edc565b5b5092915050565b7f45746865722073656e74206973206e6f7420636f72726563743a000000000000815250565b600081905092915050565b6000612f89826123fa565b612f938185612f73565b9350612fa3818560208601612416565b80840191505092915050565b6000612fba82612f4d565b601a82019150612fca8284612f7e565b915081905092915050565b6000612fe082612397565b9150612feb83612397565b925082820390508181111561300357613002612edc565b5b92915050565b7f43616e2774206275792074686174206d616e7900000000000000000000000000600082015250565b600061303f601383612405565b915061304a82613009565b602082019050919050565b6000602082019050818103600083015261306e81613032565b9050919050565b600061308082612397565b915061308b83612397565b92508282019050808211156130a3576130a2612edc565b5b92915050565b60006040820190506130be6000830185612b56565b6130cb6020830184612b56565b9392505050565b60006040820190506130e7600083018561254a565b6130f4602083018461254a565b9392505050565b7f4e487b7100000000000000000000000000000000000000000000000000000000600052603260045260246000fd5b7f7b00000000000000000000000000000000000000000000000000000000000000815250565b7f7c00000000000000000000000000000000000000000000000000000000000000815250565b60008190508160005260206000209050919050565b6000815461319881612eab565b6131a28186612f73565b945060018216600081146131bd57600181146131d257613205565b60ff1983168652811515820286019350613205565b6131db85613176565b60005b838110156131fd578154818901526001820191506020810190506131de565b838801955050505b50505092915050565b7f7d00000000000000000000000000000000000000000000000000000000000000815250565b600061323f8261312a565b60018201915061324f828a612f7e565b915061325a82613150565b60018201915061326a8289612f7e565b915061327582613150565b6001820191506132858288612f7e565b915061329082613150565b6001820191506132a08287612f7e565b91506132ab82613150565b6001820191506132bb828661318b565b91506132c682613150565b6001820191506132d6828561318b565b91506132e182613150565b6001820191506132f1828461318b565b91506132fc8261320e565b60018201915081905098975050505050505050565b7f2c20000000000000000000000000000000000000000000000000000000000000600082015250565b6000613347600283612f73565b915061335282613311565b600282019050919050565b60006133698285612f7e565b91506133748261333a565b91506133808284612f7e565b91508190509392505050565b7f5b00000000000000000000000000000000000000000000000000000000000000600082015250565b60006133c2600183612f73565b91506133cd8261338c565b600182019050919050565b7f5d00000000000000000000000000000000000000000000000000000000000000600082015250565b600061340e600183612f73565b9150613419826133d8565b600182019050919050565b600061342f826133b5565b915061343b8284612f7e565b915061344682613401565b915081905092915050565b7f4d696e74207175616e74697479206d757374206265203e203000000000000000600082015250565b6000613487601983612405565b915061349282613451565b602082019050919050565b600060208201905081810360008301526134b68161347a565b9050919050565b7f45786365656473206d6178696d756d20746f6b656e20636f756e7420616c6c6f60008201527f7765640000000000000000000000000000000000000000000000000000000000602082015250565b6000613519602383612405565b9150613524826134bd565b604082019050919050565b600060208201905081810360008301526135488161350c565b9050919050565b7f5072696365206d757374206265203e3d20300000000000000000000000000000600082015250565b6000613585601283612405565b91506135908261354f565b602082019050919050565b600060208201905081810360008301526135b481613578565b9050919050565b60006135c78284612f7e565b915081905092915050565b7f546f6b656e204d55535420686176652061206e616d6500000000000000000000600082015250565b6000613608601683612405565b9150613613826135d2565b602082019050919050565b60006020820190508181036000830152613637816135fb565b9050919050565b7f546f6b656e204d55535420686176652061206465736372697074696f6e000000600082015250565b6000613674601d83612405565b915061367f8261363e565b602082019050919050565b600060208201905081810360008301526136a381613667565b9050919050565b60006020601f8301049050919050565b600082821b905092915050565b6000600883026136f77fffffffffffffffffffffffffffffffffffffffffffffffffffffffffffffffff826136ba565b61370186836136ba565b95508019841693508086168417925050509392505050565b6000819050919050565b600061373e61373961373484612397565b613719565b612397565b9050919050565b6000819050919050565b61375883613723565b61376c61376482613745565b8484546136c7565b825550505050565b600090565b613781613774565b61378c81848461374f565b505050565b5b818110156137b0576137a5600082613779565b600181019050613792565b5050565b601f8211156137f5576137c681613176565b6137cf846136aa565b810160208510156137de578190505b6137f26137ea856136aa565b830182613791565b50505b505050565b600082821c905092915050565b6000613818600019846008026137fa565b1980831691505092915050565b60006138318383613807565b9150826002028217905092915050565b61384a826123fa565b67ffffffffffffffff81111561386357613862612674565b5b61386d8254612eab565b6138788282856137b4565b600060209050601f8311600181146138ab5760008415613899578287015190505b6138a38582613825565b86555061390b565b601f1984166138b986613176565b60005b828110156138e1578489015182556001820191506020850194506020810190506138bc565b868310156138fe57848901516138fa601f891682613807565b8355505b6001600288020188555050505b505050505050565b600061391e82612397565b91507fffffffffffffffffffffffffffffffffffffffffffffffffffffffffffffffff82036139505761394f612edc565b5b600182019050919050565b7f4f6e6c7920636f6e7472616374206f776e6572206d6179207365742f6368616e60008201527f6765206d65746164617461206c6f636174696f6e000000000000000000000000602082015250565b60006139b7603483612405565b91506139c28261395b565b604082019050919050565b600060208201905081810360008301526139e6816139aa565b9050919050565b7f4e487b7100000000000000000000000000000000000000000000000000000000600052601260045260246000fd5b6000608082019050613a316000830187612b56565b613a3e602083018661254a565b613a4b604083018561254a565b613a58606083018461254a565b95945050505050565b60006040820190508181036000830152613a7b8185612ad6565b90508181036020830152613a8f8184612ad6565b90509392505050565b600081519050919050565b600082825260208201905092915050565b6000613abf82613a98565b613ac98185613aa3565b9350613ad9818560208601612416565b613ae281612440565b840191505092915050565b600060a082019050613b026000830188612b56565b613b0f6020830187612b56565b613b1c604083018661254a565b613b29606083018561254a565b8181036080830152613b3b8184613ab4565b90509695505050505050565b600081519050613b56816125a0565b92915050565b600060208284031215613b7257613b7161238d565b5b6000613b8084828501613b47565b91505092915050565b600060a082019050613b9e6000830188612b56565b613bab6020830187612b56565b8181036040830152613bbd8186612ad6565b90508181036060830152613bd18185612ad6565b90508181036080830152613be58184613ab4565b9050969550505050505056fea264697066735822122009e555ed625215ff2915aad339c0fc4910ca6c8dc26882aca51034f7b1880bd864736f6c63430008180033",
  "linkReferences": {},
  "deployedLinkReferences": {}
}