{
  "_format": "hh-sol-artifact-1",
  "contractName": "MyERC1155Token",
  "sourceName": "contracts/contract.sol",
  "abi": [
    {
      "inputs": [
        {
          "internalType": "string",
          "name": "_uri",
          "type": "string"
        }
      ],
      "stateMutability": "nonpayable",
      "type": "constructor"
    },
    {
      "inputs": [],
      "name": "AccessControlBadConfirmation",
      "type": "error"
    },
    {
      "inputs": [
        {
          "internalType": "address",
          "name": "account",
          "type": "address"
        },
        {
          "internalType": "bytes32",
          "name": "neededRole",
          "type": "bytes32"
        }
      ],
      "name": "AccessControlUnauthorizedAccount",
      "type": "error"
    },
    {
      "inputs": [
        {
          "internalType": "address",
          "name": "sender",
          "type": "address"
        },
        {
          "internalType": "uint256",
          "name": "balance",
          "type": "uint256"
        },
        {
          "internalType": "uint256",
          "name": "needed",
          "type": "uint256"
        },
        {
          "internalType": "uint256",
          "name": "tokenId",
          "type": "uint256"
        }
      ],
      "name": "ERC1155InsufficientBalance",
      "type": "error"
    },
    {
      "inputs": [
        {
          "internalType": "address",
          "name": "approver",
          "type": "address"
        }
      ],
      "name": "ERC1155InvalidApprover",
      "type": "error"
    },
    {
      "inputs": [
        {
          "internalType": "uint256",
          "name": "idsLength",
          "type": "uint256"
        },
        {
          "internalType": "uint256",
          "name": "valuesLength",
          "type": "uint256"
        }
      ],
      "name": "ERC1155InvalidArrayLength",
      "type": "error"
    },
    {
      "inputs": [
        {
          "internalType": "address",
          "name": "operator",
          "type": "address"
        }
      ],
      "name": "ERC1155InvalidOperator",
      "type": "error"
    },
    {
      "inputs": [
        {
          "internalType": "address",
          "name": "receiver",
          "type": "address"
        }
      ],
      "name": "ERC1155InvalidReceiver",
      "type": "error"
    },
    {
      "inputs": [
        {
          "internalType": "address",
          "name": "sender",
          "type": "address"
        }
      ],
      "name": "ERC1155InvalidSender",
      "type": "error"
    },
    {
      "inputs": [
        {
          "internalType": "address",
          "name": "operator",
          "type": "address"
        },
        {
          "internalType": "address",
          "name": "owner",
          "type": "address"
        }
      ],
      "name": "ERC1155MissingApprovalForAll",
      "type": "error"
    },
    {
      "inputs": [
        {
          "internalType": "address",
          "name": "owner",
          "type": "address"
        }
      ],
      "name": "OwnableInvalidOwner",
      "type": "error"
    },
    {
      "inputs": [
        {
          "internalType": "address",
          "name": "account",
          "type": "address"
        }
      ],
      "name": "OwnableUnauthorizedAccount",
      "type": "error"
    },
    {
      "anonymous": false,
      "inputs": [
        {
          "indexed": true,
          "internalType": "address",
          "name": "account",
          "type": "address"
        },
        {
          "indexed": true,
          "internalType": "address",
          "name": "operator",
          "type": "address"
        },
        {
          "indexed": false,
          "internalType": "bool",
          "name": "approved",
          "type": "bool"
        }
      ],
      "name": "ApprovalForAll",
      "type": "event"
    },
    {
      "anonymous": false,
      "inputs": [
        {
          "indexed": true,
          "internalType": "address",
          "name": "previousOwner",
          "type": "address"
        },
        {
          "indexed": true,
          "internalType": "address",
          "name": "newOwner",
          "type": "address"
        }
      ],
      "name": "OwnershipTransferred",
      "type": "event"
    },
    {
      "anonymous": false,
      "inputs": [
        {
          "indexed": true,
          "internalType": "bytes32",
          "name": "role",
          "type": "bytes32"
        },
        {
          "indexed": true,
          "internalType": "bytes32",
          "name": "previousAdminRole",
          "type": "bytes32"
        },
        {
          "indexed": true,
          "internalType": "bytes32",
          "name": "newAdminRole",
          "type": "bytes32"
        }
      ],
      "name": "RoleAdminChanged",
      "type": "event"
    },
    {
      "anonymous": false,
      "inputs": [
        {
          "indexed": true,
          "internalType": "bytes32",
          "name": "role",
          "type": "bytes32"
        },
        {
          "indexed": true,
          "internalType": "address",
          "name": "account",
          "type": "address"
        },
        {
          "indexed": true,
          "internalType": "address",
          "name": "sender",
          "type": "address"
        }
      ],
      "name": "RoleGranted",
      "type": "event"
    },
    {
      "anonymous": false,
      "inputs": [
        {
          "indexed": true,
          "internalType": "bytes32",
          "name": "role",
          "type": "bytes32"
        },
        {
          "indexed": true,
          "internalType": "address",
          "name": "account",
          "type": "address"
        },
        {
          "indexed": true,
          "internalType": "address",
          "name": "sender",
          "type": "address"
        }
      ],
      "name": "RoleRevoked",
      "type": "event"
    },
    {
      "anonymous": false,
      "inputs": [
        {
          "indexed": true,
          "internalType": "address",
          "name": "operator",
          "type": "address"
        },
        {
          "indexed": true,
          "internalType": "address",
          "name": "from",
          "type": "address"
        },
        {
          "indexed": true,
          "internalType": "address",
          "name": "to",
          "type": "address"
        },
        {
          "indexed": false,
          "internalType": "uint256[]",
          "name": "ids",
          "type": "uint256[]"
        },
        {
          "indexed": false,
          "internalType": "uint256[]",
          "name": "values",
          "type": "uint256[]"
        }
      ],
      "name": "TransferBatch",
      "type": "event"
    },
    {
      "anonymous": false,
      "inputs": [
        {
          "indexed": true,
          "internalType": "address",
          "name": "operator",
          "type": "address"
        },
        {
          "indexed": true,
          "internalType": "address",
          "name": "from",
          "type": "address"
        },
        {
          "indexed": true,
          "internalType": "address",
          "name": "to",
          "type": "address"
        },
        {
          "indexed": false,
          "internalType": "uint256",
          "name": "id",
          "type": "uint256"
        },
        {
          "indexed": false,
          "internalType": "uint256",
          "name": "value",
          "type": "uint256"
        }
      ],
      "name": "TransferSingle",
      "type": "event"
    },
    {
      "anonymous": false,
      "inputs": [
        {
          "indexed": false,
          "internalType": "string",
          "name": "value",
          "type": "string"
        },
        {
          "indexed": true,
          "internalType": "uint256",
          "name": "id",
          "type": "uint256"
        }
      ],
      "name": "URI",
      "type": "event"
    },
    {
      "inputs": [],
      "name": "DEFAULT_ADMIN_ROLE",
      "outputs": [
        {
          "internalType": "bytes32",
          "name": "",
          "type": "bytes32"
        }
      ],
      "stateMutability": "view",
      "type": "function"
    },
    {
      "inputs": [],
      "name": "MAX_SUPPLY",
      "outputs": [
        {
          "internalType": "uint256",
          "name": "",
          "type": "uint256"
        }
      ],
      "stateMutability": "view",
      "type": "function"
    },
    {
      "inputs": [],
      "name": "MINTER_ROLE",
      "outputs": [
        {
          "internalType": "bytes32",
          "name": "",
          "type": "bytes32"
        }
      ],
      "stateMutability": "view",
      "type": "function"
    },
    {
      "inputs": [],
      "name": "URI_MANAGER_ROLE",
      "outputs": [
        {
          "internalType": "bytes32",
          "name": "",
          "type": "bytes32"
        }
      ],
      "stateMutability": "view",
      "type": "function"
    },
    {
      "inputs": [
        {
          "internalType": "address",
          "name": "account",
          "type": "address"
        },
        {
          "internalType": "uint256",
          "name": "id",
          "type": "uint256"
        }
      ],
      "name": "balanceOf",
      "outputs": [
        {
          "internalType": "uint256",
          "name": "",
          "type": "uint256"
        }
      ],
      "stateMutability": "view",
      "type": "function"
    },
    {
      "inputs": [
        {
          "internalType": "address[]",
          "name": "accounts",
          "type": "address[]"
        },
        {
          "internalType": "uint256[]",
          "name": "ids",
          "type": "uint256[]"
        }
      ],
      "name": "balanceOfBatch",
      "outputs": [
        {
          "internalType": "uint256[]",
          "name": "",
          "type": "uint256[]"
        }
      ],
      "stateMutability": "view",
      "type": "function"
    },
    {
      "inputs": [
        {
          "internalType": "uint256",
          "name": "_tokenId",
          "type": "uint256"
        },
        {
          "internalType": "uint256",
          "name": "_amount",
          "type": "uint256"
        }
      ],
      "name": "buyToken",
      "outputs": [],
      "stateMutability": "payable",
      "type": "function"
    },
    {
      "inputs": [],
      "name": "contractURI",
      "outputs": [
        {
          "internalType": "string",
          "name": "",
          "type": "string"
        }
      ],
      "stateMutability": "view",
      "type": "function"
    },
    {
      "inputs": [
        {
          "internalType": "bytes32",
          "name": "role",
          "type": "bytes32"
        }
      ],
      "name": "getRoleAdmin",
      "outputs": [
        {
          "internalType": "bytes32",
          "name": "",
          "type": "bytes32"
        }
      ],
      "stateMutability": "view",
      "type": "function"
    },
    {
      "inputs": [
        {
          "internalType": "bytes32",
          "name": "role",
          "type": "bytes32"
        },
        {
          "internalType": "address",
          "name": "account",
          "type": "address"
        }
      ],
      "name": "grantRole",
      "outputs": [],
      "stateMutability": "nonpayable",
      "type": "function"
    },
    {
      "inputs": [
        {
          "internalType": "bytes32",
          "name": "role",
          "type": "bytes32"
        },
        {
          "internalType": "address",
          "name": "account",
          "type": "address"
        }
      ],
      "name": "hasRole",
      "outputs": [
        {
          "internalType": "bool",
          "name": "",
          "type": "bool"
        }
      ],
      "stateMutability": "view",
      "type": "function"
    },
    {
      "inputs": [
        {
          "internalType": "address",
          "name": "account",
          "type": "address"
        },
        {
          "internalType": "address",
          "name": "operator",
          "type": "address"
        }
      ],
      "name": "isApprovedForAll",
      "outputs": [
        {
          "internalType": "bool",
          "name": "",
          "type": "bool"
        }
      ],
      "stateMutability": "view",
      "type": "function"
    },
    {
      "inputs": [
        {
          "internalType": "uint256",
          "name": "_tokenId",
          "type": "uint256"
        },
        {
          "internalType": "uint256",
          "name": "_amount",
          "type": "uint256"
        },
        {
          "internalType": "uint256",
          "name": "_price",
          "type": "uint256"
        }
      ],
      "name": "mint",
      "outputs": [],
      "stateMutability": "nonpayable",
      "type": "function"
    },
    {
      "inputs": [],
      "name": "owner",
      "outputs": [
        {
          "internalType": "address",
          "name": "",
          "type": "address"
        }
      ],
      "stateMutability": "view",
      "type": "function"
    },
    {
      "inputs": [],
      "name": "renounceOwnership",
      "outputs": [],
      "stateMutability": "nonpayable",
      "type": "function"
    },
    {
      "inputs": [
        {
          "internalType": "bytes32",
          "name": "role",
          "type": "bytes32"
        },
        {
          "internalType": "address",
          "name": "callerConfirmation",
          "type": "address"
        }
      ],
      "name": "renounceRole",
      "outputs": [],
      "stateMutability": "nonpayable",
      "type": "function"
    },
    {
      "inputs": [
        {
          "internalType": "bytes32",
          "name": "role",
          "type": "bytes32"
        },
        {
          "internalType": "address",
          "name": "account",
          "type": "address"
        }
      ],
      "name": "revokeRole",
      "outputs": [],
      "stateMutability": "nonpayable",
      "type": "function"
    },
    {
      "inputs": [
        {
          "internalType": "address",
          "name": "from",
          "type": "address"
        },
        {
          "internalType": "address",
          "name": "to",
          "type": "address"
        },
        {
          "internalType": "uint256[]",
          "name": "ids",
          "type": "uint256[]"
        },
        {
          "internalType": "uint256[]",
          "name": "values",
          "type": "uint256[]"
        },
        {
          "internalType": "bytes",
          "name": "data",
          "type": "bytes"
        }
      ],
      "name": "safeBatchTransferFrom",
      "outputs": [],
      "stateMutability": "nonpayable",
      "type": "function"
    },
    {
      "inputs": [
        {
          "internalType": "address",
          "name": "from",
          "type": "address"
        },
        {
          "internalType": "address",
          "name": "to",
          "type": "address"
        },
        {
          "internalType": "uint256",
          "name": "id",
          "type": "uint256"
        },
        {
          "internalType": "uint256",
          "name": "value",
          "type": "uint256"
        },
        {
          "internalType": "bytes",
          "name": "data",
          "type": "bytes"
        }
      ],
      "name": "safeTransferFrom",
      "outputs": [],
      "stateMutability": "nonpayable",
      "type": "function"
    },
    {
      "inputs": [
        {
          "internalType": "address",
          "name": "operator",
          "type": "address"
        },
        {
          "internalType": "bool",
          "name": "approved",
          "type": "bool"
        }
      ],
      "name": "setApprovalForAll",
      "outputs": [],
      "stateMutability": "nonpayable",
      "type": "function"
    },
    {
      "inputs": [
        {
          "internalType": "uint256",
          "name": "tokenId",
          "type": "uint256"
        },
        {
          "internalType": "string",
          "name": "newUri",
          "type": "string"
        }
      ],
      "name": "setURI",
      "outputs": [],
      "stateMutability": "nonpayable",
      "type": "function"
    },
    {
      "inputs": [
        {
          "internalType": "bytes4",
          "name": "interfaceId",
          "type": "bytes4"
        }
      ],
      "name": "supportsInterface",
      "outputs": [
        {
          "internalType": "bool",
          "name": "",
          "type": "bool"
        }
      ],
      "stateMutability": "view",
      "type": "function"
    },
    {
      "inputs": [
        {
          "internalType": "uint256",
          "name": "",
          "type": "uint256"
        }
      ],
      "name": "tokenPrices",
      "outputs": [
        {
          "internalType": "uint256",
          "name": "",
          "type": "uint256"
        }
      ],
      "stateMutability": "view",
      "type": "function"
    },
    {
      "inputs": [
        {
          "internalType": "uint256",
          "name": "",
          "type": "uint256"
        }
      ],
      "name": "tokenSupply",
      "outputs": [
        {
          "internalType": "uint256",
          "name": "",
          "type": "uint256"
        }
      ],
      "stateMutability": "view",
      "type": "function"
    },
    {
      "inputs": [
        {
          "internalType": "uint256",
          "name": "",
          "type": "uint256"
        }
      ],
      "name": "tokensSold",
      "outputs": [
        {
          "internalType": "uint256",
          "name": "",
          "type": "uint256"
        }
      ],
      "stateMutability": "view",
      "type": "function"
    },
    {
      "inputs": [
        {
          "internalType": "address",
          "name": "newOwner",
          "type": "address"
        }
      ],
      "name": "transferOwnership",
      "outputs": [],
      "stateMutability": "nonpayable",
      "type": "function"
    },
    {
      "inputs": [
        {
          "internalType": "uint256",
          "name": "tokenId",
          "type": "uint256"
        }
      ],
      "name": "uri",
      "outputs": [
        {
          "internalType": "string",
          "name": "",
          "type": "string"
        }
      ],
      "stateMutability": "view",
      "type": "function"
    }
  ],
  "bytecode": "0x60806040523480156200001157600080fd5b506040516200439e3803806200439e83398181016040528101906200003791906200053a565b33816200004a816200015560201b60201c565b50600073ffffffffffffffffffffffffffffffffffffffff168173ffffffffffffffffffffffffffffffffffffffff1603620000c05760006040517f1e4fbdf7000000000000000000000000000000000000000000000000000000008152600401620000b79190620005d0565b60405180910390fd5b620000d1816200016a60201b60201c565b50620000e76000801b336200023060201b60201c565b506200011a7f9f2df0fed2c77648de5860a4cc508cd0818c85b8b8a1ab4ceeef8d981c8956a6336200023060201b60201c565b506200014d7fa70a2d8710fed9f014c8c2af50c7c2f6b25748ae4cded822e03b7beed44cf3a8336200023060201b60201c565b50506200091f565b806002908162000166919062000838565b5050565b6000600460009054906101000a900473ffffffffffffffffffffffffffffffffffffffff16905081600460006101000a81548173ffffffffffffffffffffffffffffffffffffffff021916908373ffffffffffffffffffffffffffffffffffffffff1602179055508173ffffffffffffffffffffffffffffffffffffffff168173ffffffffffffffffffffffffffffffffffffffff167f8be0079c531659141344cd1fd0a4f28419497f9722a3daafe3b4186f6b6457e060405160405180910390a35050565b60006200024483836200033460201b60201c565b620003295760016003600085815260200190815260200160002060000160008473ffffffffffffffffffffffffffffffffffffffff1673ffffffffffffffffffffffffffffffffffffffff16815260200190815260200160002060006101000a81548160ff021916908315150217905550620002c56200039f60201b60201c565b73ffffffffffffffffffffffffffffffffffffffff168273ffffffffffffffffffffffffffffffffffffffff16847f2f8788117e7eff1d82e926ec794901d17c78024a50270940304540a733656f0d60405160405180910390a4600190506200032e565b600090505b92915050565b60006003600084815260200190815260200160002060000160008373ffffffffffffffffffffffffffffffffffffffff1673ffffffffffffffffffffffffffffffffffffffff16815260200190815260200160002060009054906101000a900460ff16905092915050565b600033905090565b6000604051905090565b600080fd5b600080fd5b600080fd5b600080fd5b6000601f19601f8301169050919050565b7f4e487b7100000000000000000000000000000000000000000000000000000000600052604160045260246000fd5b6200041082620003c5565b810181811067ffffffffffffffff82111715620004325762000431620003d6565b5b80604052505050565b600062000447620003a7565b905062000455828262000405565b919050565b600067ffffffffffffffff821115620004785762000477620003d6565b5b6200048382620003c5565b9050602081019050919050565b60005b83811015620004b057808201518184015260208101905062000493565b60008484015250505050565b6000620004d3620004cd846200045a565b6200043b565b905082815260208101848484011115620004f257620004f1620003c0565b5b620004ff84828562000490565b509392505050565b600082601f8301126200051f576200051e620003bb565b5b815162000531848260208601620004bc565b91505092915050565b600060208284031215620005535762000552620003b1565b5b600082015167ffffffffffffffff811115620005745762000573620003b6565b5b620005828482850162000507565b91505092915050565b600073ffffffffffffffffffffffffffffffffffffffff82169050919050565b6000620005b8826200058b565b9050919050565b620005ca81620005ab565b82525050565b6000602082019050620005e76000830184620005bf565b92915050565b600081519050919050565b7f4e487b7100000000000000000000000000000000000000000000000000000000600052602260045260246000fd5b600060028204905060018216806200064057607f821691505b602082108103620006565762000655620005f8565b5b50919050565b60008190508160005260206000209050919050565b60006020601f8301049050919050565b600082821b905092915050565b600060088302620006c07fffffffffffffffffffffffffffffffffffffffffffffffffffffffffffffffff8262000681565b620006cc868362000681565b95508019841693508086168417925050509392505050565b6000819050919050565b6000819050919050565b600062000719620007136200070d84620006e4565b620006ee565b620006e4565b9050919050565b6000819050919050565b6200073583620006f8565b6200074d620007448262000720565b8484546200068e565b825550505050565b600090565b6200076462000755565b620007718184846200072a565b505050565b5b8181101562000799576200078d6000826200075a565b60018101905062000777565b5050565b601f821115620007e857620007b2816200065c565b620007bd8462000671565b81016020851015620007cd578190505b620007e5620007dc8562000671565b83018262000776565b50505b505050565b600082821c905092915050565b60006200080d60001984600802620007ed565b1980831691505092915050565b6000620008288383620007fa565b9150826002028217905092915050565b6200084382620005ed565b67ffffffffffffffff8111156200085f576200085e620003d6565b5b6200086b825462000627565b620008788282856200079d565b600060209050601f831160018114620008b057600084156200089b578287015190505b620008a785826200081a565b86555062000917565b601f198416620008c0866200065c565b60005b82811015620008ea57848901518255600182019150602085019450602081019050620008c3565b868310156200090a578489015162000906601f891682620007fa565b8355505b6001600288020188555050505b505050505050565b613a6f806200092f6000396000f3fe60806040526004361061019b5760003560e01c8063715018a6116100ec578063d53913931161008a578063e8a3d48511610064578063e8a3d485146105ee578063e985e9c514610619578063f242432a14610656578063f2fde38b1461067f5761019b565b8063d53913931461055d578063d547741f14610588578063e5afe3e6146105b15761019b565b80638da5cb5b116100c65780638da5cb5b146104a157806391d14854146104cc578063a217fddf14610509578063a22cb465146105345761019b565b8063715018a6146104245780637402ba961461043b578063862440e2146104785761019b565b80632693ebf21161015957806332cb6b0c1161013357806332cb6b0c1461036857806336568abe146103935780634e1273f4146103bc578063682d07d9146103f95761019b565b80632693ebf2146102d95780632eb2c2d6146103165780632f2ff15d1461033f5761019b565b8062fdd58e146101a057806301ffc9a7146101dd57806302acc94b1461021a578063057466ea146102435780630e89341c1461025f578063248a9ca31461029c575b600080fd5b3480156101ac57600080fd5b506101c760048036038101906101c2919061257d565b6106a8565b6040516101d491906125cc565b60405180910390f35b3480156101e957600080fd5b5061020460048036038101906101ff919061263f565b610702565b6040516102119190612687565b60405180910390f35b34801561022657600080fd5b50610241600480360381019061023c91906126a2565b610714565b005b61025d600480360381019061025891906126f5565b6108c9565b005b34801561026b57600080fd5b5061028660048036038101906102819190612735565b610a42565b60405161029391906127f2565b60405180910390f35b3480156102a857600080fd5b506102c360048036038101906102be919061284a565b610a7d565b6040516102d09190612886565b60405180910390f35b3480156102e557600080fd5b5061030060048036038101906102fb9190612735565b610a9d565b60405161030d91906125cc565b60405180910390f35b34801561032257600080fd5b5061033d60048036038101906103389190612a9e565b610ab5565b005b34801561034b57600080fd5b5061036660048036038101906103619190612b6d565b610b5d565b005b34801561037457600080fd5b5061037d610b7f565b60405161038a91906125cc565b60405180910390f35b34801561039f57600080fd5b506103ba60048036038101906103b59190612b6d565b610b84565b005b3480156103c857600080fd5b506103e360048036038101906103de9190612c70565b610bff565b6040516103f09190612da6565b60405180910390f35b34801561040557600080fd5b5061040e610d08565b60405161041b9190612886565b60405180910390f35b34801561043057600080fd5b50610439610d2c565b005b34801561044757600080fd5b50610462600480360381019061045d9190612735565b610d40565b60405161046f91906125cc565b60405180910390f35b34801561048457600080fd5b5061049f600480360381019061049a9190612e69565b610d58565b005b3480156104ad57600080fd5b506104b6610d90565b6040516104c39190612ed4565b60405180910390f35b3480156104d857600080fd5b506104f360048036038101906104ee9190612b6d565b610dba565b6040516105009190612687565b60405180910390f35b34801561051557600080fd5b5061051e610e25565b60405161052b9190612886565b60405180910390f35b34801561054057600080fd5b5061055b60048036038101906105569190612f1b565b610e2c565b005b34801561056957600080fd5b50610572610e42565b60405161057f9190612886565b60405180910390f35b34801561059457600080fd5b506105af60048036038101906105aa9190612b6d565b610e66565b005b3480156105bd57600080fd5b506105d860048036038101906105d39190612735565b610e88565b6040516105e591906125cc565b60405180910390f35b3480156105fa57600080fd5b50610603610ea0565b60405161061091906127f2565b60405180910390f35b34801561062557600080fd5b50610640600480360381019061063b9190612f5b565b610ec0565b60405161064d9190612687565b60405180910390f35b34801561066257600080fd5b5061067d60048036038101906106789190612f9b565b610f54565b005b34801561068b57600080fd5b506106a660048036038101906106a19190613032565b610ffc565b005b600080600083815260200190815260200160002060008473ffffffffffffffffffffffffffffffffffffffff1673ffffffffffffffffffffffffffffffffffffffff16815260200190815260200160002054905092915050565b600061070d82611082565b9050919050565b7f9f2df0fed2c77648de5860a4cc508cd0818c85b8b8a1ab4ceeef8d981c8956a661073e816110fc565b6000600660008681526020019081526020016000205414610794576040517f08c379a000000000000000000000000000000000000000000000000000000000815260040161078b906130ab565b60405180910390fd5b600083116107d7576040517f08c379a00000000000000000000000000000000000000000000000000000000081526004016107ce90613117565b60405180910390fd5b606483111561081b576040517f08c379a000000000000000000000000000000000000000000000000000000000815260040161081290613183565b60405180910390fd5b600082101561085f576040517f08c379a0000000000000000000000000000000000000000000000000000000008152600401610856906131ef565b60405180910390fd5b61087a33858560405180602001604052806000815250611110565b8160056000868152602001908152602001600020819055508260066000868152602001908152602001600020819055506000600760008681526020019081526020016000208190555050505050565b8060056000848152602001908152602001600020546108e8919061323e565b34101561092a576040517f08c379a0000000000000000000000000000000000000000000000000000000008152600401610921906132cc565b60405180910390fd5b6007600083815260200190815260200160002054600660008481526020019081526020016000205461095c91906132ec565b81111561099e576040517f08c379a00000000000000000000000000000000000000000000000000000000081526004016109959061336c565b60405180910390fd5b6109ba30338484604051806020016040528060008152506111a9565b8060076000848152602001908152602001600020546109d9919061338c565b60076000848152602001908152602001600020819055506109f8610d90565b73ffffffffffffffffffffffffffffffffffffffff166108fc349081150290604051600060405180830381858888f19350505050158015610a3d573d6000803e3d6000fd5b505050565b6060610a4d826112b4565b610a5683611348565b604051602001610a67929190613448565b6040516020818303038152906040529050919050565b600060036000838152602001908152602001600020600101549050919050565b60066020528060005260406000206000915090505481565b6000610abf611416565b90508073ffffffffffffffffffffffffffffffffffffffff168673ffffffffffffffffffffffffffffffffffffffff1614158015610b045750610b028682610ec0565b155b15610b485780866040517fe237d922000000000000000000000000000000000000000000000000000000008152600401610b3f929190613477565b60405180910390fd5b610b55868686868661141e565b505050505050565b610b6682610a7d565b610b6f816110fc565b610b798383611516565b50505050565b606481565b610b8c611416565b73ffffffffffffffffffffffffffffffffffffffff168173ffffffffffffffffffffffffffffffffffffffff1614610bf0576040517f6697b23200000000000000000000000000000000000000000000000000000000815260040160405180910390fd5b610bfa8282611608565b505050565b60608151835114610c4b57815183516040517f5b059991000000000000000000000000000000000000000000000000000000008152600401610c429291906134a0565b60405180910390fd5b6000835167ffffffffffffffff811115610c6857610c676128a6565b5b604051908082528060200260200182016040528015610c965781602001602082028036833780820191505090505b50905060005b8451811015610cfd57610cd3610cbb82876116fb90919063ffffffff16565b610cce838761170f90919063ffffffff16565b6106a8565b828281518110610ce657610ce56134c9565b5b602002602001018181525050806001019050610c9c565b508091505092915050565b7fa70a2d8710fed9f014c8c2af50c7c2f6b25748ae4cded822e03b7beed44cf3a881565b610d34611723565b610d3e60006117aa565b565b60076020528060005260406000206000915090505481565b7fa70a2d8710fed9f014c8c2af50c7c2f6b25748ae4cded822e03b7beed44cf3a8610d82816110fc565b610d8b82611870565b505050565b6000600460009054906101000a900473ffffffffffffffffffffffffffffffffffffffff16905090565b60006003600084815260200190815260200160002060000160008373ffffffffffffffffffffffffffffffffffffffff1673ffffffffffffffffffffffffffffffffffffffff16815260200190815260200160002060009054906101000a900460ff16905092915050565b6000801b81565b610e3e610e37611416565b8383611883565b5050565b7f9f2df0fed2c77648de5860a4cc508cd0818c85b8b8a1ab4ceeef8d981c8956a681565b610e6f82610a7d565b610e78816110fc565b610e828383611608565b50505050565b60056020528060005260406000206000915090505481565b6060604051806060016040528060368152602001613a0460369139905090565b6000600160008473ffffffffffffffffffffffffffffffffffffffff1673ffffffffffffffffffffffffffffffffffffffff16815260200190815260200160002060008373ffffffffffffffffffffffffffffffffffffffff1673ffffffffffffffffffffffffffffffffffffffff16815260200190815260200160002060009054906101000a900460ff16905092915050565b6000610f5e611416565b90508073ffffffffffffffffffffffffffffffffffffffff168673ffffffffffffffffffffffffffffffffffffffff1614158015610fa35750610fa18682610ec0565b155b15610fe75780866040517fe237d922000000000000000000000000000000000000000000000000000000008152600401610fde929190613477565b60405180910390fd5b610ff486868686866111a9565b505050505050565b611004611723565b600073ffffffffffffffffffffffffffffffffffffffff168173ffffffffffffffffffffffffffffffffffffffff16036110765760006040517f1e4fbdf700000000000000000000000000000000000000000000000000000000815260040161106d9190612ed4565b60405180910390fd5b61107f816117aa565b50565b60007f7965db0b000000000000000000000000000000000000000000000000000000007bffffffffffffffffffffffffffffffffffffffffffffffffffffffff1916827bffffffffffffffffffffffffffffffffffffffffffffffffffffffff191614806110f557506110f4826119f3565b5b9050919050565b61110d81611108611416565b611ad5565b50565b600073ffffffffffffffffffffffffffffffffffffffff168473ffffffffffffffffffffffffffffffffffffffff16036111825760006040517f57f447ce0000000000000000000000000000000000000000000000000000000081526004016111799190612ed4565b60405180910390fd5b60008061118f8585611b26565b915091506111a1600087848487611b56565b505050505050565b600073ffffffffffffffffffffffffffffffffffffffff168473ffffffffffffffffffffffffffffffffffffffff160361121b5760006040517f57f447ce0000000000000000000000000000000000000000000000000000000081526004016112129190612ed4565b60405180910390fd5b600073ffffffffffffffffffffffffffffffffffffffff168573ffffffffffffffffffffffffffffffffffffffff160361128d5760006040517f01a835140000000000000000000000000000000000000000000000000000000081526004016112849190612ed4565b60405180910390fd5b60008061129a8585611b26565b915091506112ab8787848487611b56565b50505050505050565b6060600280546112c390613527565b80601f01602080910402602001604051908101604052809291908181526020018280546112ef90613527565b801561133c5780601f106113115761010080835404028352916020019161133c565b820191906000526020600020905b81548152906001019060200180831161131f57829003601f168201915b50505050509050919050565b60606000600161135784611c08565b01905060008167ffffffffffffffff811115611376576113756128a6565b5b6040519080825280601f01601f1916602001820160405280156113a85781602001600182028036833780820191505090505b509050600082602001820190505b60011561140b578080600190039150507f3031323334353637383961626364656600000000000000000000000000000000600a86061a8153600a85816113ff576113fe613558565b5b049450600085036113b6575b819350505050919050565b600033905090565b600073ffffffffffffffffffffffffffffffffffffffff168473ffffffffffffffffffffffffffffffffffffffff16036114905760006040517f57f447ce0000000000000000000000000000000000000000000000000000000081526004016114879190612ed4565b60405180910390fd5b600073ffffffffffffffffffffffffffffffffffffffff168573ffffffffffffffffffffffffffffffffffffffff16036115025760006040517f01a835140000000000000000000000000000000000000000000000000000000081526004016114f99190612ed4565b60405180910390fd5b61150f8585858585611b56565b5050505050565b60006115228383610dba565b6115fd5760016003600085815260200190815260200160002060000160008473ffffffffffffffffffffffffffffffffffffffff1673ffffffffffffffffffffffffffffffffffffffff16815260200190815260200160002060006101000a81548160ff02191690831515021790555061159a611416565b73ffffffffffffffffffffffffffffffffffffffff168273ffffffffffffffffffffffffffffffffffffffff16847f2f8788117e7eff1d82e926ec794901d17c78024a50270940304540a733656f0d60405160405180910390a460019050611602565b600090505b92915050565b60006116148383610dba565b156116f05760006003600085815260200190815260200160002060000160008473ffffffffffffffffffffffffffffffffffffffff1673ffffffffffffffffffffffffffffffffffffffff16815260200190815260200160002060006101000a81548160ff02191690831515021790555061168d611416565b73ffffffffffffffffffffffffffffffffffffffff168273ffffffffffffffffffffffffffffffffffffffff16847ff6391f5c32d9c69d2a47ea670b442974b53935d1edc7fd64eb21e047a839171b60405160405180910390a4600190506116f5565b600090505b92915050565b600060208202602084010151905092915050565b600060208202602084010151905092915050565b61172b611416565b73ffffffffffffffffffffffffffffffffffffffff16611749610d90565b73ffffffffffffffffffffffffffffffffffffffff16146117a85761176c611416565b6040517f118cdaa700000000000000000000000000000000000000000000000000000000815260040161179f9190612ed4565b60405180910390fd5b565b6000600460009054906101000a900473ffffffffffffffffffffffffffffffffffffffff16905081600460006101000a81548173ffffffffffffffffffffffffffffffffffffffff021916908373ffffffffffffffffffffffffffffffffffffffff1602179055508173ffffffffffffffffffffffffffffffffffffffff168173ffffffffffffffffffffffffffffffffffffffff167f8be0079c531659141344cd1fd0a4f28419497f9722a3daafe3b4186f6b6457e060405160405180910390a35050565b806002908161187f9190613733565b5050565b600073ffffffffffffffffffffffffffffffffffffffff168273ffffffffffffffffffffffffffffffffffffffff16036118f55760006040517fced3e1000000000000000000000000000000000000000000000000000000000081526004016118ec9190612ed4565b60405180910390fd5b80600160008573ffffffffffffffffffffffffffffffffffffffff1673ffffffffffffffffffffffffffffffffffffffff16815260200190815260200160002060008473ffffffffffffffffffffffffffffffffffffffff1673ffffffffffffffffffffffffffffffffffffffff16815260200190815260200160002060006101000a81548160ff0219169083151502179055508173ffffffffffffffffffffffffffffffffffffffff168373ffffffffffffffffffffffffffffffffffffffff167f17307eab39ab6107e8899845ad3d59bd9653f200f220920489ca2b5937696c31836040516119e69190612687565b60405180910390a3505050565b60007fd9b67a26000000000000000000000000000000000000000000000000000000007bffffffffffffffffffffffffffffffffffffffffffffffffffffffff1916827bffffffffffffffffffffffffffffffffffffffffffffffffffffffff19161480611abe57507f0e89341c000000000000000000000000000000000000000000000000000000007bffffffffffffffffffffffffffffffffffffffffffffffffffffffff1916827bffffffffffffffffffffffffffffffffffffffffffffffffffffffff1916145b80611ace5750611acd82611d5b565b5b9050919050565b611adf8282610dba565b611b225780826040517fe2517d3f000000000000000000000000000000000000000000000000000000008152600401611b19929190613805565b60405180910390fd5b5050565b60608060405191506001825283602083015260408201905060018152826020820152604081016040529250929050565b611b6285858585611dc5565b600073ffffffffffffffffffffffffffffffffffffffff168473ffffffffffffffffffffffffffffffffffffffff1614611c01576000611ba0611416565b90506001845103611bf0576000611bc160008661170f90919063ffffffff16565b90506000611bd960008661170f90919063ffffffff16565b9050611be983898985858961216d565b5050611bff565b611bfe818787878787612321565b5b505b5050505050565b600080600090507a184f03e93ff9f4daa797ed6e38ed64bf6a1f0100000000000000008310611c66577a184f03e93ff9f4daa797ed6e38ed64bf6a1f0100000000000000008381611c5c57611c5b613558565b5b0492506040810190505b6d04ee2d6d415b85acef81000000008310611ca3576d04ee2d6d415b85acef81000000008381611c9957611c98613558565b5b0492506020810190505b662386f26fc100008310611cd257662386f26fc100008381611cc857611cc7613558565b5b0492506010810190505b6305f5e1008310611cfb576305f5e1008381611cf157611cf0613558565b5b0492506008810190505b6127108310611d20576127108381611d1657611d15613558565b5b0492506004810190505b60648310611d435760648381611d3957611d38613558565b5b0492506002810190505b600a8310611d52576001810190505b80915050919050565b60007f01ffc9a7000000000000000000000000000000000000000000000000000000007bffffffffffffffffffffffffffffffffffffffffffffffffffffffff1916827bffffffffffffffffffffffffffffffffffffffffffffffffffffffff1916149050919050565b8051825114611e0f57815181516040517f5b059991000000000000000000000000000000000000000000000000000000008152600401611e069291906134a0565b60405180910390fd5b6000611e19611416565b905060005b8351811015612028576000611e3c828661170f90919063ffffffff16565b90506000611e53838661170f90919063ffffffff16565b9050600073ffffffffffffffffffffffffffffffffffffffff168873ffffffffffffffffffffffffffffffffffffffff1614611f8057600080600084815260200190815260200160002060008a73ffffffffffffffffffffffffffffffffffffffff1673ffffffffffffffffffffffffffffffffffffffff16815260200190815260200160002054905081811015611f2857888183856040517f03dee4c5000000000000000000000000000000000000000000000000000000008152600401611f1f949392919061382e565b60405180910390fd5b81810360008085815260200190815260200160002060008b73ffffffffffffffffffffffffffffffffffffffff1673ffffffffffffffffffffffffffffffffffffffff16815260200190815260200160002081905550505b600073ffffffffffffffffffffffffffffffffffffffff168773ffffffffffffffffffffffffffffffffffffffff161461201b578060008084815260200190815260200160002060008973ffffffffffffffffffffffffffffffffffffffff1673ffffffffffffffffffffffffffffffffffffffff1681526020019081526020016000206000828254612013919061338c565b925050819055505b5050806001019050611e1e565b5060018351036120e757600061204860008561170f90919063ffffffff16565b9050600061206060008561170f90919063ffffffff16565b90508573ffffffffffffffffffffffffffffffffffffffff168773ffffffffffffffffffffffffffffffffffffffff168473ffffffffffffffffffffffffffffffffffffffff167fc3d58168c5ae7397731d063d5bbf3d657854427343f4c083240f7aacaa2d0f6285856040516120d89291906134a0565b60405180910390a45050612166565b8373ffffffffffffffffffffffffffffffffffffffff168573ffffffffffffffffffffffffffffffffffffffff168273ffffffffffffffffffffffffffffffffffffffff167f4a39dc06d4c0dbc64b70af90fd698a233a518aa5d07e595d983b8c0526c8f7fb868660405161215d929190613873565b60405180910390a45b5050505050565b60008473ffffffffffffffffffffffffffffffffffffffff163b1115612319578373ffffffffffffffffffffffffffffffffffffffff1663f23a6e6187878686866040518663ffffffff1660e01b81526004016121ce9594939291906138ff565b6020604051808303816000875af192505050801561220a57506040513d601f19601f82011682018060405250810190612207919061396e565b60015b61228e573d806000811461223a576040519150601f19603f3d011682016040523d82523d6000602084013e61223f565b606091505b50600081510361228657846040517f57f447ce00000000000000000000000000000000000000000000000000000000815260040161227d9190612ed4565b60405180910390fd5b805181602001fd5b63f23a6e6160e01b7bffffffffffffffffffffffffffffffffffffffffffffffffffffffff1916817bffffffffffffffffffffffffffffffffffffffffffffffffffffffff19161461231757846040517f57f447ce00000000000000000000000000000000000000000000000000000000815260040161230e9190612ed4565b60405180910390fd5b505b505050505050565b60008473ffffffffffffffffffffffffffffffffffffffff163b11156124cd578373ffffffffffffffffffffffffffffffffffffffff1663bc197c8187878686866040518663ffffffff1660e01b815260040161238295949392919061399b565b6020604051808303816000875af19250505080156123be57506040513d601f19601f820116820180604052508101906123bb919061396e565b60015b612442573d80600081146123ee576040519150601f19603f3d011682016040523d82523d6000602084013e6123f3565b606091505b50600081510361243a57846040517f57f447ce0000000000000000000000000000000000000000000000000000000081526004016124319190612ed4565b60405180910390fd5b805181602001fd5b63bc197c8160e01b7bffffffffffffffffffffffffffffffffffffffffffffffffffffffff1916817bffffffffffffffffffffffffffffffffffffffffffffffffffffffff1916146124cb57846040517f57f447ce0000000000000000000000000000000000000000000000000000000081526004016124c29190612ed4565b60405180910390fd5b505b505050505050565b6000604051905090565b600080fd5b600080fd5b600073ffffffffffffffffffffffffffffffffffffffff82169050919050565b6000612514826124e9565b9050919050565b61252481612509565b811461252f57600080fd5b50565b6000813590506125418161251b565b92915050565b6000819050919050565b61255a81612547565b811461256557600080fd5b50565b60008135905061257781612551565b92915050565b60008060408385031215612594576125936124df565b5b60006125a285828601612532565b92505060206125b385828601612568565b9150509250929050565b6125c681612547565b82525050565b60006020820190506125e160008301846125bd565b92915050565b60007fffffffff0000000000000000000000000000000000000000000000000000000082169050919050565b61261c816125e7565b811461262757600080fd5b50565b60008135905061263981612613565b92915050565b600060208284031215612655576126546124df565b5b60006126638482850161262a565b91505092915050565b60008115159050919050565b6126818161266c565b82525050565b600060208201905061269c6000830184612678565b92915050565b6000806000606084860312156126bb576126ba6124df565b5b60006126c986828701612568565b93505060206126da86828701612568565b92505060406126eb86828701612568565b9150509250925092565b6000806040838503121561270c5761270b6124df565b5b600061271a85828601612568565b925050602061272b85828601612568565b9150509250929050565b60006020828403121561274b5761274a6124df565b5b600061275984828501612568565b91505092915050565b600081519050919050565b600082825260208201905092915050565b60005b8381101561279c578082015181840152602081019050612781565b60008484015250505050565b6000601f19601f8301169050919050565b60006127c482612762565b6127ce818561276d565b93506127de81856020860161277e565b6127e7816127a8565b840191505092915050565b6000602082019050818103600083015261280c81846127b9565b905092915050565b6000819050919050565b61282781612814565b811461283257600080fd5b50565b6000813590506128448161281e565b92915050565b6000602082840312156128605761285f6124df565b5b600061286e84828501612835565b91505092915050565b61288081612814565b82525050565b600060208201905061289b6000830184612877565b92915050565b600080fd5b7f4e487b7100000000000000000000000000000000000000000000000000000000600052604160045260246000fd5b6128de826127a8565b810181811067ffffffffffffffff821117156128fd576128fc6128a6565b5b80604052505050565b60006129106124d5565b905061291c82826128d5565b919050565b600067ffffffffffffffff82111561293c5761293b6128a6565b5b602082029050602081019050919050565b600080fd5b600061296561296084612921565b612906565b905080838252602082019050602084028301858111156129885761298761294d565b5b835b818110156129b1578061299d8882612568565b84526020840193505060208101905061298a565b5050509392505050565b600082601f8301126129d0576129cf6128a1565b5b81356129e0848260208601612952565b91505092915050565b600080fd5b600067ffffffffffffffff821115612a0957612a086128a6565b5b612a12826127a8565b9050602081019050919050565b82818337600083830152505050565b6000612a41612a3c846129ee565b612906565b905082815260208101848484011115612a5d57612a5c6129e9565b5b612a68848285612a1f565b509392505050565b600082601f830112612a8557612a846128a1565b5b8135612a95848260208601612a2e565b91505092915050565b600080600080600060a08688031215612aba57612ab96124df565b5b6000612ac888828901612532565b9550506020612ad988828901612532565b945050604086013567ffffffffffffffff811115612afa57612af96124e4565b5b612b06888289016129bb565b935050606086013567ffffffffffffffff811115612b2757612b266124e4565b5b612b33888289016129bb565b925050608086013567ffffffffffffffff811115612b5457612b536124e4565b5b612b6088828901612a70565b9150509295509295909350565b60008060408385031215612b8457612b836124df565b5b6000612b9285828601612835565b9250506020612ba385828601612532565b9150509250929050565b600067ffffffffffffffff821115612bc857612bc76128a6565b5b602082029050602081019050919050565b6000612bec612be784612bad565b612906565b90508083825260208201905060208402830185811115612c0f57612c0e61294d565b5b835b81811015612c385780612c248882612532565b845260208401935050602081019050612c11565b5050509392505050565b600082601f830112612c5757612c566128a1565b5b8135612c67848260208601612bd9565b91505092915050565b60008060408385031215612c8757612c866124df565b5b600083013567ffffffffffffffff811115612ca557612ca46124e4565b5b612cb185828601612c42565b925050602083013567ffffffffffffffff811115612cd257612cd16124e4565b5b612cde858286016129bb565b9150509250929050565b600081519050919050565b600082825260208201905092915050565b6000819050602082019050919050565b612d1d81612547565b82525050565b6000612d2f8383612d14565b60208301905092915050565b6000602082019050919050565b6000612d5382612ce8565b612d5d8185612cf3565b9350612d6883612d04565b8060005b83811015612d99578151612d808882612d23565b9750612d8b83612d3b565b925050600181019050612d6c565b5085935050505092915050565b60006020820190508181036000830152612dc08184612d48565b905092915050565b600067ffffffffffffffff821115612de357612de26128a6565b5b612dec826127a8565b9050602081019050919050565b6000612e0c612e0784612dc8565b612906565b905082815260208101848484011115612e2857612e276129e9565b5b612e33848285612a1f565b509392505050565b600082601f830112612e5057612e4f6128a1565b5b8135612e60848260208601612df9565b91505092915050565b60008060408385031215612e8057612e7f6124df565b5b6000612e8e85828601612568565b925050602083013567ffffffffffffffff811115612eaf57612eae6124e4565b5b612ebb85828601612e3b565b9150509250929050565b612ece81612509565b82525050565b6000602082019050612ee96000830184612ec5565b92915050565b612ef88161266c565b8114612f0357600080fd5b50565b600081359050612f1581612eef565b92915050565b60008060408385031215612f3257612f316124df565b5b6000612f4085828601612532565b9250506020612f5185828601612f06565b9150509250929050565b60008060408385031215612f7257612f716124df565b5b6000612f8085828601612532565b9250506020612f9185828601612532565b9150509250929050565b600080600080600060a08688031215612fb757612fb66124df565b5b6000612fc588828901612532565b9550506020612fd688828901612532565b9450506040612fe788828901612568565b9350506060612ff888828901612568565b925050608086013567ffffffffffffffff811115613019576130186124e4565b5b61302588828901612a70565b9150509295509295909350565b600060208284031215613048576130476124df565b5b600061305684828501612532565b91505092915050565b7f43616e2774206475706c6963617465206d696e74730000000000000000000000600082015250565b600061309560158361276d565b91506130a08261305f565b602082019050919050565b600060208201905081810360008301526130c481613088565b9050919050565b7f4d696e74207175616e74697479206d757374206265203e203000000000000000600082015250565b600061310160198361276d565b915061310c826130cb565b602082019050919050565b60006020820190508181036000830152613130816130f4565b9050919050565b7f45786365656473206d6178696d756d20746f6b656e20737570706c7900000000600082015250565b600061316d601c8361276d565b915061317882613137565b602082019050919050565b6000602082019050818103600083015261319c81613160565b9050919050565b7f5072696365206d757374206265203e3d20300000000000000000000000000000600082015250565b60006131d960128361276d565b91506131e4826131a3565b602082019050919050565b60006020820190508181036000830152613208816131cc565b9050919050565b7f4e487b7100000000000000000000000000000000000000000000000000000000600052601160045260246000fd5b600061324982612547565b915061325483612547565b925082820261326281612547565b915082820484148315176132795761327861320f565b5b5092915050565b7f45746865722073656e74206973206e6f7420636f727265637400000000000000600082015250565b60006132b660198361276d565b91506132c182613280565b602082019050919050565b600060208201905081810360008301526132e5816132a9565b9050919050565b60006132f782612547565b915061330283612547565b925082820390508181111561331a5761331961320f565b5b92915050565b7f43616e2774206275792074686174206d616e7900000000000000000000000000600082015250565b600061335660138361276d565b915061336182613320565b602082019050919050565b6000602082019050818103600083015261338581613349565b9050919050565b600061339782612547565b91506133a283612547565b92508282019050808211156133ba576133b961320f565b5b92915050565b600081905092915050565b60006133d682612762565b6133e081856133c0565b93506133f081856020860161277e565b80840191505092915050565b7f2e6a736f6e000000000000000000000000000000000000000000000000000000600082015250565b60006134326005836133c0565b915061343d826133fc565b600582019050919050565b600061345482856133cb565b915061346082846133cb565b915061346b82613425565b91508190509392505050565b600060408201905061348c6000830185612ec5565b6134996020830184612ec5565b9392505050565b60006040820190506134b560008301856125bd565b6134c260208301846125bd565b9392505050565b7f4e487b7100000000000000000000000000000000000000000000000000000000600052603260045260246000fd5b7f4e487b7100000000000000000000000000000000000000000000000000000000600052602260045260246000fd5b6000600282049050600182168061353f57607f821691505b602082108103613552576135516134f8565b5b50919050565b7f4e487b7100000000000000000000000000000000000000000000000000000000600052601260045260246000fd5b60008190508160005260206000209050919050565b60006020601f8301049050919050565b600082821b905092915050565b6000600883026135e97fffffffffffffffffffffffffffffffffffffffffffffffffffffffffffffffff826135ac565b6135f386836135ac565b95508019841693508086168417925050509392505050565b6000819050919050565b600061363061362b61362684612547565b61360b565b612547565b9050919050565b6000819050919050565b61364a83613615565b61365e61365682613637565b8484546135b9565b825550505050565b600090565b613673613666565b61367e818484613641565b505050565b5b818110156136a25761369760008261366b565b600181019050613684565b5050565b601f8211156136e7576136b881613587565b6136c18461359c565b810160208510156136d0578190505b6136e46136dc8561359c565b830182613683565b50505b505050565b600082821c905092915050565b600061370a600019846008026136ec565b1980831691505092915050565b600061372383836136f9565b9150826002028217905092915050565b61373c82612762565b67ffffffffffffffff811115613755576137546128a6565b5b61375f8254613527565b61376a8282856136a6565b600060209050601f83116001811461379d576000841561378b578287015190505b6137958582613717565b8655506137fd565b601f1984166137ab86613587565b60005b828110156137d3578489015182556001820191506020850194506020810190506137ae565b868310156137f057848901516137ec601f8916826136f9565b8355505b6001600288020188555050505b505050505050565b600060408201905061381a6000830185612ec5565b6138276020830184612877565b9392505050565b60006080820190506138436000830187612ec5565b61385060208301866125bd565b61385d60408301856125bd565b61386a60608301846125bd565b95945050505050565b6000604082019050818103600083015261388d8185612d48565b905081810360208301526138a18184612d48565b90509392505050565b600081519050919050565b600082825260208201905092915050565b60006138d1826138aa565b6138db81856138b5565b93506138eb81856020860161277e565b6138f4816127a8565b840191505092915050565b600060a0820190506139146000830188612ec5565b6139216020830187612ec5565b61392e60408301866125bd565b61393b60608301856125bd565b818103608083015261394d81846138c6565b90509695505050505050565b60008151905061396881612613565b92915050565b600060208284031215613984576139836124df565b5b600061399284828501613959565b91505092915050565b600060a0820190506139b06000830188612ec5565b6139bd6020830187612ec5565b81810360408301526139cf8186612d48565b905081810360608301526139e38185612d48565b905081810360808301526139f781846138c6565b9050969550505050505056fe68747470733a2f2f6578616d706c652e636f6d2f636f6c6c656374696f6e2f7b636f6e74726163745f616464726573737d2e6a736f6ea264697066735822122003218ba064f2f773cb7922c1218c43f081c75bf6b001e43800d857fe1d52386a64736f6c63430008180033",
  "linkReferences": {},
  "deployedLinkReferences": {}
}