{
  "_format": "hh-sol-artifact-1",
  "contractName": "MyERC1155Token",
  "sourceName": "contracts/contract.sol",
  "abi": [
    {
      "inputs": [
        {
          "internalType": "string",
          "name": "_uri",
          "type": "string"
        }
      ],
      "stateMutability": "nonpayable",
      "type": "constructor"
    },
    {
      "inputs": [],
      "name": "AccessControlBadConfirmation",
      "type": "error"
    },
    {
      "inputs": [
        {
          "internalType": "address",
          "name": "account",
          "type": "address"
        },
        {
          "internalType": "bytes32",
          "name": "neededRole",
          "type": "bytes32"
        }
      ],
      "name": "AccessControlUnauthorizedAccount",
      "type": "error"
    },
    {
      "inputs": [
        {
          "internalType": "address",
          "name": "sender",
          "type": "address"
        },
        {
          "internalType": "uint256",
          "name": "balance",
          "type": "uint256"
        },
        {
          "internalType": "uint256",
          "name": "needed",
          "type": "uint256"
        },
        {
          "internalType": "uint256",
          "name": "tokenId",
          "type": "uint256"
        }
      ],
      "name": "ERC1155InsufficientBalance",
      "type": "error"
    },
    {
      "inputs": [
        {
          "internalType": "address",
          "name": "approver",
          "type": "address"
        }
      ],
      "name": "ERC1155InvalidApprover",
      "type": "error"
    },
    {
      "inputs": [
        {
          "internalType": "uint256",
          "name": "idsLength",
          "type": "uint256"
        },
        {
          "internalType": "uint256",
          "name": "valuesLength",
          "type": "uint256"
        }
      ],
      "name": "ERC1155InvalidArrayLength",
      "type": "error"
    },
    {
      "inputs": [
        {
          "internalType": "address",
          "name": "operator",
          "type": "address"
        }
      ],
      "name": "ERC1155InvalidOperator",
      "type": "error"
    },
    {
      "inputs": [
        {
          "internalType": "address",
          "name": "receiver",
          "type": "address"
        }
      ],
      "name": "ERC1155InvalidReceiver",
      "type": "error"
    },
    {
      "inputs": [
        {
          "internalType": "address",
          "name": "sender",
          "type": "address"
        }
      ],
      "name": "ERC1155InvalidSender",
      "type": "error"
    },
    {
      "inputs": [
        {
          "internalType": "address",
          "name": "operator",
          "type": "address"
        },
        {
          "internalType": "address",
          "name": "owner",
          "type": "address"
        }
      ],
      "name": "ERC1155MissingApprovalForAll",
      "type": "error"
    },
    {
      "inputs": [
        {
          "internalType": "address",
          "name": "owner",
          "type": "address"
        }
      ],
      "name": "OwnableInvalidOwner",
      "type": "error"
    },
    {
      "inputs": [
        {
          "internalType": "address",
          "name": "account",
          "type": "address"
        }
      ],
      "name": "OwnableUnauthorizedAccount",
      "type": "error"
    },
    {
      "anonymous": false,
      "inputs": [
        {
          "indexed": true,
          "internalType": "address",
          "name": "account",
          "type": "address"
        },
        {
          "indexed": true,
          "internalType": "address",
          "name": "operator",
          "type": "address"
        },
        {
          "indexed": false,
          "internalType": "bool",
          "name": "approved",
          "type": "bool"
        }
      ],
      "name": "ApprovalForAll",
      "type": "event"
    },
    {
      "anonymous": false,
      "inputs": [
        {
          "indexed": true,
          "internalType": "address",
          "name": "previousOwner",
          "type": "address"
        },
        {
          "indexed": true,
          "internalType": "address",
          "name": "newOwner",
          "type": "address"
        }
      ],
      "name": "OwnershipTransferred",
      "type": "event"
    },
    {
      "anonymous": false,
      "inputs": [
        {
          "indexed": true,
          "internalType": "bytes32",
          "name": "role",
          "type": "bytes32"
        },
        {
          "indexed": true,
          "internalType": "bytes32",
          "name": "previousAdminRole",
          "type": "bytes32"
        },
        {
          "indexed": true,
          "internalType": "bytes32",
          "name": "newAdminRole",
          "type": "bytes32"
        }
      ],
      "name": "RoleAdminChanged",
      "type": "event"
    },
    {
      "anonymous": false,
      "inputs": [
        {
          "indexed": true,
          "internalType": "bytes32",
          "name": "role",
          "type": "bytes32"
        },
        {
          "indexed": true,
          "internalType": "address",
          "name": "account",
          "type": "address"
        },
        {
          "indexed": true,
          "internalType": "address",
          "name": "sender",
          "type": "address"
        }
      ],
      "name": "RoleGranted",
      "type": "event"
    },
    {
      "anonymous": false,
      "inputs": [
        {
          "indexed": true,
          "internalType": "bytes32",
          "name": "role",
          "type": "bytes32"
        },
        {
          "indexed": true,
          "internalType": "address",
          "name": "account",
          "type": "address"
        },
        {
          "indexed": true,
          "internalType": "address",
          "name": "sender",
          "type": "address"
        }
      ],
      "name": "RoleRevoked",
      "type": "event"
    },
    {
      "anonymous": false,
      "inputs": [
        {
          "indexed": true,
          "internalType": "address",
          "name": "operator",
          "type": "address"
        },
        {
          "indexed": true,
          "internalType": "address",
          "name": "from",
          "type": "address"
        },
        {
          "indexed": true,
          "internalType": "address",
          "name": "to",
          "type": "address"
        },
        {
          "indexed": false,
          "internalType": "uint256[]",
          "name": "ids",
          "type": "uint256[]"
        },
        {
          "indexed": false,
          "internalType": "uint256[]",
          "name": "values",
          "type": "uint256[]"
        }
      ],
      "name": "TransferBatch",
      "type": "event"
    },
    {
      "anonymous": false,
      "inputs": [
        {
          "indexed": true,
          "internalType": "address",
          "name": "operator",
          "type": "address"
        },
        {
          "indexed": true,
          "internalType": "address",
          "name": "from",
          "type": "address"
        },
        {
          "indexed": true,
          "internalType": "address",
          "name": "to",
          "type": "address"
        },
        {
          "indexed": false,
          "internalType": "uint256",
          "name": "id",
          "type": "uint256"
        },
        {
          "indexed": false,
          "internalType": "uint256",
          "name": "value",
          "type": "uint256"
        }
      ],
      "name": "TransferSingle",
      "type": "event"
    },
    {
      "anonymous": false,
      "inputs": [
        {
          "indexed": false,
          "internalType": "string",
          "name": "value",
          "type": "string"
        },
        {
          "indexed": true,
          "internalType": "uint256",
          "name": "id",
          "type": "uint256"
        }
      ],
      "name": "URI",
      "type": "event"
    },
    {
      "inputs": [],
      "name": "DEFAULT_ADMIN_ROLE",
      "outputs": [
        {
          "internalType": "bytes32",
          "name": "",
          "type": "bytes32"
        }
      ],
      "stateMutability": "view",
      "type": "function"
    },
    {
      "inputs": [],
      "name": "MAX_SUPPLY",
      "outputs": [
        {
          "internalType": "uint256",
          "name": "",
          "type": "uint256"
        }
      ],
      "stateMutability": "view",
      "type": "function"
    },
    {
      "inputs": [],
      "name": "MINTER_ROLE",
      "outputs": [
        {
          "internalType": "bytes32",
          "name": "",
          "type": "bytes32"
        }
      ],
      "stateMutability": "view",
      "type": "function"
    },
    {
      "inputs": [
        {
          "internalType": "address",
          "name": "account",
          "type": "address"
        },
        {
          "internalType": "uint256",
          "name": "id",
          "type": "uint256"
        }
      ],
      "name": "balanceOf",
      "outputs": [
        {
          "internalType": "uint256",
          "name": "",
          "type": "uint256"
        }
      ],
      "stateMutability": "view",
      "type": "function"
    },
    {
      "inputs": [
        {
          "internalType": "address[]",
          "name": "accounts",
          "type": "address[]"
        },
        {
          "internalType": "uint256[]",
          "name": "ids",
          "type": "uint256[]"
        }
      ],
      "name": "balanceOfBatch",
      "outputs": [
        {
          "internalType": "uint256[]",
          "name": "",
          "type": "uint256[]"
        }
      ],
      "stateMutability": "view",
      "type": "function"
    },
    {
      "inputs": [
        {
          "internalType": "uint256",
          "name": "_tokenId",
          "type": "uint256"
        },
        {
          "internalType": "uint256",
          "name": "_amount",
          "type": "uint256"
        }
      ],
      "name": "buyToken",
      "outputs": [],
      "stateMutability": "payable",
      "type": "function"
    },
    {
      "inputs": [],
      "name": "getAllMetadata",
      "outputs": [
        {
          "internalType": "string",
          "name": "",
          "type": "string"
        }
      ],
      "stateMutability": "view",
      "type": "function"
    },
    {
      "inputs": [
        {
          "internalType": "uint256",
          "name": "_tokenId",
          "type": "uint256"
        }
      ],
      "name": "getMetadata",
      "outputs": [
        {
          "internalType": "string",
          "name": "",
          "type": "string"
        }
      ],
      "stateMutability": "view",
      "type": "function"
    },
    {
      "inputs": [
        {
          "internalType": "bytes32",
          "name": "role",
          "type": "bytes32"
        }
      ],
      "name": "getRoleAdmin",
      "outputs": [
        {
          "internalType": "bytes32",
          "name": "",
          "type": "bytes32"
        }
      ],
      "stateMutability": "view",
      "type": "function"
    },
    {
      "inputs": [
        {
          "internalType": "bytes32",
          "name": "role",
          "type": "bytes32"
        },
        {
          "internalType": "address",
          "name": "account",
          "type": "address"
        }
      ],
      "name": "grantRole",
      "outputs": [],
      "stateMutability": "nonpayable",
      "type": "function"
    },
    {
      "inputs": [
        {
          "internalType": "bytes32",
          "name": "role",
          "type": "bytes32"
        },
        {
          "internalType": "address",
          "name": "account",
          "type": "address"
        }
      ],
      "name": "hasRole",
      "outputs": [
        {
          "internalType": "bool",
          "name": "",
          "type": "bool"
        }
      ],
      "stateMutability": "view",
      "type": "function"
    },
    {
      "inputs": [
        {
          "internalType": "address",
          "name": "account",
          "type": "address"
        },
        {
          "internalType": "address",
          "name": "operator",
          "type": "address"
        }
      ],
      "name": "isApprovedForAll",
      "outputs": [
        {
          "internalType": "bool",
          "name": "",
          "type": "bool"
        }
      ],
      "stateMutability": "view",
      "type": "function"
    },
    {
      "inputs": [
        {
          "internalType": "uint256",
          "name": "",
          "type": "uint256"
        }
      ],
      "name": "metaData",
      "outputs": [
        {
          "internalType": "string",
          "name": "",
          "type": "string"
        }
      ],
      "stateMutability": "view",
      "type": "function"
    },
    {
      "inputs": [
        {
          "internalType": "uint256",
          "name": "_amount",
          "type": "uint256"
        },
        {
          "internalType": "uint256",
          "name": "_price",
          "type": "uint256"
        },
        {
          "internalType": "string",
          "name": "_metadata",
          "type": "string"
        }
      ],
      "name": "mint",
      "outputs": [],
      "stateMutability": "nonpayable",
      "type": "function"
    },
    {
      "inputs": [],
      "name": "owner",
      "outputs": [
        {
          "internalType": "address",
          "name": "",
          "type": "address"
        }
      ],
      "stateMutability": "view",
      "type": "function"
    },
    {
      "inputs": [],
      "name": "renounceOwnership",
      "outputs": [],
      "stateMutability": "nonpayable",
      "type": "function"
    },
    {
      "inputs": [
        {
          "internalType": "bytes32",
          "name": "role",
          "type": "bytes32"
        },
        {
          "internalType": "address",
          "name": "callerConfirmation",
          "type": "address"
        }
      ],
      "name": "renounceRole",
      "outputs": [],
      "stateMutability": "nonpayable",
      "type": "function"
    },
    {
      "inputs": [
        {
          "internalType": "bytes32",
          "name": "role",
          "type": "bytes32"
        },
        {
          "internalType": "address",
          "name": "account",
          "type": "address"
        }
      ],
      "name": "revokeRole",
      "outputs": [],
      "stateMutability": "nonpayable",
      "type": "function"
    },
    {
      "inputs": [
        {
          "internalType": "address",
          "name": "from",
          "type": "address"
        },
        {
          "internalType": "address",
          "name": "to",
          "type": "address"
        },
        {
          "internalType": "uint256[]",
          "name": "ids",
          "type": "uint256[]"
        },
        {
          "internalType": "uint256[]",
          "name": "values",
          "type": "uint256[]"
        },
        {
          "internalType": "bytes",
          "name": "data",
          "type": "bytes"
        }
      ],
      "name": "safeBatchTransferFrom",
      "outputs": [],
      "stateMutability": "nonpayable",
      "type": "function"
    },
    {
      "inputs": [
        {
          "internalType": "address",
          "name": "from",
          "type": "address"
        },
        {
          "internalType": "address",
          "name": "to",
          "type": "address"
        },
        {
          "internalType": "uint256",
          "name": "id",
          "type": "uint256"
        },
        {
          "internalType": "uint256",
          "name": "value",
          "type": "uint256"
        },
        {
          "internalType": "bytes",
          "name": "data",
          "type": "bytes"
        }
      ],
      "name": "safeTransferFrom",
      "outputs": [],
      "stateMutability": "nonpayable",
      "type": "function"
    },
    {
      "inputs": [
        {
          "internalType": "address",
          "name": "operator",
          "type": "address"
        },
        {
          "internalType": "bool",
          "name": "approved",
          "type": "bool"
        }
      ],
      "name": "setApprovalForAll",
      "outputs": [],
      "stateMutability": "nonpayable",
      "type": "function"
    },
    {
      "inputs": [
        {
          "internalType": "bytes4",
          "name": "interfaceId",
          "type": "bytes4"
        }
      ],
      "name": "supportsInterface",
      "outputs": [
        {
          "internalType": "bool",
          "name": "",
          "type": "bool"
        }
      ],
      "stateMutability": "view",
      "type": "function"
    },
    {
      "inputs": [
        {
          "internalType": "uint256",
          "name": "",
          "type": "uint256"
        }
      ],
      "name": "tokenPrices",
      "outputs": [
        {
          "internalType": "uint256",
          "name": "",
          "type": "uint256"
        }
      ],
      "stateMutability": "view",
      "type": "function"
    },
    {
      "inputs": [
        {
          "internalType": "uint256",
          "name": "",
          "type": "uint256"
        }
      ],
      "name": "tokenSupply",
      "outputs": [
        {
          "internalType": "uint256",
          "name": "",
          "type": "uint256"
        }
      ],
      "stateMutability": "view",
      "type": "function"
    },
    {
      "inputs": [
        {
          "internalType": "uint256",
          "name": "",
          "type": "uint256"
        }
      ],
      "name": "tokensSold",
      "outputs": [
        {
          "internalType": "uint256",
          "name": "",
          "type": "uint256"
        }
      ],
      "stateMutability": "view",
      "type": "function"
    },
    {
      "inputs": [
        {
          "internalType": "address",
          "name": "newOwner",
          "type": "address"
        }
      ],
      "name": "transferOwnership",
      "outputs": [],
      "stateMutability": "nonpayable",
      "type": "function"
    },
    {
      "inputs": [
        {
          "internalType": "uint256",
          "name": "",
          "type": "uint256"
        }
      ],
      "name": "uri",
      "outputs": [
        {
          "internalType": "string",
          "name": "",
          "type": "string"
        }
      ],
      "stateMutability": "view",
      "type": "function"
    }
  ],
  "bytecode": "0x60806040523480156200001157600080fd5b5060405162005634380380620056348339818101604052810190620000379190620010c7565b33816200004a816200016860201b60201c565b50600073ffffffffffffffffffffffffffffffffffffffff168173ffffffffffffffffffffffffffffffffffffffff1603620000c05760006040517f1e4fbdf7000000000000000000000000000000000000000000000000000000008152600401620000b791906200115d565b60405180910390fd5b620000d1816200017d60201b60201c565b50620001047f9f2df0fed2c77648de5860a4cc508cd0818c85b8b8a1ab4ceeef8d981c8956a6336200024360201b60201c565b5062000133600a60016040518060e0016040528060a981526020016200558b60a991396200034760201b60201c565b62000161600360016040518060e0016040528060ae8152602001620054dd60ae91396200034760201b60201c565b5062001a1b565b8060029081620001799190620013c5565b5050565b6000600460009054906101000a900473ffffffffffffffffffffffffffffffffffffffff16905081600460006101000a81548173ffffffffffffffffffffffffffffffffffffffff021916908373ffffffffffffffffffffffffffffffffffffffff1602179055508173ffffffffffffffffffffffffffffffffffffffff168173ffffffffffffffffffffffffffffffffffffffff167f8be0079c531659141344cd1fd0a4f28419497f9722a3daafe3b4186f6b6457e060405160405180910390a35050565b60006200025783836200052860201b60201c565b6200033c5760016003600085815260200190815260200160002060000160008473ffffffffffffffffffffffffffffffffffffffff1673ffffffffffffffffffffffffffffffffffffffff16815260200190815260200160002060006101000a81548160ff021916908315150217905550620002d86200059360201b60201c565b73ffffffffffffffffffffffffffffffffffffffff168273ffffffffffffffffffffffffffffffffffffffff16847f2f8788117e7eff1d82e926ec794901d17c78024a50270940304540a733656f0d60405160405180910390a46001905062000341565b600090505b92915050565b7f9f2df0fed2c77648de5860a4cc508cd0818c85b8b8a1ab4ceeef8d981c8956a662000379816200059b60201b60201c565b60008411620003bf576040517f08c379a0000000000000000000000000000000000000000000000000000000008152600401620003b6906200150d565b60405180910390fd5b606484111562000406576040517f08c379a0000000000000000000000000000000000000000000000000000000008152600401620003fd906200157f565b60405180910390fd5b60008310156200044d576040517f08c379a00000000000000000000000000000000000000000000000000000000081526004016200044490620015f1565b60405180910390fd5b62000475336005805490508660405180602001604052806000815250620005bf60201b60201c565b82600660006005805490508152602001908152602001600020819055508360076000600580549050815260200190815260200160002081905550600060086000600580549050815260200190815260200160002081905550816009600060058054905081526020019081526020016000209081620004f49190620013c5565b5060058080549050908060018154018082558091505060019003906000526020600020016000909190919091505550505050565b60006003600084815260200190815260200160002060000160008373ffffffffffffffffffffffffffffffffffffffff1673ffffffffffffffffffffffffffffffffffffffff16815260200190815260200160002060009054906101000a900460ff16905092915050565b600033905090565b620005bc81620005b06200059360201b60201c565b6200066b60201b60201c565b50565b600073ffffffffffffffffffffffffffffffffffffffff168473ffffffffffffffffffffffffffffffffffffffff1603620006345760006040517f57f447ce0000000000000000000000000000000000000000000000000000000081526004016200062b91906200115d565b60405180910390fd5b600080620006498585620006c760201b60201c565b9150915062000663600087848487620006f760201b60201c565b505050505050565b6200067d82826200052860201b60201c565b620006c35780826040517fe2517d3f000000000000000000000000000000000000000000000000000000008152600401620006ba9291906200162e565b60405180910390fd5b5050565b60608060405191506001825283602083015260408201905060018152826020820152604081016040529250929050565b6200070b85858585620007d060201b60201c565b600073ffffffffffffffffffffffffffffffffffffffff168473ffffffffffffffffffffffffffffffffffffffff1614620007c9576000620007526200059360201b60201c565b90506001845103620007b05760006200077660008662000b9a60201b90919060201c565b905060006200079060008662000b9a60201b90919060201c565b9050620007a883898985858962000bae60201b60201c565b5050620007c7565b620007c681878787878762000d7160201b60201c565b5b505b5050505050565b80518251146200081d57815181516040517f5b059991000000000000000000000000000000000000000000000000000000008152600401620008149291906200166c565b60405180910390fd5b60006200082f6200059360201b60201c565b905060005b835181101562000a4b57600062000855828662000b9a60201b90919060201c565b905060006200086e838662000b9a60201b90919060201c565b9050600073ffffffffffffffffffffffffffffffffffffffff168873ffffffffffffffffffffffffffffffffffffffff16146200099f57600080600084815260200190815260200160002060008a73ffffffffffffffffffffffffffffffffffffffff1673ffffffffffffffffffffffffffffffffffffffff168152602001908152602001600020549050818110156200094757888183856040517f03dee4c50000000000000000000000000000000000000000000000000000000081526004016200093e949392919062001699565b60405180910390fd5b81810360008085815260200190815260200160002060008b73ffffffffffffffffffffffffffffffffffffffff1673ffffffffffffffffffffffffffffffffffffffff16815260200190815260200160002081905550505b600073ffffffffffffffffffffffffffffffffffffffff168773ffffffffffffffffffffffffffffffffffffffff161462000a3d578060008084815260200190815260200160002060008973ffffffffffffffffffffffffffffffffffffffff1673ffffffffffffffffffffffffffffffffffffffff168152602001908152602001600020600082825462000a35919062001715565b925050819055505b505080600101905062000834565b50600183510362000b1257600062000a6e60008562000b9a60201b90919060201c565b9050600062000a8860008562000b9a60201b90919060201c565b90508573ffffffffffffffffffffffffffffffffffffffff168773ffffffffffffffffffffffffffffffffffffffff168473ffffffffffffffffffffffffffffffffffffffff167fc3d58168c5ae7397731d063d5bbf3d657854427343f4c083240f7aacaa2d0f62858560405162000b029291906200166c565b60405180910390a4505062000b93565b8373ffffffffffffffffffffffffffffffffffffffff168573ffffffffffffffffffffffffffffffffffffffff168273ffffffffffffffffffffffffffffffffffffffff167f4a39dc06d4c0dbc64b70af90fd698a233a518aa5d07e595d983b8c0526c8f7fb868660405162000b8a9291906200181e565b60405180910390a45b5050505050565b600060208202602084010151905092915050565b60008473ffffffffffffffffffffffffffffffffffffffff163b111562000d69578373ffffffffffffffffffffffffffffffffffffffff1663f23a6e6187878686866040518663ffffffff1660e01b815260040162000c12959493929190620018b6565b6020604051808303816000875af192505050801562000c5157506040513d601f19601f8201168201806040525081019062000c4e919062001977565b60015b62000cdb573d806000811462000c84576040519150601f19603f3d011682016040523d82523d6000602084013e62000c89565b606091505b50600081510362000cd357846040517f57f447ce00000000000000000000000000000000000000000000000000000000815260040162000cca91906200115d565b60405180910390fd5b805181602001fd5b63f23a6e6160e01b7bffffffffffffffffffffffffffffffffffffffffffffffffffffffff1916817bffffffffffffffffffffffffffffffffffffffffffffffffffffffff19161462000d6757846040517f57f447ce00000000000000000000000000000000000000000000000000000000815260040162000d5e91906200115d565b60405180910390fd5b505b505050505050565b60008473ffffffffffffffffffffffffffffffffffffffff163b111562000f2c578373ffffffffffffffffffffffffffffffffffffffff1663bc197c8187878686866040518663ffffffff1660e01b815260040162000dd5959493929190620019a9565b6020604051808303816000875af192505050801562000e1457506040513d601f19601f8201168201806040525081019062000e11919062001977565b60015b62000e9e573d806000811462000e47576040519150601f19603f3d011682016040523d82523d6000602084013e62000e4c565b606091505b50600081510362000e9657846040517f57f447ce00000000000000000000000000000000000000000000000000000000815260040162000e8d91906200115d565b60405180910390fd5b805181602001fd5b63bc197c8160e01b7bffffffffffffffffffffffffffffffffffffffffffffffffffffffff1916817bffffffffffffffffffffffffffffffffffffffffffffffffffffffff19161462000f2a57846040517f57f447ce00000000000000000000000000000000000000000000000000000000815260040162000f2191906200115d565b60405180910390fd5b505b505050505050565b6000604051905090565b600080fd5b600080fd5b600080fd5b600080fd5b6000601f19601f8301169050919050565b7f4e487b7100000000000000000000000000000000000000000000000000000000600052604160045260246000fd5b62000f9d8262000f52565b810181811067ffffffffffffffff8211171562000fbf5762000fbe62000f63565b5b80604052505050565b600062000fd462000f34565b905062000fe2828262000f92565b919050565b600067ffffffffffffffff82111562001005576200100462000f63565b5b620010108262000f52565b9050602081019050919050565b60005b838110156200103d57808201518184015260208101905062001020565b60008484015250505050565b6000620010606200105a8462000fe7565b62000fc8565b9050828152602081018484840111156200107f576200107e62000f4d565b5b6200108c8482856200101d565b509392505050565b600082601f830112620010ac57620010ab62000f48565b5b8151620010be84826020860162001049565b91505092915050565b600060208284031215620010e057620010df62000f3e565b5b600082015167ffffffffffffffff81111562001101576200110062000f43565b5b6200110f8482850162001094565b91505092915050565b600073ffffffffffffffffffffffffffffffffffffffff82169050919050565b6000620011458262001118565b9050919050565b620011578162001138565b82525050565b60006020820190506200117460008301846200114c565b92915050565b600081519050919050565b7f4e487b7100000000000000000000000000000000000000000000000000000000600052602260045260246000fd5b60006002820490506001821680620011cd57607f821691505b602082108103620011e357620011e262001185565b5b50919050565b60008190508160005260206000209050919050565b60006020601f8301049050919050565b600082821b905092915050565b6000600883026200124d7fffffffffffffffffffffffffffffffffffffffffffffffffffffffffffffffff826200120e565b6200125986836200120e565b95508019841693508086168417925050509392505050565b6000819050919050565b6000819050919050565b6000620012a6620012a06200129a8462001271565b6200127b565b62001271565b9050919050565b6000819050919050565b620012c28362001285565b620012da620012d182620012ad565b8484546200121b565b825550505050565b600090565b620012f1620012e2565b620012fe818484620012b7565b505050565b5b8181101562001326576200131a600082620012e7565b60018101905062001304565b5050565b601f82111562001375576200133f81620011e9565b6200134a84620011fe565b810160208510156200135a578190505b620013726200136985620011fe565b83018262001303565b50505b505050565b600082821c905092915050565b60006200139a600019846008026200137a565b1980831691505092915050565b6000620013b5838362001387565b9150826002028217905092915050565b620013d0826200117a565b67ffffffffffffffff811115620013ec57620013eb62000f63565b5b620013f88254620011b4565b620014058282856200132a565b600060209050601f8311600181146200143d576000841562001428578287015190505b620014348582620013a7565b865550620014a4565b601f1984166200144d86620011e9565b60005b82811015620014775784890151825560018201915060208501945060208101905062001450565b8683101562001497578489015162001493601f89168262001387565b8355505b6001600288020188555050505b505050505050565b600082825260208201905092915050565b7f4d696e74207175616e74697479206d757374206265203e203000000000000000600082015250565b6000620014f5601983620014ac565b91506200150282620014bd565b602082019050919050565b600060208201905081810360008301526200152881620014e6565b9050919050565b7f45786365656473206d6178696d756d20746f6b656e20737570706c7900000000600082015250565b600062001567601c83620014ac565b915062001574826200152f565b602082019050919050565b600060208201905081810360008301526200159a8162001558565b9050919050565b7f5072696365206d757374206265203e3d20300000000000000000000000000000600082015250565b6000620015d9601283620014ac565b9150620015e682620015a1565b602082019050919050565b600060208201905081810360008301526200160c81620015ca565b9050919050565b6000819050919050565b620016288162001613565b82525050565b60006040820190506200164560008301856200114c565b6200165460208301846200161d565b9392505050565b620016668162001271565b82525050565b60006040820190506200168360008301856200165b565b6200169260208301846200165b565b9392505050565b6000608082019050620016b060008301876200114c565b620016bf60208301866200165b565b620016ce60408301856200165b565b620016dd60608301846200165b565b95945050505050565b7f4e487b7100000000000000000000000000000000000000000000000000000000600052601160045260246000fd5b6000620017228262001271565b91506200172f8362001271565b92508282019050808211156200174a5762001749620016e6565b5b92915050565b600081519050919050565b600082825260208201905092915050565b6000819050602082019050919050565b620017878162001271565b82525050565b60006200179b83836200177c565b60208301905092915050565b6000602082019050919050565b6000620017c18262001750565b620017cd81856200175b565b9350620017da836200176c565b8060005b8381101562001811578151620017f588826200178d565b97506200180283620017a7565b925050600181019050620017de565b5085935050505092915050565b600060408201905081810360008301526200183a8185620017b4565b90508181036020830152620018508184620017b4565b90509392505050565b600081519050919050565b600082825260208201905092915050565b6000620018828262001859565b6200188e818562001864565b9350620018a08185602086016200101d565b620018ab8162000f52565b840191505092915050565b600060a082019050620018cd60008301886200114c565b620018dc60208301876200114c565b620018eb60408301866200165b565b620018fa60608301856200165b565b81810360808301526200190e818462001875565b90509695505050505050565b60007fffffffff0000000000000000000000000000000000000000000000000000000082169050919050565b62001951816200191a565b81146200195d57600080fd5b50565b600081519050620019718162001946565b92915050565b60006020828403121562001990576200198f62000f3e565b5b6000620019a08482850162001960565b91505092915050565b600060a082019050620019c060008301886200114c565b620019cf60208301876200114c565b8181036040830152620019e38186620017b4565b90508181036060830152620019f98185620017b4565b9050818103608083015262001a0f818462001875565b90509695505050505050565b613ab28062001a2b6000396000f3fe60806040526004361061019b5760003560e01c80637402ba96116100ec578063d53913931161008a578063e5afe3e611610064578063e5afe3e614610602578063e985e9c51461063f578063f242432a1461067c578063f2fde38b146106a55761019b565b8063d539139314610583578063d547741f146105ae578063d9a19635146105d75761019b565b8063a217fddf116100c6578063a217fddf146104c9578063a22cb465146104f4578063a574cea41461051d578063c6e64e531461055a5761019b565b80637402ba96146104245780638da5cb5b1461046157806391d148541461048c5761019b565b80632693ebf21161015957806332cb6b0c1161013357806332cb6b0c1461037c57806336568abe146103a75780634e1273f4146103d0578063715018a61461040d5761019b565b80632693ebf2146102ed5780632eb2c2d61461032a5780632f2ff15d146103535761019b565b8062fdd58e146101a057806301ffc9a7146101dd578063057466ea1461021a5780630e89341c146102365780631d90927614610273578063248a9ca3146102b0575b600080fd5b3480156101ac57600080fd5b506101c760048036038101906101c29190612589565b6106ce565b6040516101d491906125d8565b60405180910390f35b3480156101e957600080fd5b5061020460048036038101906101ff919061264b565b610728565b6040516102119190612693565b60405180910390f35b610234600480360381019061022f91906126ae565b61073a565b005b34801561024257600080fd5b5061025d600480360381019061025891906126ee565b6108b3565b60405161026a91906127ab565b60405180910390f35b34801561027f57600080fd5b5061029a600480360381019061029591906126ee565b610947565b6040516102a791906127ab565b60405180910390f35b3480156102bc57600080fd5b506102d760048036038101906102d29190612803565b6109e7565b6040516102e4919061283f565b60405180910390f35b3480156102f957600080fd5b50610314600480360381019061030f91906126ee565b610a07565b60405161032191906125d8565b60405180910390f35b34801561033657600080fd5b50610351600480360381019061034c9190612a57565b610a1f565b005b34801561035f57600080fd5b5061037a60048036038101906103759190612b26565b610ac7565b005b34801561038857600080fd5b50610391610ae9565b60405161039e91906125d8565b60405180910390f35b3480156103b357600080fd5b506103ce60048036038101906103c99190612b26565b610aee565b005b3480156103dc57600080fd5b506103f760048036038101906103f29190612c29565b610b69565b6040516104049190612d5f565b60405180910390f35b34801561041957600080fd5b50610422610c72565b005b34801561043057600080fd5b5061044b600480360381019061044691906126ee565b610c86565b60405161045891906125d8565b60405180910390f35b34801561046d57600080fd5b50610476610c9e565b6040516104839190612d90565b60405180910390f35b34801561049857600080fd5b506104b360048036038101906104ae9190612b26565b610cc8565b6040516104c09190612693565b60405180910390f35b3480156104d557600080fd5b506104de610d33565b6040516104eb919061283f565b60405180910390f35b34801561050057600080fd5b5061051b60048036038101906105169190612dd7565b610d3a565b005b34801561052957600080fd5b50610544600480360381019061053f91906126ee565b610d50565b60405161055191906127ab565b60405180910390f35b34801561056657600080fd5b50610581600480360381019061057c9190612eb8565b610df5565b005b34801561058f57600080fd5b50610598610fbb565b6040516105a5919061283f565b60405180910390f35b3480156105ba57600080fd5b506105d560048036038101906105d09190612b26565b610fdf565b005b3480156105e357600080fd5b506105ec611001565b6040516105f991906127ab565b60405180910390f35b34801561060e57600080fd5b50610629600480360381019061062491906126ee565b61117c565b60405161063691906125d8565b60405180910390f35b34801561064b57600080fd5b5061066660048036038101906106619190612f27565b611194565b6040516106739190612693565b60405180910390f35b34801561068857600080fd5b506106a3600480360381019061069e9190612f67565b611228565b005b3480156106b157600080fd5b506106cc60048036038101906106c79190612ffe565b6112d0565b005b600080600083815260200190815260200160002060008473ffffffffffffffffffffffffffffffffffffffff1673ffffffffffffffffffffffffffffffffffffffff16815260200190815260200160002054905092915050565b600061073382611356565b9050919050565b806006600084815260200190815260200160002054610759919061305a565b34101561079b576040517f08c379a0000000000000000000000000000000000000000000000000000000008152600401610792906130e8565b60405180910390fd5b600860008381526020019081526020016000205460076000848152602001908152602001600020546107cd9190613108565b81111561080f576040517f08c379a000000000000000000000000000000000000000000000000000000000815260040161080690613188565b60405180910390fd5b61082b30338484604051806020016040528060008152506113d0565b80600860008481526020019081526020016000205461084a91906131a8565b6008600084815260200190815260200160002081905550610869610c9e565b73ffffffffffffffffffffffffffffffffffffffff166108fc349081150290604051600060405180830381858888f193505050501580156108ae573d6000803e3d6000fd5b505050565b6060600280546108c29061320b565b80601f01602080910402602001604051908101604052809291908181526020018280546108ee9061320b565b801561093b5780601f106109105761010080835404028352916020019161093b565b820191906000526020600020905b81548152906001019060200180831161091e57829003601f168201915b50505050509050919050565b600960205280600052604060002060009150905080546109669061320b565b80601f01602080910402602001604051908101604052809291908181526020018280546109929061320b565b80156109df5780601f106109b4576101008083540402835291602001916109df565b820191906000526020600020905b8154815290600101906020018083116109c257829003601f168201915b505050505081565b600060036000838152602001908152602001600020600101549050919050565b60076020528060005260406000206000915090505481565b6000610a296114db565b90508073ffffffffffffffffffffffffffffffffffffffff168673ffffffffffffffffffffffffffffffffffffffff1614158015610a6e5750610a6c8682611194565b155b15610ab25780866040517fe237d922000000000000000000000000000000000000000000000000000000008152600401610aa992919061323c565b60405180910390fd5b610abf86868686866114e3565b505050505050565b610ad0826109e7565b610ad9816115db565b610ae383836115ef565b50505050565b606481565b610af66114db565b73ffffffffffffffffffffffffffffffffffffffff168173ffffffffffffffffffffffffffffffffffffffff1614610b5a576040517f6697b23200000000000000000000000000000000000000000000000000000000815260040160405180910390fd5b610b6482826116e1565b505050565b60608151835114610bb557815183516040517f5b059991000000000000000000000000000000000000000000000000000000008152600401610bac929190613265565b60405180910390fd5b6000835167ffffffffffffffff811115610bd257610bd161285f565b5b604051908082528060200260200182016040528015610c005781602001602082028036833780820191505090505b50905060005b8451811015610c6757610c3d610c2582876117d490919063ffffffff16565b610c3883876117e890919063ffffffff16565b6106ce565b828281518110610c5057610c4f61328e565b5b602002602001018181525050806001019050610c06565b508091505092915050565b610c7a6117fc565b610c846000611883565b565b60086020528060005260406000206000915090505481565b6000600460009054906101000a900473ffffffffffffffffffffffffffffffffffffffff16905090565b60006003600084815260200190815260200160002060000160008373ffffffffffffffffffffffffffffffffffffffff1673ffffffffffffffffffffffffffffffffffffffff16815260200190815260200160002060009054906101000a900460ff16905092915050565b6000801b81565b610d4c610d456114db565b8383611949565b5050565b6060600960008381526020019081526020016000208054610d709061320b565b80601f0160208091040260200160405190810160405280929190818152602001828054610d9c9061320b565b8015610de95780601f10610dbe57610100808354040283529160200191610de9565b820191906000526020600020905b815481529060010190602001808311610dcc57829003601f168201915b50505050509050919050565b7f9f2df0fed2c77648de5860a4cc508cd0818c85b8b8a1ab4ceeef8d981c8956a6610e1f816115db565b60008411610e62576040517f08c379a0000000000000000000000000000000000000000000000000000000008152600401610e5990613309565b60405180910390fd5b6064841115610ea6576040517f08c379a0000000000000000000000000000000000000000000000000000000008152600401610e9d90613375565b60405180910390fd5b6000831015610eea576040517f08c379a0000000000000000000000000000000000000000000000000000000008152600401610ee1906133e1565b60405180910390fd5b610f0a336005805490508660405180602001604052806000815250611ab9565b82600660006005805490508152602001908152602001600020819055508360076000600580549050815260200190815260200160002081905550600060086000600580549050815260200190815260200160002081905550816009600060058054905081526020019081526020016000209081610f8791906135ad565b5060058080549050908060018154018082558091505060019003906000526020600020016000909190919091505550505050565b7f9f2df0fed2c77648de5860a4cc508cd0818c85b8b8a1ab4ceeef8d981c8956a681565b610fe8826109e7565b610ff1816115db565b610ffb83836116e1565b50505050565b6060600060405180602001604052806000815250905060005b60058054905081101561115257600081036110f05760096000600583815481106110475761104661328e565b5b90600052602060002001548152602001908152602001600020805461106b9061320b565b80601f01602080910402602001604051908101604052809291908181526020018280546110979061320b565b80156110e45780601f106110b9576101008083540402835291602001916110e4565b820191906000526020600020905b8154815290600101906020018083116110c757829003601f168201915b50505050509150611145565b8160096000600584815481106111095761110861328e565b5b9060005260206000200154815260200190815260200160002060405160200161113392919061378a565b60405160208183030381529060405291505b808060010191505061101a565b50806040516020016111649190613851565b60405160208183030381529060405290508091505090565b60066020528060005260406000206000915090505481565b6000600160008473ffffffffffffffffffffffffffffffffffffffff1673ffffffffffffffffffffffffffffffffffffffff16815260200190815260200160002060008373ffffffffffffffffffffffffffffffffffffffff1673ffffffffffffffffffffffffffffffffffffffff16815260200190815260200160002060009054906101000a900460ff16905092915050565b60006112326114db565b90508073ffffffffffffffffffffffffffffffffffffffff168673ffffffffffffffffffffffffffffffffffffffff161415801561127757506112758682611194565b155b156112bb5780866040517fe237d9220000000000000000000000000000000000000000000000000000000081526004016112b292919061323c565b60405180910390fd5b6112c886868686866113d0565b505050505050565b6112d86117fc565b600073ffffffffffffffffffffffffffffffffffffffff168173ffffffffffffffffffffffffffffffffffffffff160361134a5760006040517f1e4fbdf70000000000000000000000000000000000000000000000000000000081526004016113419190612d90565b60405180910390fd5b61135381611883565b50565b60007f7965db0b000000000000000000000000000000000000000000000000000000007bffffffffffffffffffffffffffffffffffffffffffffffffffffffff1916827bffffffffffffffffffffffffffffffffffffffffffffffffffffffff191614806113c957506113c882611b52565b5b9050919050565b600073ffffffffffffffffffffffffffffffffffffffff168473ffffffffffffffffffffffffffffffffffffffff16036114425760006040517f57f447ce0000000000000000000000000000000000000000000000000000000081526004016114399190612d90565b60405180910390fd5b600073ffffffffffffffffffffffffffffffffffffffff168573ffffffffffffffffffffffffffffffffffffffff16036114b45760006040517f01a835140000000000000000000000000000000000000000000000000000000081526004016114ab9190612d90565b60405180910390fd5b6000806114c18585611c34565b915091506114d28787848487611c64565b50505050505050565b600033905090565b600073ffffffffffffffffffffffffffffffffffffffff168473ffffffffffffffffffffffffffffffffffffffff16036115555760006040517f57f447ce00000000000000000000000000000000000000000000000000000000815260040161154c9190612d90565b60405180910390fd5b600073ffffffffffffffffffffffffffffffffffffffff168573ffffffffffffffffffffffffffffffffffffffff16036115c75760006040517f01a835140000000000000000000000000000000000000000000000000000000081526004016115be9190612d90565b60405180910390fd5b6115d48585858585611c64565b5050505050565b6115ec816115e76114db565b611d16565b50565b60006115fb8383610cc8565b6116d65760016003600085815260200190815260200160002060000160008473ffffffffffffffffffffffffffffffffffffffff1673ffffffffffffffffffffffffffffffffffffffff16815260200190815260200160002060006101000a81548160ff0219169083151502179055506116736114db565b73ffffffffffffffffffffffffffffffffffffffff168273ffffffffffffffffffffffffffffffffffffffff16847f2f8788117e7eff1d82e926ec794901d17c78024a50270940304540a733656f0d60405160405180910390a4600190506116db565b600090505b92915050565b60006116ed8383610cc8565b156117c95760006003600085815260200190815260200160002060000160008473ffffffffffffffffffffffffffffffffffffffff1673ffffffffffffffffffffffffffffffffffffffff16815260200190815260200160002060006101000a81548160ff0219169083151502179055506117666114db565b73ffffffffffffffffffffffffffffffffffffffff168273ffffffffffffffffffffffffffffffffffffffff16847ff6391f5c32d9c69d2a47ea670b442974b53935d1edc7fd64eb21e047a839171b60405160405180910390a4600190506117ce565b600090505b92915050565b600060208202602084010151905092915050565b600060208202602084010151905092915050565b6118046114db565b73ffffffffffffffffffffffffffffffffffffffff16611822610c9e565b73ffffffffffffffffffffffffffffffffffffffff1614611881576118456114db565b6040517f118cdaa70000000000000000000000000000000000000000000000000000000081526004016118789190612d90565b60405180910390fd5b565b6000600460009054906101000a900473ffffffffffffffffffffffffffffffffffffffff16905081600460006101000a81548173ffffffffffffffffffffffffffffffffffffffff021916908373ffffffffffffffffffffffffffffffffffffffff1602179055508173ffffffffffffffffffffffffffffffffffffffff168173ffffffffffffffffffffffffffffffffffffffff167f8be0079c531659141344cd1fd0a4f28419497f9722a3daafe3b4186f6b6457e060405160405180910390a35050565b600073ffffffffffffffffffffffffffffffffffffffff168273ffffffffffffffffffffffffffffffffffffffff16036119bb5760006040517fced3e1000000000000000000000000000000000000000000000000000000000081526004016119b29190612d90565b60405180910390fd5b80600160008573ffffffffffffffffffffffffffffffffffffffff1673ffffffffffffffffffffffffffffffffffffffff16815260200190815260200160002060008473ffffffffffffffffffffffffffffffffffffffff1673ffffffffffffffffffffffffffffffffffffffff16815260200190815260200160002060006101000a81548160ff0219169083151502179055508173ffffffffffffffffffffffffffffffffffffffff168373ffffffffffffffffffffffffffffffffffffffff167f17307eab39ab6107e8899845ad3d59bd9653f200f220920489ca2b5937696c3183604051611aac9190612693565b60405180910390a3505050565b600073ffffffffffffffffffffffffffffffffffffffff168473ffffffffffffffffffffffffffffffffffffffff1603611b2b5760006040517f57f447ce000000000000000000000000000000000000000000000000000000008152600401611b229190612d90565b60405180910390fd5b600080611b388585611c34565b91509150611b4a600087848487611c64565b505050505050565b60007fd9b67a26000000000000000000000000000000000000000000000000000000007bffffffffffffffffffffffffffffffffffffffffffffffffffffffff1916827bffffffffffffffffffffffffffffffffffffffffffffffffffffffff19161480611c1d57507f0e89341c000000000000000000000000000000000000000000000000000000007bffffffffffffffffffffffffffffffffffffffffffffffffffffffff1916827bffffffffffffffffffffffffffffffffffffffffffffffffffffffff1916145b80611c2d5750611c2c82611d67565b5b9050919050565b60608060405191506001825283602083015260408201905060018152826020820152604081016040529250929050565b611c7085858585611dd1565b600073ffffffffffffffffffffffffffffffffffffffff168473ffffffffffffffffffffffffffffffffffffffff1614611d0f576000611cae6114db565b90506001845103611cfe576000611ccf6000866117e890919063ffffffff16565b90506000611ce76000866117e890919063ffffffff16565b9050611cf7838989858589612179565b5050611d0d565b611d0c81878787878761232d565b5b505b5050505050565b611d208282610cc8565b611d635780826040517fe2517d3f000000000000000000000000000000000000000000000000000000008152600401611d5a92919061387e565b60405180910390fd5b5050565b60007f01ffc9a7000000000000000000000000000000000000000000000000000000007bffffffffffffffffffffffffffffffffffffffffffffffffffffffff1916827bffffffffffffffffffffffffffffffffffffffffffffffffffffffff1916149050919050565b8051825114611e1b57815181516040517f5b059991000000000000000000000000000000000000000000000000000000008152600401611e12929190613265565b60405180910390fd5b6000611e256114db565b905060005b8351811015612034576000611e4882866117e890919063ffffffff16565b90506000611e5f83866117e890919063ffffffff16565b9050600073ffffffffffffffffffffffffffffffffffffffff168873ffffffffffffffffffffffffffffffffffffffff1614611f8c57600080600084815260200190815260200160002060008a73ffffffffffffffffffffffffffffffffffffffff1673ffffffffffffffffffffffffffffffffffffffff16815260200190815260200160002054905081811015611f3457888183856040517f03dee4c5000000000000000000000000000000000000000000000000000000008152600401611f2b94939291906138a7565b60405180910390fd5b81810360008085815260200190815260200160002060008b73ffffffffffffffffffffffffffffffffffffffff1673ffffffffffffffffffffffffffffffffffffffff16815260200190815260200160002081905550505b600073ffffffffffffffffffffffffffffffffffffffff168773ffffffffffffffffffffffffffffffffffffffff1614612027578060008084815260200190815260200160002060008973ffffffffffffffffffffffffffffffffffffffff1673ffffffffffffffffffffffffffffffffffffffff168152602001908152602001600020600082825461201f91906131a8565b925050819055505b5050806001019050611e2a565b5060018351036120f35760006120546000856117e890919063ffffffff16565b9050600061206c6000856117e890919063ffffffff16565b90508573ffffffffffffffffffffffffffffffffffffffff168773ffffffffffffffffffffffffffffffffffffffff168473ffffffffffffffffffffffffffffffffffffffff167fc3d58168c5ae7397731d063d5bbf3d657854427343f4c083240f7aacaa2d0f6285856040516120e4929190613265565b60405180910390a45050612172565b8373ffffffffffffffffffffffffffffffffffffffff168573ffffffffffffffffffffffffffffffffffffffff168273ffffffffffffffffffffffffffffffffffffffff167f4a39dc06d4c0dbc64b70af90fd698a233a518aa5d07e595d983b8c0526c8f7fb86866040516121699291906138ec565b60405180910390a45b5050505050565b60008473ffffffffffffffffffffffffffffffffffffffff163b1115612325578373ffffffffffffffffffffffffffffffffffffffff1663f23a6e6187878686866040518663ffffffff1660e01b81526004016121da959493929190613978565b6020604051808303816000875af192505050801561221657506040513d601f19601f8201168201806040525081019061221391906139e7565b60015b61229a573d8060008114612246576040519150601f19603f3d011682016040523d82523d6000602084013e61224b565b606091505b50600081510361229257846040517f57f447ce0000000000000000000000000000000000000000000000000000000081526004016122899190612d90565b60405180910390fd5b805181602001fd5b63f23a6e6160e01b7bffffffffffffffffffffffffffffffffffffffffffffffffffffffff1916817bffffffffffffffffffffffffffffffffffffffffffffffffffffffff19161461232357846040517f57f447ce00000000000000000000000000000000000000000000000000000000815260040161231a9190612d90565b60405180910390fd5b505b505050505050565b60008473ffffffffffffffffffffffffffffffffffffffff163b11156124d9578373ffffffffffffffffffffffffffffffffffffffff1663bc197c8187878686866040518663ffffffff1660e01b815260040161238e959493929190613a14565b6020604051808303816000875af19250505080156123ca57506040513d601f19601f820116820180604052508101906123c791906139e7565b60015b61244e573d80600081146123fa576040519150601f19603f3d011682016040523d82523d6000602084013e6123ff565b606091505b50600081510361244657846040517f57f447ce00000000000000000000000000000000000000000000000000000000815260040161243d9190612d90565b60405180910390fd5b805181602001fd5b63bc197c8160e01b7bffffffffffffffffffffffffffffffffffffffffffffffffffffffff1916817bffffffffffffffffffffffffffffffffffffffffffffffffffffffff1916146124d757846040517f57f447ce0000000000000000000000000000000000000000000000000000000081526004016124ce9190612d90565b60405180910390fd5b505b505050505050565b6000604051905090565b600080fd5b600080fd5b600073ffffffffffffffffffffffffffffffffffffffff82169050919050565b6000612520826124f5565b9050919050565b61253081612515565b811461253b57600080fd5b50565b60008135905061254d81612527565b92915050565b6000819050919050565b61256681612553565b811461257157600080fd5b50565b6000813590506125838161255d565b92915050565b600080604083850312156125a05761259f6124eb565b5b60006125ae8582860161253e565b92505060206125bf85828601612574565b9150509250929050565b6125d281612553565b82525050565b60006020820190506125ed60008301846125c9565b92915050565b60007fffffffff0000000000000000000000000000000000000000000000000000000082169050919050565b612628816125f3565b811461263357600080fd5b50565b6000813590506126458161261f565b92915050565b600060208284031215612661576126606124eb565b5b600061266f84828501612636565b91505092915050565b60008115159050919050565b61268d81612678565b82525050565b60006020820190506126a86000830184612684565b92915050565b600080604083850312156126c5576126c46124eb565b5b60006126d385828601612574565b92505060206126e485828601612574565b9150509250929050565b600060208284031215612704576127036124eb565b5b600061271284828501612574565b91505092915050565b600081519050919050565b600082825260208201905092915050565b60005b8381101561275557808201518184015260208101905061273a565b60008484015250505050565b6000601f19601f8301169050919050565b600061277d8261271b565b6127878185612726565b9350612797818560208601612737565b6127a081612761565b840191505092915050565b600060208201905081810360008301526127c58184612772565b905092915050565b6000819050919050565b6127e0816127cd565b81146127eb57600080fd5b50565b6000813590506127fd816127d7565b92915050565b600060208284031215612819576128186124eb565b5b6000612827848285016127ee565b91505092915050565b612839816127cd565b82525050565b60006020820190506128546000830184612830565b92915050565b600080fd5b7f4e487b7100000000000000000000000000000000000000000000000000000000600052604160045260246000fd5b61289782612761565b810181811067ffffffffffffffff821117156128b6576128b561285f565b5b80604052505050565b60006128c96124e1565b90506128d5828261288e565b919050565b600067ffffffffffffffff8211156128f5576128f461285f565b5b602082029050602081019050919050565b600080fd5b600061291e612919846128da565b6128bf565b9050808382526020820190506020840283018581111561294157612940612906565b5b835b8181101561296a57806129568882612574565b845260208401935050602081019050612943565b5050509392505050565b600082601f8301126129895761298861285a565b5b813561299984826020860161290b565b91505092915050565b600080fd5b600067ffffffffffffffff8211156129c2576129c161285f565b5b6129cb82612761565b9050602081019050919050565b82818337600083830152505050565b60006129fa6129f5846129a7565b6128bf565b905082815260208101848484011115612a1657612a156129a2565b5b612a218482856129d8565b509392505050565b600082601f830112612a3e57612a3d61285a565b5b8135612a4e8482602086016129e7565b91505092915050565b600080600080600060a08688031215612a7357612a726124eb565b5b6000612a818882890161253e565b9550506020612a928882890161253e565b945050604086013567ffffffffffffffff811115612ab357612ab26124f0565b5b612abf88828901612974565b935050606086013567ffffffffffffffff811115612ae057612adf6124f0565b5b612aec88828901612974565b925050608086013567ffffffffffffffff811115612b0d57612b0c6124f0565b5b612b1988828901612a29565b9150509295509295909350565b60008060408385031215612b3d57612b3c6124eb565b5b6000612b4b858286016127ee565b9250506020612b5c8582860161253e565b9150509250929050565b600067ffffffffffffffff821115612b8157612b8061285f565b5b602082029050602081019050919050565b6000612ba5612ba084612b66565b6128bf565b90508083825260208201905060208402830185811115612bc857612bc7612906565b5b835b81811015612bf15780612bdd888261253e565b845260208401935050602081019050612bca565b5050509392505050565b600082601f830112612c1057612c0f61285a565b5b8135612c20848260208601612b92565b91505092915050565b60008060408385031215612c4057612c3f6124eb565b5b600083013567ffffffffffffffff811115612c5e57612c5d6124f0565b5b612c6a85828601612bfb565b925050602083013567ffffffffffffffff811115612c8b57612c8a6124f0565b5b612c9785828601612974565b9150509250929050565b600081519050919050565b600082825260208201905092915050565b6000819050602082019050919050565b612cd681612553565b82525050565b6000612ce88383612ccd565b60208301905092915050565b6000602082019050919050565b6000612d0c82612ca1565b612d168185612cac565b9350612d2183612cbd565b8060005b83811015612d52578151612d398882612cdc565b9750612d4483612cf4565b925050600181019050612d25565b5085935050505092915050565b60006020820190508181036000830152612d798184612d01565b905092915050565b612d8a81612515565b82525050565b6000602082019050612da56000830184612d81565b92915050565b612db481612678565b8114612dbf57600080fd5b50565b600081359050612dd181612dab565b92915050565b60008060408385031215612dee57612ded6124eb565b5b6000612dfc8582860161253e565b9250506020612e0d85828601612dc2565b9150509250929050565b600067ffffffffffffffff821115612e3257612e3161285f565b5b612e3b82612761565b9050602081019050919050565b6000612e5b612e5684612e17565b6128bf565b905082815260208101848484011115612e7757612e766129a2565b5b612e828482856129d8565b509392505050565b600082601f830112612e9f57612e9e61285a565b5b8135612eaf848260208601612e48565b91505092915050565b600080600060608486031215612ed157612ed06124eb565b5b6000612edf86828701612574565b9350506020612ef086828701612574565b925050604084013567ffffffffffffffff811115612f1157612f106124f0565b5b612f1d86828701612e8a565b9150509250925092565b60008060408385031215612f3e57612f3d6124eb565b5b6000612f4c8582860161253e565b9250506020612f5d8582860161253e565b9150509250929050565b600080600080600060a08688031215612f8357612f826124eb565b5b6000612f918882890161253e565b9550506020612fa28882890161253e565b9450506040612fb388828901612574565b9350506060612fc488828901612574565b925050608086013567ffffffffffffffff811115612fe557612fe46124f0565b5b612ff188828901612a29565b9150509295509295909350565b600060208284031215613014576130136124eb565b5b60006130228482850161253e565b91505092915050565b7f4e487b7100000000000000000000000000000000000000000000000000000000600052601160045260246000fd5b600061306582612553565b915061307083612553565b925082820261307e81612553565b915082820484148315176130955761309461302b565b5b5092915050565b7f45746865722073656e74206973206e6f7420636f727265637400000000000000600082015250565b60006130d2601983612726565b91506130dd8261309c565b602082019050919050565b60006020820190508181036000830152613101816130c5565b9050919050565b600061311382612553565b915061311e83612553565b92508282039050818111156131365761313561302b565b5b92915050565b7f43616e2774206275792074686174206d616e7900000000000000000000000000600082015250565b6000613172601383612726565b915061317d8261313c565b602082019050919050565b600060208201905081810360008301526131a181613165565b9050919050565b60006131b382612553565b91506131be83612553565b92508282019050808211156131d6576131d561302b565b5b92915050565b7f4e487b7100000000000000000000000000000000000000000000000000000000600052602260045260246000fd5b6000600282049050600182168061322357607f821691505b602082108103613236576132356131dc565b5b50919050565b60006040820190506132516000830185612d81565b61325e6020830184612d81565b9392505050565b600060408201905061327a60008301856125c9565b61328760208301846125c9565b9392505050565b7f4e487b7100000000000000000000000000000000000000000000000000000000600052603260045260246000fd5b7f4d696e74207175616e74697479206d757374206265203e203000000000000000600082015250565b60006132f3601983612726565b91506132fe826132bd565b602082019050919050565b60006020820190508181036000830152613322816132e6565b9050919050565b7f45786365656473206d6178696d756d20746f6b656e20737570706c7900000000600082015250565b600061335f601c83612726565b915061336a82613329565b602082019050919050565b6000602082019050818103600083015261338e81613352565b9050919050565b7f5072696365206d757374206265203e3d20300000000000000000000000000000600082015250565b60006133cb601283612726565b91506133d682613395565b602082019050919050565b600060208201905081810360008301526133fa816133be565b9050919050565b60008190508160005260206000209050919050565b60006020601f8301049050919050565b600082821b905092915050565b6000600883026134637fffffffffffffffffffffffffffffffffffffffffffffffffffffffffffffffff82613426565b61346d8683613426565b95508019841693508086168417925050509392505050565b6000819050919050565b60006134aa6134a56134a084612553565b613485565b612553565b9050919050565b6000819050919050565b6134c48361348f565b6134d86134d0826134b1565b848454613433565b825550505050565b600090565b6134ed6134e0565b6134f88184846134bb565b505050565b5b8181101561351c576135116000826134e5565b6001810190506134fe565b5050565b601f8211156135615761353281613401565b61353b84613416565b8101602085101561354a578190505b61355e61355685613416565b8301826134fd565b50505b505050565b600082821c905092915050565b600061358460001984600802613566565b1980831691505092915050565b600061359d8383613573565b9150826002028217905092915050565b6135b68261271b565b67ffffffffffffffff8111156135cf576135ce61285f565b5b6135d9825461320b565b6135e4828285613520565b600060209050601f8311600181146136175760008415613605578287015190505b61360f8582613591565b865550613677565b601f19841661362586613401565b60005b8281101561364d57848901518255600182019150602085019450602081019050613628565b8683101561366a5784890151613666601f891682613573565b8355505b6001600288020188555050505b505050505050565b600081905092915050565b60006136958261271b565b61369f818561367f565b93506136af818560208601612737565b80840191505092915050565b7f2c20000000000000000000000000000000000000000000000000000000000000600082015250565b60006136f160028361367f565b91506136fc826136bb565b600282019050919050565b600081546137148161320b565b61371e818661367f565b94506001821660008114613739576001811461374e57613781565b60ff1983168652811515820286019350613781565b61375785613401565b60005b838110156137795781548189015260018201915060208101905061375a565b838801955050505b50505092915050565b6000613796828561368a565b91506137a1826136e4565b91506137ad8284613707565b91508190509392505050565b7f5b00000000000000000000000000000000000000000000000000000000000000600082015250565b60006137ef60018361367f565b91506137fa826137b9565b600182019050919050565b7f5d00000000000000000000000000000000000000000000000000000000000000600082015250565b600061383b60018361367f565b915061384682613805565b600182019050919050565b600061385c826137e2565b9150613868828461368a565b91506138738261382e565b915081905092915050565b60006040820190506138936000830185612d81565b6138a06020830184612830565b9392505050565b60006080820190506138bc6000830187612d81565b6138c960208301866125c9565b6138d660408301856125c9565b6138e360608301846125c9565b95945050505050565b600060408201905081810360008301526139068185612d01565b9050818103602083015261391a8184612d01565b90509392505050565b600081519050919050565b600082825260208201905092915050565b600061394a82613923565b613954818561392e565b9350613964818560208601612737565b61396d81612761565b840191505092915050565b600060a08201905061398d6000830188612d81565b61399a6020830187612d81565b6139a760408301866125c9565b6139b460608301856125c9565b81810360808301526139c6818461393f565b90509695505050505050565b6000815190506139e18161261f565b92915050565b6000602082840312156139fd576139fc6124eb565b5b6000613a0b848285016139d2565b91505092915050565b600060a082019050613a296000830188612d81565b613a366020830187612d81565b8181036040830152613a488186612d01565b90508181036060830152613a5c8185612d01565b90508181036080830152613a70818461393f565b9050969550505050505056fea26469706673582212203ddd13a0e84370b72f1fe0212e389273b56b7c98c9e65d6ca89e5a19ffacf47d64736f6c634300081800337b226e616d65223a2250737963686564656c696320447265616d73222c202264657363223a224120537475647920696e2059656c6c6f77222c22696d6755524c223a2268747470733a2f2f77686974652d66617363696e6174696e672d63617264696e616c2d3839342e6d7970696e6174612e636c6f75642f697066732f516d5864634d6a336967534c48314e534d3237377a53576977637a6b5133627a34636f376f5675734a645034664e227d7b226e616d65223a22537769726c79222c202264657363223a224d69786564205061696e7473204172742050726f6a656374222c22696d6755524c223a2268747470733a2f2f77686974652d66617363696e6174696e672d63617264696e616c2d3839342e6d7970696e6174612e636c6f75642f697066732f516d5864634d6a336967534c48314e534d3237377a53576977637a6b5133627a34636f376f5675734a645034664e227d",
  "linkReferences": {},
  "deployedLinkReferences": {}
}