{
  "_format": "hh-sol-artifact-1",
  "contractName": "MyERC1155Token",
  "sourceName": "contracts/contract.sol",
  "abi": [
    {
      "inputs": [
        {
          "internalType": "string",
          "name": "_uri",
          "type": "string"
        }
      ],
      "stateMutability": "nonpayable",
      "type": "constructor"
    },
    {
      "inputs": [],
      "name": "AccessControlBadConfirmation",
      "type": "error"
    },
    {
      "inputs": [
        {
          "internalType": "address",
          "name": "account",
          "type": "address"
        },
        {
          "internalType": "bytes32",
          "name": "neededRole",
          "type": "bytes32"
        }
      ],
      "name": "AccessControlUnauthorizedAccount",
      "type": "error"
    },
    {
      "inputs": [
        {
          "internalType": "address",
          "name": "sender",
          "type": "address"
        },
        {
          "internalType": "uint256",
          "name": "balance",
          "type": "uint256"
        },
        {
          "internalType": "uint256",
          "name": "needed",
          "type": "uint256"
        },
        {
          "internalType": "uint256",
          "name": "tokenId",
          "type": "uint256"
        }
      ],
      "name": "ERC1155InsufficientBalance",
      "type": "error"
    },
    {
      "inputs": [
        {
          "internalType": "address",
          "name": "approver",
          "type": "address"
        }
      ],
      "name": "ERC1155InvalidApprover",
      "type": "error"
    },
    {
      "inputs": [
        {
          "internalType": "uint256",
          "name": "idsLength",
          "type": "uint256"
        },
        {
          "internalType": "uint256",
          "name": "valuesLength",
          "type": "uint256"
        }
      ],
      "name": "ERC1155InvalidArrayLength",
      "type": "error"
    },
    {
      "inputs": [
        {
          "internalType": "address",
          "name": "operator",
          "type": "address"
        }
      ],
      "name": "ERC1155InvalidOperator",
      "type": "error"
    },
    {
      "inputs": [
        {
          "internalType": "address",
          "name": "receiver",
          "type": "address"
        }
      ],
      "name": "ERC1155InvalidReceiver",
      "type": "error"
    },
    {
      "inputs": [
        {
          "internalType": "address",
          "name": "sender",
          "type": "address"
        }
      ],
      "name": "ERC1155InvalidSender",
      "type": "error"
    },
    {
      "inputs": [
        {
          "internalType": "address",
          "name": "operator",
          "type": "address"
        },
        {
          "internalType": "address",
          "name": "owner",
          "type": "address"
        }
      ],
      "name": "ERC1155MissingApprovalForAll",
      "type": "error"
    },
    {
      "inputs": [
        {
          "internalType": "address",
          "name": "owner",
          "type": "address"
        }
      ],
      "name": "OwnableInvalidOwner",
      "type": "error"
    },
    {
      "inputs": [
        {
          "internalType": "address",
          "name": "account",
          "type": "address"
        }
      ],
      "name": "OwnableUnauthorizedAccount",
      "type": "error"
    },
    {
      "anonymous": false,
      "inputs": [
        {
          "indexed": true,
          "internalType": "address",
          "name": "account",
          "type": "address"
        },
        {
          "indexed": true,
          "internalType": "address",
          "name": "operator",
          "type": "address"
        },
        {
          "indexed": false,
          "internalType": "bool",
          "name": "approved",
          "type": "bool"
        }
      ],
      "name": "ApprovalForAll",
      "type": "event"
    },
    {
      "anonymous": false,
      "inputs": [
        {
          "indexed": true,
          "internalType": "address",
          "name": "previousOwner",
          "type": "address"
        },
        {
          "indexed": true,
          "internalType": "address",
          "name": "newOwner",
          "type": "address"
        }
      ],
      "name": "OwnershipTransferred",
      "type": "event"
    },
    {
      "anonymous": false,
      "inputs": [
        {
          "indexed": true,
          "internalType": "bytes32",
          "name": "role",
          "type": "bytes32"
        },
        {
          "indexed": true,
          "internalType": "bytes32",
          "name": "previousAdminRole",
          "type": "bytes32"
        },
        {
          "indexed": true,
          "internalType": "bytes32",
          "name": "newAdminRole",
          "type": "bytes32"
        }
      ],
      "name": "RoleAdminChanged",
      "type": "event"
    },
    {
      "anonymous": false,
      "inputs": [
        {
          "indexed": true,
          "internalType": "bytes32",
          "name": "role",
          "type": "bytes32"
        },
        {
          "indexed": true,
          "internalType": "address",
          "name": "account",
          "type": "address"
        },
        {
          "indexed": true,
          "internalType": "address",
          "name": "sender",
          "type": "address"
        }
      ],
      "name": "RoleGranted",
      "type": "event"
    },
    {
      "anonymous": false,
      "inputs": [
        {
          "indexed": true,
          "internalType": "bytes32",
          "name": "role",
          "type": "bytes32"
        },
        {
          "indexed": true,
          "internalType": "address",
          "name": "account",
          "type": "address"
        },
        {
          "indexed": true,
          "internalType": "address",
          "name": "sender",
          "type": "address"
        }
      ],
      "name": "RoleRevoked",
      "type": "event"
    },
    {
      "anonymous": false,
      "inputs": [
        {
          "indexed": true,
          "internalType": "address",
          "name": "operator",
          "type": "address"
        },
        {
          "indexed": true,
          "internalType": "address",
          "name": "from",
          "type": "address"
        },
        {
          "indexed": true,
          "internalType": "address",
          "name": "to",
          "type": "address"
        },
        {
          "indexed": false,
          "internalType": "uint256[]",
          "name": "ids",
          "type": "uint256[]"
        },
        {
          "indexed": false,
          "internalType": "uint256[]",
          "name": "values",
          "type": "uint256[]"
        }
      ],
      "name": "TransferBatch",
      "type": "event"
    },
    {
      "anonymous": false,
      "inputs": [
        {
          "indexed": true,
          "internalType": "address",
          "name": "operator",
          "type": "address"
        },
        {
          "indexed": true,
          "internalType": "address",
          "name": "from",
          "type": "address"
        },
        {
          "indexed": true,
          "internalType": "address",
          "name": "to",
          "type": "address"
        },
        {
          "indexed": false,
          "internalType": "uint256",
          "name": "id",
          "type": "uint256"
        },
        {
          "indexed": false,
          "internalType": "uint256",
          "name": "value",
          "type": "uint256"
        }
      ],
      "name": "TransferSingle",
      "type": "event"
    },
    {
      "anonymous": false,
      "inputs": [
        {
          "indexed": false,
          "internalType": "string",
          "name": "value",
          "type": "string"
        },
        {
          "indexed": true,
          "internalType": "uint256",
          "name": "id",
          "type": "uint256"
        }
      ],
      "name": "URI",
      "type": "event"
    },
    {
      "inputs": [],
      "name": "DEFAULT_ADMIN_ROLE",
      "outputs": [
        {
          "internalType": "bytes32",
          "name": "",
          "type": "bytes32"
        }
      ],
      "stateMutability": "view",
      "type": "function"
    },
    {
      "inputs": [],
      "name": "MAX_SUPPLY",
      "outputs": [
        {
          "internalType": "uint256",
          "name": "",
          "type": "uint256"
        }
      ],
      "stateMutability": "view",
      "type": "function"
    },
    {
      "inputs": [],
      "name": "MINTER_ROLE",
      "outputs": [
        {
          "internalType": "bytes32",
          "name": "",
          "type": "bytes32"
        }
      ],
      "stateMutability": "view",
      "type": "function"
    },
    {
      "inputs": [
        {
          "internalType": "address",
          "name": "account",
          "type": "address"
        },
        {
          "internalType": "uint256",
          "name": "id",
          "type": "uint256"
        }
      ],
      "name": "balanceOf",
      "outputs": [
        {
          "internalType": "uint256",
          "name": "",
          "type": "uint256"
        }
      ],
      "stateMutability": "view",
      "type": "function"
    },
    {
      "inputs": [
        {
          "internalType": "address[]",
          "name": "accounts",
          "type": "address[]"
        },
        {
          "internalType": "uint256[]",
          "name": "ids",
          "type": "uint256[]"
        }
      ],
      "name": "balanceOfBatch",
      "outputs": [
        {
          "internalType": "uint256[]",
          "name": "",
          "type": "uint256[]"
        }
      ],
      "stateMutability": "view",
      "type": "function"
    },
    {
      "inputs": [
        {
          "internalType": "uint256",
          "name": "_tokenId",
          "type": "uint256"
        },
        {
          "internalType": "uint256",
          "name": "_amount",
          "type": "uint256"
        }
      ],
      "name": "buyToken",
      "outputs": [],
      "stateMutability": "payable",
      "type": "function"
    },
    {
      "inputs": [],
      "name": "getAllMetadata",
      "outputs": [
        {
          "internalType": "string",
          "name": "",
          "type": "string"
        }
      ],
      "stateMutability": "view",
      "type": "function"
    },
    {
      "inputs": [
        {
          "internalType": "uint256",
          "name": "_tokenId",
          "type": "uint256"
        }
      ],
      "name": "getMetadata",
      "outputs": [
        {
          "internalType": "string",
          "name": "",
          "type": "string"
        }
      ],
      "stateMutability": "view",
      "type": "function"
    },
    {
      "inputs": [
        {
          "internalType": "bytes32",
          "name": "role",
          "type": "bytes32"
        }
      ],
      "name": "getRoleAdmin",
      "outputs": [
        {
          "internalType": "bytes32",
          "name": "",
          "type": "bytes32"
        }
      ],
      "stateMutability": "view",
      "type": "function"
    },
    {
      "inputs": [
        {
          "internalType": "bytes32",
          "name": "role",
          "type": "bytes32"
        },
        {
          "internalType": "address",
          "name": "account",
          "type": "address"
        }
      ],
      "name": "grantRole",
      "outputs": [],
      "stateMutability": "nonpayable",
      "type": "function"
    },
    {
      "inputs": [
        {
          "internalType": "bytes32",
          "name": "role",
          "type": "bytes32"
        },
        {
          "internalType": "address",
          "name": "account",
          "type": "address"
        }
      ],
      "name": "hasRole",
      "outputs": [
        {
          "internalType": "bool",
          "name": "",
          "type": "bool"
        }
      ],
      "stateMutability": "view",
      "type": "function"
    },
    {
      "inputs": [
        {
          "internalType": "address",
          "name": "account",
          "type": "address"
        },
        {
          "internalType": "address",
          "name": "operator",
          "type": "address"
        }
      ],
      "name": "isApprovedForAll",
      "outputs": [
        {
          "internalType": "bool",
          "name": "",
          "type": "bool"
        }
      ],
      "stateMutability": "view",
      "type": "function"
    },
    {
      "inputs": [
        {
          "internalType": "uint256",
          "name": "",
          "type": "uint256"
        }
      ],
      "name": "metaData",
      "outputs": [
        {
          "internalType": "string",
          "name": "",
          "type": "string"
        }
      ],
      "stateMutability": "view",
      "type": "function"
    },
    {
      "inputs": [
        {
          "internalType": "uint256",
          "name": "_tokenId",
          "type": "uint256"
        },
        {
          "internalType": "uint256",
          "name": "_amount",
          "type": "uint256"
        },
        {
          "internalType": "uint256",
          "name": "_price",
          "type": "uint256"
        },
        {
          "internalType": "string",
          "name": "_metadata",
          "type": "string"
        }
      ],
      "name": "mint",
      "outputs": [],
      "stateMutability": "nonpayable",
      "type": "function"
    },
    {
      "inputs": [],
      "name": "owner",
      "outputs": [
        {
          "internalType": "address",
          "name": "",
          "type": "address"
        }
      ],
      "stateMutability": "view",
      "type": "function"
    },
    {
      "inputs": [],
      "name": "renounceOwnership",
      "outputs": [],
      "stateMutability": "nonpayable",
      "type": "function"
    },
    {
      "inputs": [
        {
          "internalType": "bytes32",
          "name": "role",
          "type": "bytes32"
        },
        {
          "internalType": "address",
          "name": "callerConfirmation",
          "type": "address"
        }
      ],
      "name": "renounceRole",
      "outputs": [],
      "stateMutability": "nonpayable",
      "type": "function"
    },
    {
      "inputs": [
        {
          "internalType": "bytes32",
          "name": "role",
          "type": "bytes32"
        },
        {
          "internalType": "address",
          "name": "account",
          "type": "address"
        }
      ],
      "name": "revokeRole",
      "outputs": [],
      "stateMutability": "nonpayable",
      "type": "function"
    },
    {
      "inputs": [
        {
          "internalType": "address",
          "name": "from",
          "type": "address"
        },
        {
          "internalType": "address",
          "name": "to",
          "type": "address"
        },
        {
          "internalType": "uint256[]",
          "name": "ids",
          "type": "uint256[]"
        },
        {
          "internalType": "uint256[]",
          "name": "values",
          "type": "uint256[]"
        },
        {
          "internalType": "bytes",
          "name": "data",
          "type": "bytes"
        }
      ],
      "name": "safeBatchTransferFrom",
      "outputs": [],
      "stateMutability": "nonpayable",
      "type": "function"
    },
    {
      "inputs": [
        {
          "internalType": "address",
          "name": "from",
          "type": "address"
        },
        {
          "internalType": "address",
          "name": "to",
          "type": "address"
        },
        {
          "internalType": "uint256",
          "name": "id",
          "type": "uint256"
        },
        {
          "internalType": "uint256",
          "name": "value",
          "type": "uint256"
        },
        {
          "internalType": "bytes",
          "name": "data",
          "type": "bytes"
        }
      ],
      "name": "safeTransferFrom",
      "outputs": [],
      "stateMutability": "nonpayable",
      "type": "function"
    },
    {
      "inputs": [
        {
          "internalType": "address",
          "name": "operator",
          "type": "address"
        },
        {
          "internalType": "bool",
          "name": "approved",
          "type": "bool"
        }
      ],
      "name": "setApprovalForAll",
      "outputs": [],
      "stateMutability": "nonpayable",
      "type": "function"
    },
    {
      "inputs": [
        {
          "internalType": "bytes4",
          "name": "interfaceId",
          "type": "bytes4"
        }
      ],
      "name": "supportsInterface",
      "outputs": [
        {
          "internalType": "bool",
          "name": "",
          "type": "bool"
        }
      ],
      "stateMutability": "view",
      "type": "function"
    },
    {
      "inputs": [
        {
          "internalType": "uint256",
          "name": "",
          "type": "uint256"
        }
      ],
      "name": "tokenPrices",
      "outputs": [
        {
          "internalType": "uint256",
          "name": "",
          "type": "uint256"
        }
      ],
      "stateMutability": "view",
      "type": "function"
    },
    {
      "inputs": [
        {
          "internalType": "uint256",
          "name": "",
          "type": "uint256"
        }
      ],
      "name": "tokenSupply",
      "outputs": [
        {
          "internalType": "uint256",
          "name": "",
          "type": "uint256"
        }
      ],
      "stateMutability": "view",
      "type": "function"
    },
    {
      "inputs": [
        {
          "internalType": "uint256",
          "name": "",
          "type": "uint256"
        }
      ],
      "name": "tokensSold",
      "outputs": [
        {
          "internalType": "uint256",
          "name": "",
          "type": "uint256"
        }
      ],
      "stateMutability": "view",
      "type": "function"
    },
    {
      "inputs": [
        {
          "internalType": "address",
          "name": "newOwner",
          "type": "address"
        }
      ],
      "name": "transferOwnership",
      "outputs": [],
      "stateMutability": "nonpayable",
      "type": "function"
    },
    {
      "inputs": [
        {
          "internalType": "uint256",
          "name": "",
          "type": "uint256"
        }
      ],
      "name": "uri",
      "outputs": [
        {
          "internalType": "string",
          "name": "",
          "type": "string"
        }
      ],
      "stateMutability": "view",
      "type": "function"
    }
  ],
  "bytecode": "0x60806040523480156200001157600080fd5b506040516200424a3803806200424a8339818101604052810190620000379190620004f1565b33816200004a816200010c60201b60201c565b50600073ffffffffffffffffffffffffffffffffffffffff168173ffffffffffffffffffffffffffffffffffffffff1603620000c05760006040517f1e4fbdf7000000000000000000000000000000000000000000000000000000008152600401620000b7919062000587565b60405180910390fd5b620000d1816200012160201b60201c565b50620001047f9f2df0fed2c77648de5860a4cc508cd0818c85b8b8a1ab4ceeef8d981c8956a633620001e760201b60201c565b5050620008d6565b80600290816200011d9190620007ef565b5050565b6000600460009054906101000a900473ffffffffffffffffffffffffffffffffffffffff16905081600460006101000a81548173ffffffffffffffffffffffffffffffffffffffff021916908373ffffffffffffffffffffffffffffffffffffffff1602179055508173ffffffffffffffffffffffffffffffffffffffff168173ffffffffffffffffffffffffffffffffffffffff167f8be0079c531659141344cd1fd0a4f28419497f9722a3daafe3b4186f6b6457e060405160405180910390a35050565b6000620001fb8383620002eb60201b60201c565b620002e05760016003600085815260200190815260200160002060000160008473ffffffffffffffffffffffffffffffffffffffff1673ffffffffffffffffffffffffffffffffffffffff16815260200190815260200160002060006101000a81548160ff0219169083151502179055506200027c6200035660201b60201c565b73ffffffffffffffffffffffffffffffffffffffff168273ffffffffffffffffffffffffffffffffffffffff16847f2f8788117e7eff1d82e926ec794901d17c78024a50270940304540a733656f0d60405160405180910390a460019050620002e5565b600090505b92915050565b60006003600084815260200190815260200160002060000160008373ffffffffffffffffffffffffffffffffffffffff1673ffffffffffffffffffffffffffffffffffffffff16815260200190815260200160002060009054906101000a900460ff16905092915050565b600033905090565b6000604051905090565b600080fd5b600080fd5b600080fd5b600080fd5b6000601f19601f8301169050919050565b7f4e487b7100000000000000000000000000000000000000000000000000000000600052604160045260246000fd5b620003c7826200037c565b810181811067ffffffffffffffff82111715620003e957620003e86200038d565b5b80604052505050565b6000620003fe6200035e565b90506200040c8282620003bc565b919050565b600067ffffffffffffffff8211156200042f576200042e6200038d565b5b6200043a826200037c565b9050602081019050919050565b60005b83811015620004675780820151818401526020810190506200044a565b60008484015250505050565b60006200048a620004848462000411565b620003f2565b905082815260208101848484011115620004a957620004a862000377565b5b620004b684828562000447565b509392505050565b600082601f830112620004d657620004d562000372565b5b8151620004e884826020860162000473565b91505092915050565b6000602082840312156200050a576200050962000368565b5b600082015167ffffffffffffffff8111156200052b576200052a6200036d565b5b6200053984828501620004be565b91505092915050565b600073ffffffffffffffffffffffffffffffffffffffff82169050919050565b60006200056f8262000542565b9050919050565b620005818162000562565b82525050565b60006020820190506200059e600083018462000576565b92915050565b600081519050919050565b7f4e487b7100000000000000000000000000000000000000000000000000000000600052602260045260246000fd5b60006002820490506001821680620005f757607f821691505b6020821081036200060d576200060c620005af565b5b50919050565b60008190508160005260206000209050919050565b60006020601f8301049050919050565b600082821b905092915050565b600060088302620006777fffffffffffffffffffffffffffffffffffffffffffffffffffffffffffffffff8262000638565b62000683868362000638565b95508019841693508086168417925050509392505050565b6000819050919050565b6000819050919050565b6000620006d0620006ca620006c4846200069b565b620006a5565b6200069b565b9050919050565b6000819050919050565b620006ec83620006af565b62000704620006fb82620006d7565b84845462000645565b825550505050565b600090565b6200071b6200070c565b62000728818484620006e1565b505050565b5b8181101562000750576200074460008262000711565b6001810190506200072e565b5050565b601f8211156200079f57620007698162000613565b620007748462000628565b8101602085101562000784578190505b6200079c620007938562000628565b8301826200072d565b50505b505050565b600082821c905092915050565b6000620007c460001984600802620007a4565b1980831691505092915050565b6000620007df8383620007b1565b9150826002028217905092915050565b620007fa82620005a4565b67ffffffffffffffff8111156200081657620008156200038d565b5b620008228254620005de565b6200082f82828562000754565b600060209050601f83116001811462000867576000841562000852578287015190505b6200085e8582620007d1565b865550620008ce565b601f198416620008778662000613565b60005b82811015620008a1578489015182556001820191506020850194506020810190506200087a565b86831015620008c15784890151620008bd601f891682620007b1565b8355505b6001600288020188555050505b505050505050565b61396480620008e66000396000f3fe60806040526004361061019b5760003560e01c8063715018a6116100ec578063d53913931161008a578063e5afe3e611610064578063e5afe3e614610602578063e985e9c51461063f578063f242432a1461067c578063f2fde38b146106a55761019b565b8063d539139314610583578063d547741f146105ae578063d9a19635146105d75761019b565b806391d14854116100c657806391d14854146104b5578063a217fddf146104f2578063a22cb4651461051d578063a574cea4146105465761019b565b8063715018a6146104365780637402ba961461044d5780638da5cb5b1461048a5761019b565b80632693ebf21161015957806332cb6b0c1161013357806332cb6b0c1461037c57806336568abe146103a75780634e1273f4146103d057806357e7aba71461040d5761019b565b80632693ebf2146102ed5780632eb2c2d61461032a5780632f2ff15d146103535761019b565b8062fdd58e146101a057806301ffc9a7146101dd578063057466ea1461021a5780630e89341c146102365780631d90927614610273578063248a9ca3146102b0575b600080fd5b3480156101ac57600080fd5b506101c760048036038101906101c291906124d7565b6106ce565b6040516101d49190612526565b60405180910390f35b3480156101e957600080fd5b5061020460048036038101906101ff9190612599565b610728565b60405161021191906125e1565b60405180910390f35b610234600480360381019061022f91906125fc565b61073a565b005b34801561024257600080fd5b5061025d6004803603810190610258919061263c565b6108b3565b60405161026a91906126f9565b60405180910390f35b34801561027f57600080fd5b5061029a6004803603810190610295919061263c565b610947565b6040516102a791906126f9565b60405180910390f35b3480156102bc57600080fd5b506102d760048036038101906102d29190612751565b6109e7565b6040516102e4919061278d565b60405180910390f35b3480156102f957600080fd5b50610314600480360381019061030f919061263c565b610a07565b6040516103219190612526565b60405180910390f35b34801561033657600080fd5b50610351600480360381019061034c91906129a5565b610a1f565b005b34801561035f57600080fd5b5061037a60048036038101906103759190612a74565b610ac7565b005b34801561038857600080fd5b50610391610ae9565b60405161039e9190612526565b60405180910390f35b3480156103b357600080fd5b506103ce60048036038101906103c99190612a74565b610aee565b005b3480156103dc57600080fd5b506103f760048036038101906103f29190612b77565b610b69565b6040516104049190612cad565b60405180910390f35b34801561041957600080fd5b50610434600480360381019061042f9190612d70565b610c72565b005b34801561044257600080fd5b5061044b610e72565b005b34801561045957600080fd5b50610474600480360381019061046f919061263c565b610e86565b6040516104819190612526565b60405180910390f35b34801561049657600080fd5b5061049f610e9e565b6040516104ac9190612e02565b60405180910390f35b3480156104c157600080fd5b506104dc60048036038101906104d79190612a74565b610ec8565b6040516104e991906125e1565b60405180910390f35b3480156104fe57600080fd5b50610507610f33565b604051610514919061278d565b60405180910390f35b34801561052957600080fd5b50610544600480360381019061053f9190612e49565b610f3a565b005b34801561055257600080fd5b5061056d6004803603810190610568919061263c565b610f50565b60405161057a91906126f9565b60405180910390f35b34801561058f57600080fd5b50610598610ff5565b6040516105a5919061278d565b60405180910390f35b3480156105ba57600080fd5b506105d560048036038101906105d09190612a74565b611019565b005b3480156105e357600080fd5b506105ec61103b565b6040516105f991906126f9565b60405180910390f35b34801561060e57600080fd5b506106296004803603810190610624919061263c565b6110ca565b6040516106369190612526565b60405180910390f35b34801561064b57600080fd5b5061066660048036038101906106619190612e89565b6110e2565b60405161067391906125e1565b60405180910390f35b34801561068857600080fd5b506106a3600480360381019061069e9190612ec9565b611176565b005b3480156106b157600080fd5b506106cc60048036038101906106c79190612f60565b61121e565b005b600080600083815260200190815260200160002060008473ffffffffffffffffffffffffffffffffffffffff1673ffffffffffffffffffffffffffffffffffffffff16815260200190815260200160002054905092915050565b6000610733826112a4565b9050919050565b8060066000848152602001908152602001600020546107599190612fbc565b34101561079b576040517f08c379a00000000000000000000000000000000000000000000000000000000081526004016107929061304a565b60405180910390fd5b600860008381526020019081526020016000205460076000848152602001908152602001600020546107cd919061306a565b81111561080f576040517f08c379a0000000000000000000000000000000000000000000000000000000008152600401610806906130ea565b60405180910390fd5b61082b303384846040518060200160405280600081525061131e565b80600860008481526020019081526020016000205461084a919061310a565b6008600084815260200190815260200160002081905550610869610e9e565b73ffffffffffffffffffffffffffffffffffffffff166108fc349081150290604051600060405180830381858888f193505050501580156108ae573d6000803e3d6000fd5b505050565b6060600280546108c29061316d565b80601f01602080910402602001604051908101604052809291908181526020018280546108ee9061316d565b801561093b5780601f106109105761010080835404028352916020019161093b565b820191906000526020600020905b81548152906001019060200180831161091e57829003601f168201915b50505050509050919050565b600960205280600052604060002060009150905080546109669061316d565b80601f01602080910402602001604051908101604052809291908181526020018280546109929061316d565b80156109df5780601f106109b4576101008083540402835291602001916109df565b820191906000526020600020905b8154815290600101906020018083116109c257829003601f168201915b505050505081565b600060036000838152602001908152602001600020600101549050919050565b60076020528060005260406000206000915090505481565b6000610a29611429565b90508073ffffffffffffffffffffffffffffffffffffffff168673ffffffffffffffffffffffffffffffffffffffff1614158015610a6e5750610a6c86826110e2565b155b15610ab25780866040517fe237d922000000000000000000000000000000000000000000000000000000008152600401610aa992919061319e565b60405180910390fd5b610abf8686868686611431565b505050505050565b610ad0826109e7565b610ad981611529565b610ae3838361153d565b50505050565b606481565b610af6611429565b73ffffffffffffffffffffffffffffffffffffffff168173ffffffffffffffffffffffffffffffffffffffff1614610b5a576040517f6697b23200000000000000000000000000000000000000000000000000000000815260040160405180910390fd5b610b64828261162f565b505050565b60608151835114610bb557815183516040517f5b059991000000000000000000000000000000000000000000000000000000008152600401610bac9291906131c7565b60405180910390fd5b6000835167ffffffffffffffff811115610bd257610bd16127ad565b5b604051908082528060200260200182016040528015610c005781602001602082028036833780820191505090505b50905060005b8451811015610c6757610c3d610c25828761172290919063ffffffff16565b610c38838761173690919063ffffffff16565b6106ce565b828281518110610c5057610c4f6131f0565b5b602002602001018181525050806001019050610c06565b508091505092915050565b7f9f2df0fed2c77648de5860a4cc508cd0818c85b8b8a1ab4ceeef8d981c8956a6610c9c81611529565b6000600760008781526020019081526020016000205414610cf2576040517f08c379a0000000000000000000000000000000000000000000000000000000008152600401610ce99061326b565b60405180910390fd5b60008411610d35576040517f08c379a0000000000000000000000000000000000000000000000000000000008152600401610d2c906132d7565b60405180910390fd5b6064841115610d79576040517f08c379a0000000000000000000000000000000000000000000000000000000008152600401610d7090613343565b60405180910390fd5b6000831015610dbd576040517f08c379a0000000000000000000000000000000000000000000000000000000008152600401610db4906133af565b60405180910390fd5b610dd83386866040518060200160405280600081525061174a565b8260066000878152602001908152602001600020819055508360076000878152602001908152602001600020819055506000600860008781526020019081526020016000208190555081600960008781526020019081526020016000209081610e41919061357b565b5060058590806001815401808255809150506001900390600052602060002001600090919091909150555050505050565b610e7a6117e3565b610e84600061186a565b565b60086020528060005260406000206000915090505481565b6000600460009054906101000a900473ffffffffffffffffffffffffffffffffffffffff16905090565b60006003600084815260200190815260200160002060000160008373ffffffffffffffffffffffffffffffffffffffff1673ffffffffffffffffffffffffffffffffffffffff16815260200190815260200160002060009054906101000a900460ff16905092915050565b6000801b81565b610f4c610f45611429565b8383611930565b5050565b6060600960008381526020019081526020016000208054610f709061316d565b80601f0160208091040260200160405190810160405280929190818152602001828054610f9c9061316d565b8015610fe95780601f10610fbe57610100808354040283529160200191610fe9565b820191906000526020600020905b815481529060010190602001808311610fcc57829003601f168201915b50505050509050919050565b7f9f2df0fed2c77648de5860a4cc508cd0818c85b8b8a1ab4ceeef8d981c8956a681565b611022826109e7565b61102b81611529565b611035838361162f565b50505050565b6060600060405180602001604052806000815250905060005b6005805490508110156110c25781600960006005848154811061107a576110796131f0565b5b906000526020600020015481526020019081526020016000206040516020016110a492919061370c565b60405160208183030381529060405291508080600101915050611054565b508091505090565b60066020528060005260406000206000915090505481565b6000600160008473ffffffffffffffffffffffffffffffffffffffff1673ffffffffffffffffffffffffffffffffffffffff16815260200190815260200160002060008373ffffffffffffffffffffffffffffffffffffffff1673ffffffffffffffffffffffffffffffffffffffff16815260200190815260200160002060009054906101000a900460ff16905092915050565b6000611180611429565b90508073ffffffffffffffffffffffffffffffffffffffff168673ffffffffffffffffffffffffffffffffffffffff16141580156111c557506111c386826110e2565b155b156112095780866040517fe237d92200000000000000000000000000000000000000000000000000000000815260040161120092919061319e565b60405180910390fd5b611216868686868661131e565b505050505050565b6112266117e3565b600073ffffffffffffffffffffffffffffffffffffffff168173ffffffffffffffffffffffffffffffffffffffff16036112985760006040517f1e4fbdf700000000000000000000000000000000000000000000000000000000815260040161128f9190612e02565b60405180910390fd5b6112a18161186a565b50565b60007f7965db0b000000000000000000000000000000000000000000000000000000007bffffffffffffffffffffffffffffffffffffffffffffffffffffffff1916827bffffffffffffffffffffffffffffffffffffffffffffffffffffffff19161480611317575061131682611aa0565b5b9050919050565b600073ffffffffffffffffffffffffffffffffffffffff168473ffffffffffffffffffffffffffffffffffffffff16036113905760006040517f57f447ce0000000000000000000000000000000000000000000000000000000081526004016113879190612e02565b60405180910390fd5b600073ffffffffffffffffffffffffffffffffffffffff168573ffffffffffffffffffffffffffffffffffffffff16036114025760006040517f01a835140000000000000000000000000000000000000000000000000000000081526004016113f99190612e02565b60405180910390fd5b60008061140f8585611b82565b915091506114208787848487611bb2565b50505050505050565b600033905090565b600073ffffffffffffffffffffffffffffffffffffffff168473ffffffffffffffffffffffffffffffffffffffff16036114a35760006040517f57f447ce00000000000000000000000000000000000000000000000000000000815260040161149a9190612e02565b60405180910390fd5b600073ffffffffffffffffffffffffffffffffffffffff168573ffffffffffffffffffffffffffffffffffffffff16036115155760006040517f01a8351400000000000000000000000000000000000000000000000000000000815260040161150c9190612e02565b60405180910390fd5b6115228585858585611bb2565b5050505050565b61153a81611535611429565b611c64565b50565b60006115498383610ec8565b6116245760016003600085815260200190815260200160002060000160008473ffffffffffffffffffffffffffffffffffffffff1673ffffffffffffffffffffffffffffffffffffffff16815260200190815260200160002060006101000a81548160ff0219169083151502179055506115c1611429565b73ffffffffffffffffffffffffffffffffffffffff168273ffffffffffffffffffffffffffffffffffffffff16847f2f8788117e7eff1d82e926ec794901d17c78024a50270940304540a733656f0d60405160405180910390a460019050611629565b600090505b92915050565b600061163b8383610ec8565b156117175760006003600085815260200190815260200160002060000160008473ffffffffffffffffffffffffffffffffffffffff1673ffffffffffffffffffffffffffffffffffffffff16815260200190815260200160002060006101000a81548160ff0219169083151502179055506116b4611429565b73ffffffffffffffffffffffffffffffffffffffff168273ffffffffffffffffffffffffffffffffffffffff16847ff6391f5c32d9c69d2a47ea670b442974b53935d1edc7fd64eb21e047a839171b60405160405180910390a46001905061171c565b600090505b92915050565b600060208202602084010151905092915050565b600060208202602084010151905092915050565b600073ffffffffffffffffffffffffffffffffffffffff168473ffffffffffffffffffffffffffffffffffffffff16036117bc5760006040517f57f447ce0000000000000000000000000000000000000000000000000000000081526004016117b39190612e02565b60405180910390fd5b6000806117c98585611b82565b915091506117db600087848487611bb2565b505050505050565b6117eb611429565b73ffffffffffffffffffffffffffffffffffffffff16611809610e9e565b73ffffffffffffffffffffffffffffffffffffffff16146118685761182c611429565b6040517f118cdaa700000000000000000000000000000000000000000000000000000000815260040161185f9190612e02565b60405180910390fd5b565b6000600460009054906101000a900473ffffffffffffffffffffffffffffffffffffffff16905081600460006101000a81548173ffffffffffffffffffffffffffffffffffffffff021916908373ffffffffffffffffffffffffffffffffffffffff1602179055508173ffffffffffffffffffffffffffffffffffffffff168173ffffffffffffffffffffffffffffffffffffffff167f8be0079c531659141344cd1fd0a4f28419497f9722a3daafe3b4186f6b6457e060405160405180910390a35050565b600073ffffffffffffffffffffffffffffffffffffffff168273ffffffffffffffffffffffffffffffffffffffff16036119a25760006040517fced3e1000000000000000000000000000000000000000000000000000000000081526004016119999190612e02565b60405180910390fd5b80600160008573ffffffffffffffffffffffffffffffffffffffff1673ffffffffffffffffffffffffffffffffffffffff16815260200190815260200160002060008473ffffffffffffffffffffffffffffffffffffffff1673ffffffffffffffffffffffffffffffffffffffff16815260200190815260200160002060006101000a81548160ff0219169083151502179055508173ffffffffffffffffffffffffffffffffffffffff168373ffffffffffffffffffffffffffffffffffffffff167f17307eab39ab6107e8899845ad3d59bd9653f200f220920489ca2b5937696c3183604051611a9391906125e1565b60405180910390a3505050565b60007fd9b67a26000000000000000000000000000000000000000000000000000000007bffffffffffffffffffffffffffffffffffffffffffffffffffffffff1916827bffffffffffffffffffffffffffffffffffffffffffffffffffffffff19161480611b6b57507f0e89341c000000000000000000000000000000000000000000000000000000007bffffffffffffffffffffffffffffffffffffffffffffffffffffffff1916827bffffffffffffffffffffffffffffffffffffffffffffffffffffffff1916145b80611b7b5750611b7a82611cb5565b5b9050919050565b60608060405191506001825283602083015260408201905060018152826020820152604081016040529250929050565b611bbe85858585611d1f565b600073ffffffffffffffffffffffffffffffffffffffff168473ffffffffffffffffffffffffffffffffffffffff1614611c5d576000611bfc611429565b90506001845103611c4c576000611c1d60008661173690919063ffffffff16565b90506000611c3560008661173690919063ffffffff16565b9050611c458389898585896120c7565b5050611c5b565b611c5a81878787878761227b565b5b505b5050505050565b611c6e8282610ec8565b611cb15780826040517fe2517d3f000000000000000000000000000000000000000000000000000000008152600401611ca8929190613730565b60405180910390fd5b5050565b60007f01ffc9a7000000000000000000000000000000000000000000000000000000007bffffffffffffffffffffffffffffffffffffffffffffffffffffffff1916827bffffffffffffffffffffffffffffffffffffffffffffffffffffffff1916149050919050565b8051825114611d6957815181516040517f5b059991000000000000000000000000000000000000000000000000000000008152600401611d609291906131c7565b60405180910390fd5b6000611d73611429565b905060005b8351811015611f82576000611d96828661173690919063ffffffff16565b90506000611dad838661173690919063ffffffff16565b9050600073ffffffffffffffffffffffffffffffffffffffff168873ffffffffffffffffffffffffffffffffffffffff1614611eda57600080600084815260200190815260200160002060008a73ffffffffffffffffffffffffffffffffffffffff1673ffffffffffffffffffffffffffffffffffffffff16815260200190815260200160002054905081811015611e8257888183856040517f03dee4c5000000000000000000000000000000000000000000000000000000008152600401611e799493929190613759565b60405180910390fd5b81810360008085815260200190815260200160002060008b73ffffffffffffffffffffffffffffffffffffffff1673ffffffffffffffffffffffffffffffffffffffff16815260200190815260200160002081905550505b600073ffffffffffffffffffffffffffffffffffffffff168773ffffffffffffffffffffffffffffffffffffffff1614611f75578060008084815260200190815260200160002060008973ffffffffffffffffffffffffffffffffffffffff1673ffffffffffffffffffffffffffffffffffffffff1681526020019081526020016000206000828254611f6d919061310a565b925050819055505b5050806001019050611d78565b506001835103612041576000611fa260008561173690919063ffffffff16565b90506000611fba60008561173690919063ffffffff16565b90508573ffffffffffffffffffffffffffffffffffffffff168773ffffffffffffffffffffffffffffffffffffffff168473ffffffffffffffffffffffffffffffffffffffff167fc3d58168c5ae7397731d063d5bbf3d657854427343f4c083240f7aacaa2d0f6285856040516120329291906131c7565b60405180910390a450506120c0565b8373ffffffffffffffffffffffffffffffffffffffff168573ffffffffffffffffffffffffffffffffffffffff168273ffffffffffffffffffffffffffffffffffffffff167f4a39dc06d4c0dbc64b70af90fd698a233a518aa5d07e595d983b8c0526c8f7fb86866040516120b792919061379e565b60405180910390a45b5050505050565b60008473ffffffffffffffffffffffffffffffffffffffff163b1115612273578373ffffffffffffffffffffffffffffffffffffffff1663f23a6e6187878686866040518663ffffffff1660e01b815260040161212895949392919061382a565b6020604051808303816000875af192505050801561216457506040513d601f19601f820116820180604052508101906121619190613899565b60015b6121e8573d8060008114612194576040519150601f19603f3d011682016040523d82523d6000602084013e612199565b606091505b5060008151036121e057846040517f57f447ce0000000000000000000000000000000000000000000000000000000081526004016121d79190612e02565b60405180910390fd5b805181602001fd5b63f23a6e6160e01b7bffffffffffffffffffffffffffffffffffffffffffffffffffffffff1916817bffffffffffffffffffffffffffffffffffffffffffffffffffffffff19161461227157846040517f57f447ce0000000000000000000000000000000000000000000000000000000081526004016122689190612e02565b60405180910390fd5b505b505050505050565b60008473ffffffffffffffffffffffffffffffffffffffff163b1115612427578373ffffffffffffffffffffffffffffffffffffffff1663bc197c8187878686866040518663ffffffff1660e01b81526004016122dc9594939291906138c6565b6020604051808303816000875af192505050801561231857506040513d601f19601f820116820180604052508101906123159190613899565b60015b61239c573d8060008114612348576040519150601f19603f3d011682016040523d82523d6000602084013e61234d565b606091505b50600081510361239457846040517f57f447ce00000000000000000000000000000000000000000000000000000000815260040161238b9190612e02565b60405180910390fd5b805181602001fd5b63bc197c8160e01b7bffffffffffffffffffffffffffffffffffffffffffffffffffffffff1916817bffffffffffffffffffffffffffffffffffffffffffffffffffffffff19161461242557846040517f57f447ce00000000000000000000000000000000000000000000000000000000815260040161241c9190612e02565b60405180910390fd5b505b505050505050565b6000604051905090565b600080fd5b600080fd5b600073ffffffffffffffffffffffffffffffffffffffff82169050919050565b600061246e82612443565b9050919050565b61247e81612463565b811461248957600080fd5b50565b60008135905061249b81612475565b92915050565b6000819050919050565b6124b4816124a1565b81146124bf57600080fd5b50565b6000813590506124d1816124ab565b92915050565b600080604083850312156124ee576124ed612439565b5b60006124fc8582860161248c565b925050602061250d858286016124c2565b9150509250929050565b612520816124a1565b82525050565b600060208201905061253b6000830184612517565b92915050565b60007fffffffff0000000000000000000000000000000000000000000000000000000082169050919050565b61257681612541565b811461258157600080fd5b50565b6000813590506125938161256d565b92915050565b6000602082840312156125af576125ae612439565b5b60006125bd84828501612584565b91505092915050565b60008115159050919050565b6125db816125c6565b82525050565b60006020820190506125f660008301846125d2565b92915050565b6000806040838503121561261357612612612439565b5b6000612621858286016124c2565b9250506020612632858286016124c2565b9150509250929050565b60006020828403121561265257612651612439565b5b6000612660848285016124c2565b91505092915050565b600081519050919050565b600082825260208201905092915050565b60005b838110156126a3578082015181840152602081019050612688565b60008484015250505050565b6000601f19601f8301169050919050565b60006126cb82612669565b6126d58185612674565b93506126e5818560208601612685565b6126ee816126af565b840191505092915050565b6000602082019050818103600083015261271381846126c0565b905092915050565b6000819050919050565b61272e8161271b565b811461273957600080fd5b50565b60008135905061274b81612725565b92915050565b60006020828403121561276757612766612439565b5b60006127758482850161273c565b91505092915050565b6127878161271b565b82525050565b60006020820190506127a2600083018461277e565b92915050565b600080fd5b7f4e487b7100000000000000000000000000000000000000000000000000000000600052604160045260246000fd5b6127e5826126af565b810181811067ffffffffffffffff82111715612804576128036127ad565b5b80604052505050565b600061281761242f565b905061282382826127dc565b919050565b600067ffffffffffffffff821115612843576128426127ad565b5b602082029050602081019050919050565b600080fd5b600061286c61286784612828565b61280d565b9050808382526020820190506020840283018581111561288f5761288e612854565b5b835b818110156128b857806128a488826124c2565b845260208401935050602081019050612891565b5050509392505050565b600082601f8301126128d7576128d66127a8565b5b81356128e7848260208601612859565b91505092915050565b600080fd5b600067ffffffffffffffff8211156129105761290f6127ad565b5b612919826126af565b9050602081019050919050565b82818337600083830152505050565b6000612948612943846128f5565b61280d565b905082815260208101848484011115612964576129636128f0565b5b61296f848285612926565b509392505050565b600082601f83011261298c5761298b6127a8565b5b813561299c848260208601612935565b91505092915050565b600080600080600060a086880312156129c1576129c0612439565b5b60006129cf8882890161248c565b95505060206129e08882890161248c565b945050604086013567ffffffffffffffff811115612a0157612a0061243e565b5b612a0d888289016128c2565b935050606086013567ffffffffffffffff811115612a2e57612a2d61243e565b5b612a3a888289016128c2565b925050608086013567ffffffffffffffff811115612a5b57612a5a61243e565b5b612a6788828901612977565b9150509295509295909350565b60008060408385031215612a8b57612a8a612439565b5b6000612a998582860161273c565b9250506020612aaa8582860161248c565b9150509250929050565b600067ffffffffffffffff821115612acf57612ace6127ad565b5b602082029050602081019050919050565b6000612af3612aee84612ab4565b61280d565b90508083825260208201905060208402830185811115612b1657612b15612854565b5b835b81811015612b3f5780612b2b888261248c565b845260208401935050602081019050612b18565b5050509392505050565b600082601f830112612b5e57612b5d6127a8565b5b8135612b6e848260208601612ae0565b91505092915050565b60008060408385031215612b8e57612b8d612439565b5b600083013567ffffffffffffffff811115612bac57612bab61243e565b5b612bb885828601612b49565b925050602083013567ffffffffffffffff811115612bd957612bd861243e565b5b612be5858286016128c2565b9150509250929050565b600081519050919050565b600082825260208201905092915050565b6000819050602082019050919050565b612c24816124a1565b82525050565b6000612c368383612c1b565b60208301905092915050565b6000602082019050919050565b6000612c5a82612bef565b612c648185612bfa565b9350612c6f83612c0b565b8060005b83811015612ca0578151612c878882612c2a565b9750612c9283612c42565b925050600181019050612c73565b5085935050505092915050565b60006020820190508181036000830152612cc78184612c4f565b905092915050565b600067ffffffffffffffff821115612cea57612ce96127ad565b5b612cf3826126af565b9050602081019050919050565b6000612d13612d0e84612ccf565b61280d565b905082815260208101848484011115612d2f57612d2e6128f0565b5b612d3a848285612926565b509392505050565b600082601f830112612d5757612d566127a8565b5b8135612d67848260208601612d00565b91505092915050565b60008060008060808587031215612d8a57612d89612439565b5b6000612d98878288016124c2565b9450506020612da9878288016124c2565b9350506040612dba878288016124c2565b925050606085013567ffffffffffffffff811115612ddb57612dda61243e565b5b612de787828801612d42565b91505092959194509250565b612dfc81612463565b82525050565b6000602082019050612e176000830184612df3565b92915050565b612e26816125c6565b8114612e3157600080fd5b50565b600081359050612e4381612e1d565b92915050565b60008060408385031215612e6057612e5f612439565b5b6000612e6e8582860161248c565b9250506020612e7f85828601612e34565b9150509250929050565b60008060408385031215612ea057612e9f612439565b5b6000612eae8582860161248c565b9250506020612ebf8582860161248c565b9150509250929050565b600080600080600060a08688031215612ee557612ee4612439565b5b6000612ef38882890161248c565b9550506020612f048882890161248c565b9450506040612f15888289016124c2565b9350506060612f26888289016124c2565b925050608086013567ffffffffffffffff811115612f4757612f4661243e565b5b612f5388828901612977565b9150509295509295909350565b600060208284031215612f7657612f75612439565b5b6000612f848482850161248c565b91505092915050565b7f4e487b7100000000000000000000000000000000000000000000000000000000600052601160045260246000fd5b6000612fc7826124a1565b9150612fd2836124a1565b9250828202612fe0816124a1565b91508282048414831517612ff757612ff6612f8d565b5b5092915050565b7f45746865722073656e74206973206e6f7420636f727265637400000000000000600082015250565b6000613034601983612674565b915061303f82612ffe565b602082019050919050565b6000602082019050818103600083015261306381613027565b9050919050565b6000613075826124a1565b9150613080836124a1565b925082820390508181111561309857613097612f8d565b5b92915050565b7f43616e2774206275792074686174206d616e7900000000000000000000000000600082015250565b60006130d4601383612674565b91506130df8261309e565b602082019050919050565b60006020820190508181036000830152613103816130c7565b9050919050565b6000613115826124a1565b9150613120836124a1565b925082820190508082111561313857613137612f8d565b5b92915050565b7f4e487b7100000000000000000000000000000000000000000000000000000000600052602260045260246000fd5b6000600282049050600182168061318557607f821691505b6020821081036131985761319761313e565b5b50919050565b60006040820190506131b36000830185612df3565b6131c06020830184612df3565b9392505050565b60006040820190506131dc6000830185612517565b6131e96020830184612517565b9392505050565b7f4e487b7100000000000000000000000000000000000000000000000000000000600052603260045260246000fd5b7f43616e2774206475706c6963617465206d696e74730000000000000000000000600082015250565b6000613255601583612674565b91506132608261321f565b602082019050919050565b6000602082019050818103600083015261328481613248565b9050919050565b7f4d696e74207175616e74697479206d757374206265203e203000000000000000600082015250565b60006132c1601983612674565b91506132cc8261328b565b602082019050919050565b600060208201905081810360008301526132f0816132b4565b9050919050565b7f45786365656473206d6178696d756d20746f6b656e20737570706c7900000000600082015250565b600061332d601c83612674565b9150613338826132f7565b602082019050919050565b6000602082019050818103600083015261335c81613320565b9050919050565b7f5072696365206d757374206265203e3d20300000000000000000000000000000600082015250565b6000613399601283612674565b91506133a482613363565b602082019050919050565b600060208201905081810360008301526133c88161338c565b9050919050565b60008190508160005260206000209050919050565b60006020601f8301049050919050565b600082821b905092915050565b6000600883026134317fffffffffffffffffffffffffffffffffffffffffffffffffffffffffffffffff826133f4565b61343b86836133f4565b95508019841693508086168417925050509392505050565b6000819050919050565b600061347861347361346e846124a1565b613453565b6124a1565b9050919050565b6000819050919050565b6134928361345d565b6134a661349e8261347f565b848454613401565b825550505050565b600090565b6134bb6134ae565b6134c6818484613489565b505050565b5b818110156134ea576134df6000826134b3565b6001810190506134cc565b5050565b601f82111561352f57613500816133cf565b613509846133e4565b81016020851015613518578190505b61352c613524856133e4565b8301826134cb565b50505b505050565b600082821c905092915050565b600061355260001984600802613534565b1980831691505092915050565b600061356b8383613541565b9150826002028217905092915050565b61358482612669565b67ffffffffffffffff81111561359d5761359c6127ad565b5b6135a7825461316d565b6135b28282856134ee565b600060209050601f8311600181146135e557600084156135d3578287015190505b6135dd858261355f565b865550613645565b601f1984166135f3866133cf565b60005b8281101561361b578489015182556001820191506020850194506020810190506135f6565b868310156136385784890151613634601f891682613541565b8355505b6001600288020188555050505b505050505050565b600081905092915050565b600061366382612669565b61366d818561364d565b935061367d818560208601612685565b80840191505092915050565b600081546136968161316d565b6136a0818661364d565b945060018216600081146136bb57600181146136d057613703565b60ff1983168652811515820286019350613703565b6136d9856133cf565b60005b838110156136fb578154818901526001820191506020810190506136dc565b838801955050505b50505092915050565b60006137188285613658565b91506137248284613689565b91508190509392505050565b60006040820190506137456000830185612df3565b613752602083018461277e565b9392505050565b600060808201905061376e6000830187612df3565b61377b6020830186612517565b6137886040830185612517565b6137956060830184612517565b95945050505050565b600060408201905081810360008301526137b88185612c4f565b905081810360208301526137cc8184612c4f565b90509392505050565b600081519050919050565b600082825260208201905092915050565b60006137fc826137d5565b61380681856137e0565b9350613816818560208601612685565b61381f816126af565b840191505092915050565b600060a08201905061383f6000830188612df3565b61384c6020830187612df3565b6138596040830186612517565b6138666060830185612517565b818103608083015261387881846137f1565b90509695505050505050565b6000815190506138938161256d565b92915050565b6000602082840312156138af576138ae612439565b5b60006138bd84828501613884565b91505092915050565b600060a0820190506138db6000830188612df3565b6138e86020830187612df3565b81810360408301526138fa8186612c4f565b9050818103606083015261390e8185612c4f565b9050818103608083015261392281846137f1565b9050969550505050505056fea2646970667358221220211f69f151b8a54e5c5218f73b03522ae8f0efce33ee577e16abc721c214072864736f6c63430008180033",
  "linkReferences": {},
  "deployedLinkReferences": {}
}